:1000000000000320D101000079990000319900001F
:1000100031990000319900003199000031990000B8
:100020003199000031990000319900007999000060
:10003000799900003199000051AD000055AE0000E3
:10004000799900007999000079990000854D0000A8
:100050007999000079990000799900007999000058
:100060007999000079990000799900007999000048
:100070007999000079990000799900007999000038
:100080007999000079990000799900007999000028
:100090007999000079990000799900007999000018
:1000A000B1960000BD960000799900007999000092
:1000B000799900007999000079990000ADB30000AA
:1000C00079990000D9B400007999000005B60000C4
:1000D00079990000FDB60000799900007999000037
:1000E00079990000799900007999000079990000C8
:1000F00079990000799900007999000079990000B8
:1001000079990000799900007999000079990000A7
:10011000799900000DA000007999000079990000FC
:100120007999000079990000799900007999000087
:100130007999000079990000799900007999000077
:100140007999000079990000F5B7000079990000CD
:100150007999000079990000799900007999000057
:100160007999000079990000C996000079990000FA
:100170007999000079990000799900007999000037
:1001800079990000C16E000079990000799900000A
:100190007999000079990000EDB800007999000084
:1001A0007999000079990000799900007999000007
:1001B00079990000799900007999000079990000F7
:1001C00079990000799900007999000079990000E7
:1001D0005D4B4CF2205210B51A804DF628121A8051
:1001E00000BF00BF09F0CCFB584B4FF030621A60E3
:1001F000574A9A60574ADA60574B4FF470021A60B8
:10020000564B574A1A60574A136813F4807304D147
:1002100055490B604FF4A8531360544B1A781107DB
:1002200003D51A7842F008021A70514B5149AA229C
:100230001A70514A514B8B4204D252F8040F43F8C2
:10024000040BF8E74E4B4F4900228B4202D243F891
:10025000042BFAE74C494D4A002352F8230041F899
:1002600023000133742BF8D1494B4A4A802103F80B
:10027000011B9342FBD1484B434A1A60474B8A22E9
:100280001A70A3F5805324225A70A0221A709A790A
:100290009207FCD59A79D406FCD4414A937903F0AD
:1002A0000C03082BFAD13F4B60221A7002331A78E4
:1002B000802AFCD13A4B00221A7142225A719A7953
:1002C0009006FCD59979364A4906FBD5364B4FF056
:1002D000017119600421596020231370937903F090
:1002E0000C030C2BFAD1314B314A1A60314B324A94
:1002F0001A6000225A60072243F8042C2F4AC3F8E0
:100300000C2D62B609F014FD174B1B68DA0705D5F2
:100310002B4809F06DFC2B4B2B4A1A602B4B1B789A
:100320005B0609D5274C284B22689A4204D1244801
:1003300009F05EFC002323600CF0AAF809F026FB0C
:100340000AF008FFFEE700BF0E20054030800440A1
:10035000823F04000100002B88ED00E0002008E04F
:100360000300008510D0034014D0034002D00740A2
:1003700000E00740D016FF1F987C01003007FF1FE8
:10038000D016FF1F488BFF1F0002FF1F0000000058
:1003900000E400E064E400E008ED00E00050064006
:1003A0000040064001E007404480044004800440CF
:1003B000C010050014E000E07F32020000002020A1
:1003C0003E8AE05B1CE00340A5C3945A00F007405E
:1003D000FFFFFFFFFFFFFFFFFFFFFFFFFFFFFFFF2D
:1003E000FFFFFFFFFFFFFFFFFFFFFFFFFFFFFFFF1D
:1003F000FFFFFFFFFFFFFFFFFFFFFFFFFFFFFFFF0D
:10040000FFFFFFFFFFFFFFFFFFFFFFFFDEF9FFFF23
:1004100010B5054C237833B9044B13B10448AFF33E
:1004200000800123237010BDD016FF1F00000000C4
:10043000947C0100084B10B51BB108490848AFF384
:1004400000800848036803B910BD074B002BFBD0A0
:10045000BDE81040184700BF00000000D416FF1F81
:10046000947C0100D016FF1F0000000000207047A0
:10047000704700BFF8B50E46074607F001F905467C
:1004800007F0EEF8044607F0DBF86401C0B204F4AC
:10049000FF54ADB2A5F2BC75044344EA45243C8048
:1004A00007F09EF8054607F0ABF8044607F0B8F8E9
:1004B000ED02640105F4FF2504F4FF542C43C0F35E
:1004C000460004433480F8BD38B5044600F1080501
:1004D000D4F89C30284698474FF6FD7398420CD8C4
:1004E000034694F8A12094F8A010284608F008F8D4
:1004F00094F8A030184484F8A000012038BD00BF53
:1005000009F070BB10B5034B0360044600F09CFB80
:10051000204610BD304F01002DE9F04715469AB333
:1005200004460F46DFF86490002600F108084FF6F5
:10053000FD7A03E00120013D06441ED0236817F830
:10054000012B1B684B451146404619D1D4F89C300D
:1005500098475045EED8034694F8A12094F8A0108F
:10056000404607F0CDFF94F8A030184484F8A0006E
:10057000013D4FF001000644E0D13046BDE8F08770
:10058000114620469847D6E71646F6E7C90400000C
:1005900030B5314C206883B0083007F04BFB206841
:1005A0002E4B0193002240231146083000938023F4
:1005B00007F0F0F920682A49083008F00DF82068A3
:1005C000083008F003F820682649036802251B223A
:1005D00080F8A12080F8A0505B6809229847206825
:1005E0002149083007F0F8FF236883F8A05083F80A
:1005F000A15000F0CBFDD0F81032206833B303686F
:100600001A495B680622984720681949083007F0A4
:10061000E3FF2068174903680225342280F8A050C0
:1006200080F8A1205B6805229847206800224023BB
:100630000093083001921146802307F04FFA20689A
:10064000083003B0BDE8304007F000BB03680A493A
:100650005B6807229847D7E7EC16FF1F7845010033
:10066000FC5C0100C04901002C680100D449010074
:100670003C6B0100DC490100CC49010070B500F081
:1006800085FDD0F81062A42076B30AF06BFD244BF0
:10069000036005460023234AC5F89C2000F10804A6
:1006A00020462B7185F8A03085F8A13008F070FB4A
:1006B0001D4828601D4B1E4A1E49204607F096FC27
:1006C000FF2319461A46204607F0B4F81A4B204675
:1006D0001D6008F04BFD204607F054FC2046002129
:1006E000BDE8704008F04CBD0AF03CFD054600F145
:1006F00008040B4A0B4B067120462A60C5F89C3053
:1007000085F8A06085F8A16008F042FB0B482860DE
:10071000064B074A0749204607F04AFCD0E700BFCE
:1007200080490100818D0000B04901002D77000053
:1007300045780000B4740100EC16FF1F98490100D1
:1007400038B5194C04F58C65284606F0D1FB40B944
:100750001C2116480AF096F915480AF083FB002080
:1007600038BD04F23C40256004F020FF0121204602
:1007700006F078F888B10C4C04F23C452846214636
:1007800004F0A4FF0028E3D094F83C3413F0700F79
:10079000DED0084B01201D6038BD0146204606F022
:1007A00061F80028E7D1D3E75C7BFF1FE449010033
:1007B000700CFF1F1C82FF1F10B56C488CB006F038
:1007C000A7FF15216A480AF05DF96A480AF04AFB5A
:1007D00001210D2009F032FA00210D2009F01AFA4A
:1007E000032408230222072101936348009406236F
:1007F00004F0C6FC00F038FB4FF4FA7009F048FA38
:1008000000235D488DF8103004F0F4FD022835D047
:1008100000F0BCFCD0F81032002B7FD0574B93E88F
:1008200003000B0C0490ADF814108DF81630FFF790
:1008300025FFFFF7ADFE4FF47A7009F029FAFFF7B4
:100840007FFF002856D04E4B4E4A1A6004AC00F091
:100850009DFCD0F80C324C4A0094012B0CBF4B4944
:100860004B499023002000F0C1FD00F055FB494B9F
:10087000186800B1012000F03DFC42E001210D208C
:1008800009F0C8F94FF4967009F002FA00210D2022
:1008900009F0C0F94FF4967009F0FAF9013CEDD176
:1008A00000F074FCD0F810320133C0F8103200F0C0
:1008B0006DFCD0F81032012B03DD00F067FCC0F8AE
:1008C000104200F063FCD0F81032002B2DD1324BD7
:1008D00093E8030004AB83E8030000F0C9FBFFF7D3
:1008E000CDFEFFF755FE4FF47A7009F0D1F9FFF70E
:1008F00027FF20BB29482A4900F062FD032000F0B1
:10090000F9FB284B28491A68039203981B68029345
:10091000029A264B08601A600CB010BD1E4B93E87B
:10092000030004AC84E8030081E7144B93E8030060
:100930000B0C0490ADF814108DF81630CDE7104B69
:10094000104A1A6000F022FCD0F80C32012B06D0BD
:1009500004AC22461649002000F048FD77E704ACBD
:1009600022461449002000F041FD70E70105000017
:10097000044A0100700CFF1F4018FF1FD4490100FA
:100980002082FF1F75040000DC4901006C4A010051
:10099000B44A0100D07FFF1FCC490100E87AFF1F55
:1009A0001C4A01009086FF1FD818FF1F7018FF1FF8
:1009B000504A0100304A010070B51C4C1C4D2368A0
:1009C0002A6884B00093009B9B1A142B17D82368C5
:1009D000184C0293029B2268144D9B1AB3F5FA7FC0
:1009E00008D9154B186803681B6998472B6803934F
:1009F000039B23600A2009F04BF904B070BD0F4B34
:100A00000F481E6804F0F6FC0B4B1B681A68014681
:100A1000526918469047042803D0B04201D000F034
:100A200069FB23680193019B2B60D0E79086FF1F31
:100A3000D818FF1F7018FF1FF481FF1FD07FFF1F02
:100A40004018FF1F10B5054B0360044600F0FCF88A
:100A5000204674210AF08AFB204610BD304F010069
:100A60002DE9F843214B224D224AC3F86024DFF8D8
:100A7000AC90214C214EDFF8A880214F0022DA7182
:100A800083F83C2483F83D24284604F073FB294670
:100A9000484601F099FF224648461A490BF0E6FC09
:100AA0002946304601F026FC224630461649174EAC
:100AB0000BF0DCFC2946404601F074FB2246404620
:100AC00013490BF0D3FC2946384600F0DFFE2246DE
:100AD000104938460BF0CAFC304600F075FC22463F
:100AE00030460D49BDE8F8430BF0C0BC5C7BFF1FEE
:100AF0004018FF1FDC5C01000C08FF1FF016FF1FF1
:100B0000E87AFF1F592C0000D91E0000C07FFF1F8C
:100B1000C51E0000050500004D0B0000DC18FF1F7E
:100B20007418FF1F027C02F0080202F0FF0332B1CA
:100B3000C36A406A181A48BF6FF0004070471846F1
:100B4000704700BF704700BF04207047704700BF68
:100B5000F8B53C4E8368376804464BB9022985696D
:100B600053D0032919D0012937D004263046F8BDC7
:100B70008269C36853F8220003689B689847A2699A
:100B8000E36853F822305B79A360002BEDD1022A91
:100B9000EBD13668B742E9D1E7E7C36853F82500DF
:100BA00003689B699847A369E26852F82310497962
:100BB000A16009B9022B40D004269D42D6D052F83C
:100BC0002500002103F0B4F9A269E368012153F87C
:100BD000220003F0ADF93046F8BD2B46013B0ED4A0
:100BE0009D42C2D0E26852F8231091F8AD0000286F
:100BF000F4D0497A0029F1D0A3610426DFE7236904
:100C0000E2689B1A9B10013BEAE7C2680769BF1ABA
:100C10001E46BF102B460133BB42AABF0023A3616F
:100C2000A6619D42A1D052F8231091F8AD00002892
:100C3000F1D0497A0029EED0DFE73668B74208BF25
:100C40000426BAE7D07FFF1F10B50446C068034BE7
:100C5000236008B10AF088FA204610BD084C010054
:100C600010B5042104460AF081FA204610BD00BFE9
:100C700010B50446C068054B236008B10AF074FA49
:100C8000204624210AF072FA204610BD084C0100CB
:100C90000B4B1B7910B5044653B90A4B1868FF215A
:100CA000083008F077FA02220123A261237710BDF1
:100CB000044B18680121083008F06CFAF3E700BF14
:100CC000D07FFF1FEC16FF1F103004F009BE00BFDD
:100CD00000B583B001220DF10701103004F0FCFCD7
:100CE00001280CBF9DF807004FF0FF3003B05DF8FE
:100CF00004FB00BF103004F00BBF00BF083004F04D
:100D000007BF00BF103004F009BF00BF083004F077
:100D100005BF00BF00B583B002AB012203F8011D7F
:100D20001030194604F0FAFE03B05DF804FB00BF72
:100D300000B583B002AB012203F8011D083019464B
:100D400004F0ECFE03B05DF804FB00BF036870B56F
:100D5000124E9B69054698473068083006F06AFFD6
:100D6000EA682B699B1A032BC8BF00240FDD52F8D9
:100D700024000368D0F8BC20DB68D0F8B81098478E
:100D8000EA682B6901349B1AB4EBA30FEFDB3068E0
:100D9000083006F05BFF00232B7770BDEC16FF1FB9
:100DA00070B590E83000AC42064606D020461034BC
:100DB0000AF090F8A542F9D1356815B128460AF035
:100DC000D3F9304670BD00BF30B585B0044601464A
:100DD00068460AF06DF8103C03E028460AF00AF96C
:100DE000103C214668460AF069F904F110052146D5
:100DF0000028F2D1694628460AF0FCF868460AF055
:100E000069F805B030BD00BF10B5134B134A19681F
:100E1000134B1060CCB000240193124A8DF80C40A3
:100E200003A801238DF80D408DF8084004F0F4FB71
:100E300078B14FF4007401E0013C07D00023FF2299
:100E40000CA903A804F010FD0028F5DC03A804F0A9
:100E5000ADFB4CB010BD00BF1C82FF1FF881FF1F0F
:100E6000244B0100244C0100F0B583B000244FF462
:100E70008070ADF8064008F013FD8DF8060040F2D2
:100E8000011008F00DFD8DF80700BDF8062045F2B1
:100E9000AA539A4202D0204603B0F0BD1B4C671CF7
:100EA000C7F58175013504F50576281908F0F8FCB9
:100EB00004F8010FB442164BF7D11A681449012AFD
:100EC00084BF01221A603B79114A012B84BF0023A1
:100ED0001371D7F808320E4A032B84BF0023C2F8DF
:100EE0000832D7F80C320A4A012B84BF0123C2F81A
:100EF0000C32D7F81022012A84BF0122C1F8102237
:100F0000044A0120136003B0F0BD00BFCF7FFF1F74
:100F1000D07FFF1F0882FF1FF0B54B4C8FB02046DB
:100F2000A4F23C4704F042FB3946204604F0CEFBD5
:100F300028B197F83C3413F0700F40F0818043499A
:100F4000434809F0A7FF434C4349414804F58273E5
:100F5000621D09F09FFF627900232F2A8DF804306B
:100F60008DF8053002D1A379002B3BD0364E3B4A99
:100F7000314601A8012304F04FFB002842D09DF820
:100F8000043013F0700F3DD001AC0FCC35460FC5C7
:100F90000FCC0FC597F83C3422682A6013F0700F0D
:100FA0002F4B41D031461E602A4D2E4B0193002419
:100FB0004FF47A7605F5827205A801238DF8144066
:100FC0008DF815408DF808408DF81040039604F018
:100FD00023FB58BB012385F80401C5F804022B60EC
:100FE0000FB0F0BD184D2846A5F23C4604F0DEFADD
:100FF0003146284604F06AFB20B196F83C3413F0E1
:10100000700F19D1154A1849114809F043FF174BC1
:101010001B88A4F805300020012384F80401C4F8DB
:10102000040223600FB0F0BD1968BDE705A804F005
:10103000BDFA01200FB0F0BD094B29461D60B3E792
:10104000074B1C607FE700BF987FFF1F304C0100FB
:10105000700CFF1FD07FFF1F644C0100D57FFF1F66
:101060001C82FF1F004B0100A04C0100D44C01006A
:1010700070B51C4D1C491D48ADF5067D05F5827304
:101080006A1D09F007FF29464FF4057201A808F010
:1010900021FBFFF7E9FE30B14FF4057201A92846A4
:1010A0000BF076FDD8B10F4801A94FF40572044644
:1010B00008F010FB4FF48070AA21451B08F00AFCD1
:1010C000552140F20110013504F5057608F002FCC7
:1010D00014F8011B601908F0FDFBB442F8D10DF5BE
:1010E000067D70BDD07FFF1FD84C0100700CFF1F24
:1010F000FFF7BEBF70B51D4D2B6804461BB11A68C3
:101100001846D36898471A4B1C60032C1FD8DFE899
:1011100004F017100902174828600368BDE8704002
:101120009B681847144828600368BDE870409B68B6
:101130001847124828600368BDE870409B6818474C
:101140000F4828600368BDE870409B681847042278
:10115000322100240B481A602C6009F093FC0A48E5
:1011600009F080FE28680028D7D170BDF481FF1FE8
:10117000D07FFF1FE87AFF1F7418FF1FF016FF1FB4
:10118000DC18FF1F084D0100700CFF1F004870475E
:10119000D07FFF1F2449254B0A68F0B542F000625A
:1011A000DFF8B8E0224E234C0A604FF0550C0027C0
:1011B000012507208721CEF800C01A463760256038
:1011C0001860196013681B06FCD41B491B4B1C4A92
:1011D0000F681C481B68146800681B4E1B4D1031BB
:1011E0000C323B4409681268234403440B44134403
:1011F000C3F34E0343F4004315493360154A2E6888
:1012000015480B68146800680C310C3233440968C7
:101210001268234403440B441344C3F34E0343F4C2
:10122000004345F8283CF0BD3C80044024B0034016
:101230000CB0034020B0034038B003403CB0034042
:1012400040B0034044B003402CB0034058B00340CA
:101250005CB0034060B0034064B0034008B003409A
:1012600030B585B00446FFF795FF0A4B0A4A596826
:1012700018681D8901AB03C304A90C441D8014F830
:101280000C3C136013681B06FCD5044B186880B235
:1012900005B030BD384B010000B0034010B0034032
:1012A0002DE9F0438046ABB00220FFF7D9FF0AF0EA
:1012B0001FFD3FA3D3E900230AF090FD384CDFF86F
:1012C000F8C0A268E368374D06460F46206861689B
:1012D000EE46AEE80F00206961691834AEE80300FD
:1012E0000FCC0DF1180EAEE80F000FCCCCE9006763
:1012F000AEE80F0094E80F008EE80F0000242C8069
:101300000DF1180959F8040B0AF014FD02460B46BA
:10131000304639460AF0E8FF58BB01340C2CF1D1B5
:10132000C8F820000120FFF79BFF0AF0E1FC1AA398
:10133000D3E900230AF052FDDFF880801A4B0646FD
:101340000F4612A8194960220024C3E9006712ADB4
:1013500008F0C0F9A8F80040F5E802233046394605
:101360000AF0C2FF60B901340C2CF5D12BB0BDE8F6
:10137000F0832AAB03EB440434F9A80C2880CFE7B0
:101380002AAB03EB440434F8A83CA8F800302BB097
:10139000BDE8F083AFF3008000000080F6A0763F48
:1013A000444B0100C47FFF1FE881FF1F904B0100E9
:1013B00000000040C093563FC87FFF1FF081FF1F11
:1013C00024300CF04BB900BF064A074B10B5026041
:1013D0001B6804460BB1204610BDFFF715FD2046E3
:1013E00010BD00BFF84B0100F881FF1F0EB4694B20
:1013F0002DE9F0411B788342ADF5217DC0F092804C
:10140000654B1B68002B00F08D80A8AC2346A79A83
:101410000494FF2120A810F06DF806F011F905469C
:1014200006F01EF9074606F02BF9044606F0D8F838
:10143000064606F0E5F8804606F0F2F8A4F5FA64F0
:101440000196564E564903903B462A46CDF80880F1
:10145000009405A80BF08EFEA6F23C47304604F03F
:10146000A5F83946304604F031F9DFF85C8128B13F
:1014700097F83C3413F0700F40F08880D8F80010D3
:10148000484B15930024484A8DF85C4017A8462322
:101490008DF85D408DF8584004F0BEF8002847D024
:1014A00020AB05AA414960A80BF064FE60A80CF0CF
:1014B00047F960A9024617A804F030FB15A809F007
:1014C000D1FC17A804F024FB17A804F06FF8384BE0
:1014D0001B78002B37D1374A517900232F298DF8FB
:1014E00030308DF8313002D19379002B3CD001237C
:1014F000314A2A490CA804F08FF898B19DF8303091
:1015000013F0700F0ED00CAC0FCC244D0FC50FCCC8
:101510000FC597F83C3422682A6013F0700F01D091
:10152000C8F800600DF5217DBDE8F04103B07047BB
:101530003A21224809F0A6FA214809F093FC1C4BF5
:101540001B78002BC7D020AB05AA184960A80BF068
:1015500011FE60A80CF0F4F8014660A809F092FAB8
:10156000174809F07FFCB6E7164C04F23C4004F043
:101570001DF8214604F23C4004F0A8F80028D1D020
:1015800094F83C3413F0700FCCD0C9E73146C8F85A
:10159000006075E71008FF1FF881FF1F987FFF1F8D
:1015A0003C4D0100244B01005C4D0100684D0100E1
:1015B0003C08FF1FD07FFF1FD57FFF1F744D010028
:1015C000700CFF1F5C7BFF1F1C82FF1F2DE9F8437F
:1015D000424E434CD6F80C3200F12407012B0CBFCD
:1015E000404941493A460020FFF700FF2068083093
:1015F00006F020FB20683D49083006F0EDFFD4F8E6
:1016000000803B4B002588F8A05088F8A150D6F800
:101610000C2253F8229048460CF092F8D8F800308B
:10162000024649465B684046984720683149083081
:1016300006F0D2FFD4F80080142388F8A05088F870
:10164000A13038460CF07CF8D8F800303946024614
:101650005B68404698472768274B87F8A0502222AE
:1016600087F8A120D6F80C2253F8228040460CF0CF
:1016700067F83B68414602465B68384698472768EA
:101680001E4B87F8A0502C2287F8A120D6F80C22F8
:1016900053F8228040460CF053F83B68414602461E
:1016A0005B68384698472768154B87F8A050352265
:1016B00087F8A120D6F80C2253F8225028460CF0C7
:1016C0003FF83B68024629465B68384698472068E1
:1016D000BDE8F843083006F0B9BA00BFD07FFF1F5D
:1016E000EC16FF1FB04D0100CC4D0100FC5C010069
:1016F0004008FF1F3C6B01002C08FF1F4808FF1F1C
:101700005008FF1F2DE9F8434468D0F80080C8EB6B
:101710000405AD100646894605D06B009D4229D9C7
:101720006FF0030500E00425284609F01BFD7468EE
:10173000D6F800800746C8EB0404D9F80030E74229
:1017400018BF3B51A3080DD104343C44B8F1000F3D
:1017500002D0404609F008FD3D44B5603760746032
:10176000BDE8F88322464146384604340BF042FA7D
:101770003C44EEE7B3F1804FD2D213B91D461F4669
:10178000D9E7ED00D0E700BF38B543688468A342CD
:1017900007D0024609680BB11960436804335360EF
:1017A00038BDFFF7AFFF38BD2DE9F047314B324E62
:1017B0001B88324F07600025642288B0044602620D
:1017C000C56005614561A6F80530C6F8045235715B
:1017D0000423416085618560CC20336009F0C2FC40
:1017E00008AF4FF001084C231922824604F1200172
:1017F0008DE80801082302F09FFF47F804AD04F1CB
:101800000C0939464846FFF7BFFFCC2009F0AAFC77
:101810002B466C22311D824602F0D0FF39464846E5
:10182000CDF81CA0FFF7B0FFD02009F09BFCDFF83B
:1018300058E001961249CDF80CE0032643462A46AB
:1018400000910595049502960E49824602F0DEFD50
:1018500039464846CDF81CA0FFF796FFE3681A68A2
:1018600098685572414602F063FB204608B0BDE817
:10187000F08700BFD44C0100D07FFF1F084C01004F
:101880003408FF1FEC4D01001408FF1F10B504467B
:10189000FFF78AFF014B2360204610BD304F010047
:1018A0002DE9F04790E850000746301B5FEA20180A
:1018B0008A463CD04FEA480398453BD96FF00F0861
:1018C000404609F04FFC97E850008146804400F103
:1018D0001005301B19EB000004D0514609F0E8FA5E
:1018E00097E85000B44217D04D46214628461034A0
:1018F0000DB109F043FBB44205F11005F5D197E8AD
:101900005000B44205F1100506D02046103409F00D
:10191000E1FAA642F9D13E6816B1304609F024FC3E
:10192000C7F800907D60C7F80880BDE8F0874FF0E9
:101930001008C5E7B3F1805FC0D21BB9984699463D
:101940001025C7E74FEA4818BAE700BF4368826826
:10195000934210B508D004461BB1184609F0A8FA06
:1019600063681033636010BDFFF79AFF10BD00BFBE
:10197000814238D02DE9F04300F110068E4285B047
:1019800029D08946804600F120074146304634463A
:1019900009F094FB10B3C8EB06053146684609F020
:1019A00087FA0F2DC8BF751B07DDA4F11001204673
:1019B0000C4609F01FFBA542F7D16946404609F0E5
:1019C00019FB684609F086FA3B464B4506F11006BE
:1019D00007F11007D9D105B0BDE8F0833046FFF715
:1019E000F3F93B46F1E770472DE9F04F02F1FF397B
:1019F00009EBD97987B04FEA6909494500928846D1
:101A00000746019361DA8A4600E0A2460AF1010620
:101A10004FEA460B0BF1FF3407EB041507EB4616B4
:101A20002946304609F04AFB002804BF35465C468B
:101A300007EB0A10294609F0DDFA4C45E5DB009B6F
:101A4000DA0707D4009BA3F1020B0BEBDB7BB4EBB3
:101A50006B0F30D002AE0199304609F029FA4445A7
:101A600009DC3146284609F0C5FA304609F032FA59
:101A700007B0BDE8F08F04F1FF3909EBD9794FEADF
:101A8000690907EB09153146284609F017FB294675
:101A900010B907EB0415E4E707EB041009F0AAFA04
:101AA00009F1FF3303EBD373C8454FEA6303D8DA78
:101AB0004C469946E5E76400013407EB04162846D6
:101AC000314609F097FA3546C4E7009BDB0703D49B
:101AD00000EB01150C46B5E702AE0199304607EB65
:101AE000081509F0E5F9BCE72DE9F04F0B1A8FB0A6
:101AF000B3F5887F0392C0F2DD800446002A00F02F
:101B00008D8000F11003049300F1200389460D46F7
:101B10000AAF05932D1B2B1103EBD3735D10039BB1
:101B2000049804EB05152946013B039309F0C6FA16
:101B3000A9F11006314600284ED0284609F0BEFA19
:101B4000002869D13146049809F0B8FA21460028E6
:101B50005DD0384609F0ACF93146204609F04AFA22
:101B60003946304609F046FA384609F0B3F9059E81
:101B7000CB46A6F1100528462146A84609F09EFA54
:101B8000D8B9ABF1100A5146204609F097FAD3466E
:101B9000AAF1100A0028F6D15D4510D22946384630
:101BA00009F086F95946284609F024FA394658467C
:101BB00009F020FA384609F08DF91036D9E7494680
:101BC000039A2846FFF790FF2B1BB3F5887F71DB44
:101BD000039A2AB3A9469DE7049809F06FFAA8B9B9
:101BE0003146284609F06AFA21460028B1D1384624
:101BF00009F05EF92946204609F0FCF939462846E5
:101C000009F0F8F9384609F065F9B0E72146384699
:101C100009F04EF9049DEDE72146E8E788460AAF52
:101C20001D11AE1E761004EB061902E0013E09F00C
:101C300051F9494606A809F03BF906A9384609F0CA
:101C400037F94FF000038DF800302A463B46314605
:101C50002046FFF7C9FE384609F03CF9A9F1100902
:101C600006A8002EE2D106A809F034F9A8F1100860
:101C7000414606A809F01CF92146404609F0BAF988
:101C800006A9384609F014F9C4EB08054FF0000323
:101C90002A1100218DF8003020463B46FFF7A4FEB4
:101CA000384609F017F906A809F014F91F2DA8F114
:101CB0001008DDDC0FB0BDE8F08F00BF2DE9F0416A
:101CC0000F466A4E6A496B48B8B03A4609F0E2F8E6
:101CD000D6F800807568A84518BF444605D0204650
:101CE000103409F0F7F8AC42F9D1C6F804803A781C
:101CF000614B05932F2A4FF000038DF81C308DF8AF
:101D00001D308DF818308DF890308DF891302CD032
:101D1000DFF8708124A8414601233A4603F07CFC99
:101D2000002835D09DF8903013F0700F30D024ACDF
:101D30000FCC45460FC50FCC0FC598F80030226870
:101D40002A6013F0700F28D04C4BC3F800807B78CA
:101D500033B324A84A4909F0FDF824A94348FFF702
:101D6000F5FD24A809F0B6F81AE07B78002BCFD156
:101D7000444C2046A4F23C4503F018FC294620467A
:101D800003F0A4FC20B195F83C3413F0700F6AD135
:101D90003A463D49374809F07DF87B78002BD8D189
:101DA0000021384803F0D0FD10E00BF029FF10A906
:101DB00048B101A809F0CEF82C4801A9FFF7C6FDEB
:101DC00001A809F087F807A803F0F0FB01222D49CC
:101DD00007A803F05DFE502210A9B0B107A803F0D8
:101DE000BBFF2A4910A80BF0CFFA0028EBD09DF8D2
:101DF0001C30274913F0700F10A8D6D00246254991
:101E000024A80BF0B7F924A9D3E737687568AF4267
:101E10001DD0EC1B2211B2FA82F2C2F11F02520055
:101E200029463846FFF760FEB4F5887F12DB07F5D8
:101E30008074384621464FF00002FFF799FDA54215
:101E400005D020461034FEF7BFFFA542F9D138B0C7
:101E5000BDE8F081294638464FF00002FFF788FDC3
:101E600038B0BDE8F081054B1C6096E7FC81FF1F90
:101E7000FC4D0100700CFF1F244B01001C82FF1F52
:101E8000444E0100987FFF1F184E0100484E01008C
:101E9000684E0100644E010010B507F0B5FC064B1A
:101EA000064A074900241C605C609C601846BDE837
:101EB00010400AF0DBBA00BFFC81FF1F0C08FF1FB7
:101EC000A10D000010B5034B03600446FEF7BCFEF5
:101ED000204610BDAC4F010010B5034B0360044613
:101EE000FEF7B2FE204610BD7C4F010010B5054B39
:101EF00003600446FEF7A8FE2046642109F036F987
:101F0000204610BDAC4F010010B5064B03600446DF
:101F1000FEF79AFE20464FF4A87109F027F92046F3
:101F200010BD00BF7C4F01002DE9F04397B004467F
:101F3000FFF7B6F9344BD3E9006731A3D3E90023A7
:101F4000304639460AF0BCF9002835D02F4D304BC9
:101F5000D5F80C122F4A53F8211004F1240630460C
:101F60000BF008F92C4AE368D2E900895B69404626
:101F7000C3F8C46049460022284B0AF0A1F90028A2
:101F800030D1274B2749B3F9002002A8CDE90089B9
:101F90000BF0F0F8D5F80C12234B04F1430502AA1C
:101FA00053F8211028460BF0E5F8E3689B69C3F865
:101FB000C45017B0BDE8F0831C4B144DB3F900209A
:101FC0001849CDE9006702A80BF0D4F8D5F80C1237
:101FD0000F4B04F1240602AA53F8211030460BF0EF
:101FE000C9F8BFE7D5F80C120F4B0A4A53F8211075
:101FF00004F1430528460BF0BDF8D6E7AFF30080A7
:102000000000004033330740C87FFF1FD07FFF1F11
:102010006808FF1FE04F0100E881FF1F0000244017
:10202000F081FF1FE44F01007808FF1FC47FFF1FEE
:1020300010B5044684B0114608F0A0FFA368142B25
:1020400011DD182B1BDC684614230022214609F001
:1020500055F86946204608F0CDFF684608F03AFF7B
:10206000204604B010BD104A143B9342F8D90F49E2
:10207000204608F0FFFFA368132BF8DDF0E7043BD0
:1020800000226846214609F039F86946204608F0E2
:10209000B1FF684608F01EFFA2686846143A214660
:1020A00009F050F8D5E700BFEBFFFF7F405101007A
:1020B0002DE9F04FDFF8E48098E80C009B1A1B092B
:1020C0008DB0074658D0324B0025B3F800900C2352
:1020D000AA4600F12C04019323E008F04FFF06AA62
:1020E000394602A8FFF7A4FF06A808F0F3FE002374
:1020F000152206A902A808F0E7FF06A920460BF062
:10210000B3F8FB68019A9B58012202A85A7208F0A2
:10211000E1FE019B01350433062D04F11604019301
:1021200033D0A4F800907B6AD8F80020D8F8046077
:10213000DFF86CE02B4402EB0311B21AB3EB221F61
:1021400006A804F1010CC8DBBEE80F00C4F80100CA
:102150009EF804B0DEF80000CCF80820CCF804109B
:10216000CCF80C30CCF810008CF814B0FB68019A55
:102170009B5883F809A0CCE7064A074BD2F80C22FB
:102180002C3053F822100BF069FA0DB0BDE8F08F37
:1021900040510100D07FFF1F7008FF1FFC81FF1F0F
:1021A000F44F01002DE9F041054688B00746FFF7DE
:1021B000FBFA414B45F80C3BCC2008F0D3FF00263E
:1021C00008AC082301228046019300963B4B3C4912
:1021D00002F060F944F8048D28462146FFF7D4FA4E
:1021E000D02008F0BFFF1123012201960096029330
:1021F0003449354B804602F0FFF921462846CDF898
:102200001C80FFF7C1FAC82008F0ACFF1A23012296
:10221000009601932D492E4B804602F015F9214678
:102220002846CDF81C80FFF7AFFAC82008F09AFFC7
:1022300023230122009601932649274B804602F072
:1022400003F921462846CDF81C80FFF79DFAC020EF
:1022500008F088FF2C230122009601931F49204B90
:10226000804602F0DFF921462846CDF81C80FFF7B2
:102270008BFAD02008F076FF4FF0350CDFF870E0D5
:10228000049633461749184ACDF814C00226CDF8F3
:102290000CE001910092029601221449804602F05E
:1022A000B5F828462146CDF81C80FFF76DFA384670
:1022B00008B0BDE8F08100BFAC4F01006008FF1F0F
:1022C000604F01004C4F01008808FF1F984F01002C
:1022D0006808FF1FA04F01007808FF1F0C52010083
:1022E000A008FF1FDC81FF1F8008FF1FC84F0100EF
:1022F0009008FF1F2DE9F04107468AB08046FFF79E
:1023000053FA134B47F80C3B08F12C050B24CC2057
:1023100008F028FF002315220794009506930593E3
:1023200004930393029301920A4B0B490122064640
:10233000083402F00BF809A938460996FFF724FA89
:102340003B2C05F11605E2D140460AB0BDE8F0810C
:102350007C4F01005808FF1F0C50010007F054BAD1
:1023600010B50446FEF794FCFEF710FFD0F80C32CF
:10237000012B0CBF054906490020FFF737F8054A35
:10238000022101231160237710BD00BF24500100FA
:1023900040500100D07FFF1F70B50446FEF7F6FEE7
:1023A000D0F80C320E4E012B0CBF0E490E49002006
:1023B000FFF71CF8012520463560FEF769FC711D0A
:1023C0002046FFF77BFC00236362A3622046FFF7F1
:1023D0006FFEE36829469868BDE8704001F0A8BD2B
:1023E000D07FFF1F5050010074500100FEF780BEE7
:1023F00010B50446FEF77CFEA269E368002153F89D
:102400002200BDE8104001F093BD00BFFEF79EBC66
:10241000FEF79CBC38B50446FEF79AFBA368054658
:1024200033B9A369062B0BD0082B1BD0052B12D078
:10243000E3681B695B790BB901232377284638BD14
:10244000E368986902F01EF80028F1D0236820465E
:102450009B699847ECE7E368586902F013F8002895
:10246000E6D0F3E7024A034BD2F80C221A60DFE70A
:10247000D07FFF1F0882FF1F70B5022994B0044669
:1024800006D0012945D031B90425284614B070BDC5
:102490008369082B4CD02046FEF75AFB04280546DA
:1024A000F3D1A369022BEFDDE26852F823205279C1
:1024B000002AE9D0626A514E13443068033B00EBB6
:1024C000031069460023502208F0FEFD4C494D4898
:1024D0006A4608F0DFFC9DF800102F2939D0656AA4
:1024E000A3693068484E2B44DD1E00EB051006F54D
:1024F00082710023FF22C6F8045208F0E5FDE3686C
:10250000A26953F8220003680025DB699847A5609B
:10251000BBE7A369032BBED1636A002BBBDDA26AB4
:10252000013B013A6362A262FFF7C2FD0425ACE7FA
:10253000324D426A6B682D685B1B1B11063B9A4249
:10254000A9DA836A0132013342628362FFF7B0FD88
:102550009AE79DF801302D4E2E2B35D032462C496E
:1025600028486B4608F096FC30460BF0E9F8012845
:1025700069460CBF304680190BF070F8234A254994
:10258000204808F087FC21492046FFF797FBA26905
:10259000E36853F8220003680026DB696662A662DE
:1025A00098472046A660FFF783FDA269E36831469D
:1025B00053F8220001F0BCFCE2680323D068A36159
:1025C000012101F0B5FC60E79DF802302E2BC5D14A
:1025D00030460BF0A7F940B1002303703378002B8D
:1025E000D1D10D4B1B883380CDE729210B4808F052
:1025F00049FA044808F036FC47E700BFFC81FF1F9A
:1026000094500100700CFF1FD07FFF1FD57FFF1F6C
:10261000D850010014510100D44C0100AC5001000D
:10262000F0B5ADF50D7D0CAC2B492C4E0746204680
:102630000AF0F4FD03460025204603F8045C0BF085
:102640007FF8274A27498DF80C5003461068E05060
:10265000234412791A7109688DF80D50224603A897
:1026600042238DF80850019602F0D6FF78B905464E
:10267000FEF78CFDD0F80C32012B224628460CBF09
:1026800019491A49FEF7B2FE0DF50D7DF0BD184B44
:10269000FA6BD3F80C02174C174900EB800300EBE0
:1026A000430010442C2303FB00434CA80AF062FDB6
:1026B0004CA80BF045F84CA9024603A803F02EFAEB
:1026C00001A808F0CFFB03A803F022FA03A802F048
:1026D0006DFF0DF50D7DF0BDD480FF1F244B010073
:1026E000485201001C82FF1F5852010098520100FD
:1026F000D07FFF1FA808FF1F5052010070B5ADF535
:102700000C7D0CAC0523C3631C49064620460AF029
:1027100085FD03460025204603F8045C0BF010F805
:10272000174A18498DF80C5003461068E0502344AE
:1027300012791A71144B019309688DF80D502246D5
:1027400003A801238DF8085002F066FF10B90DF5BB
:102750000C7D70BD2B464CA9FF2203A803F084F822
:10276000A84205DD06F13C024CA808490AF028FD04
:1027700003A802F01BFF0DF50C7D70BDD480FF1F78
:10278000485201001C82FF1F244B0100D05201005F
:10279000F0B5474A51798BB000232F2906468DF8B2
:1027A00004308DF8053039D0424F434A394601A8EC
:1027B000012302F031FF002843D09DF8043013F0CC
:1027C000700F3ED001AC0FCC3D460FC50FCC0FC5EE
:1027D0003B7822682A6013F0700F42D106F144055D
:1027E0002846364A002102F057F8044600283BD01C
:1027F00001243046FFF782FF2846F16B02F0D0FA41
:10280000736D2F49DA1781FB0313C2EBA313204624
:102810002022736386F838200BB0F0BD9379002B2B
:10282000C2D1244C2046A4F23C4502F0BFFE29460A
:10283000204602F04BFF20B195F83C3413F0700FA6
:1028400033D1FEF7A3FCD0F80C321B4A012B0CBF8E
:102850001C491D490020FEF7C9FD002420460BB08D
:10286000F0BD1A4B1F60B9E74FF4FA7007F010FA89
:102870002146124A284602F00FF804460028B7D134
:10288000FEF784FCD0F80C320C4A012B0CBF104927
:1028900010492046FEF7AAFD2D210F4808F0F2F856
:1028A0000E4808F0DFFA0024A3E7084B1C6095E708
:1028B000D07FFF1F987FFF1FD57FFF1FD480FF1F92
:1028C000D34D6210D45201000C5301001C82FF1F33
:1028D00040530100705301009C530100700CFF1F16
:1028E00030B583B00446FEF751FCD0F80C32012B12
:1028F00012D0E16B134A144B52F821200092134975
:10290000A3F1FF020020FEF771FD04F1440003B0C3
:10291000BDE8304002F00EB9E26B0A4D0A4B0C499B
:1029200002F10B00A3F1FF0255F8200000900020F7
:10293000FEF75CFD04F1440003B0BDE8304002F056
:10294000F9B800BFA808FF1FD480FF1FF85301008B
:10295000CC53010070B590F8453096B005460BBBDE
:1029600090F85030C3B916AC202324F8503DFEF740
:102970000DFCD0F80C320094012B0E4B0CBF0E490D
:102980000E49A3F1FF020020FEF730FD05F14400DF
:1029900001F0E8FF16B070BD094B0FCB02AC84E824
:1029A0000F00E4E7074B0FCB02AC264607C6337097
:1029B000DDE700BFD480FF1F4054010068540100D0
:1029C00030540100205401002DE9F04F05468DB030
:1029D000FEF7EAFE2846924BDFF8649240F8443B4B
:1029E000002401F00DFF0A2664224FF4C073EA624E
:1029F0006B632E636C62AC62D02089F80441C9F825
:102A0000084208F0AFFB0927039618220CAE8DE8A8
:102A1000840080460122234605F12401029401F03E
:102A200065FE46F8048D05F10C03184631461F4635
:102A3000FEF7AAFEE02008F095FB1C220B238DE890
:102A40000C0005F1300108236222804601F092FE5D
:102A5000314638460997CDF82C801327FEF794FEAF
:102A6000D82008F07FFBDFF8DCA1DFF8DC810597D8
:102A700001274FF0610E05F12C03039740F2E73771
:102A8000CDF810E022468DE81800414653460297E3
:102A9000834601F085FC099FCDF82CB031463846BD
:102AA000FEF772FED82008F05DFB132305931C236C
:102AB0000493012305F12802039340F2E7330293C4
:102AC00041465346009201942246834601F068FC39
:102AD00031463846CDF82CB0FEF756FECC2008F033
:102AE00041FB4FF0100B09F582732521224600931C
:102AF00007914C4B06940594049403940294CDF8EA
:102B000004B04949DFF84481824601F01FFC314698
:102B10003846CDF82CA0FEF737FED82008F022FB6F
:102B200040F2E73102911C2105F134020591422364
:102B3000012103918DE81400049322463B4B3C494C
:102B4000824601F02DFC31463846CDF82CA0FEF728
:102B50001BFED02008F006FBDFF8F4E0CDF80CE017
:102B600009F502721C2304210593019201232246D8
:102B700002910494CDF800802E49824601F046FC73
:102B800031463846CDF82CA0FEF7FEFDCC2008F0EB
:102B9000E9FA4FF02E0E09F105032246CDF81CE0AC
:102BA0008DE8080806941F4B05940494039402943E
:102BB0001F49824601F0CAFB31463846CDF82CA0A9
:102BC000FEF7E2FDD02008F0CDFA4FF0370E05F108
:102BD0003C03194901930B2223460292CDF814E0DD
:102BE000224603910494CDF800801449814601F0F7
:102BF0000DFC31463846CDF82C90FEF7C5FDEB684C
:102C000018695F699E69D9691A6A9B6A4472284685
:102C10007C7274724C7254725C720DB0BDE8F08FAD
:102C20002C5201002809FF1F945401002009FF1FA6
:102C3000AC540100B0540100A808FF1FBC540100AF
:102C4000D07FFF1F3009FF1F8C5401003809FF1F80
:102C50000009FF1F06F0D8BD074B10B5044640F829
:102C6000443B00F5C240343002F03CF92046FDF709
:102C7000EBFF204610BD00BF2C520100094B10B5E0
:102C8000044640F8443B00F5C240343002F02AF9D3
:102C90002046FDF7D9FF204646F20C2108F066FADF
:102CA000204610BD2C52010038B50446FEF76EFADE
:102CB000D0F80C32012B0CBF1A491B490020FEF73B
:102CC00095FB1A4B1A491B48A3F1FF0208F0E2F8E2
:102CD000194A0CCA9B1A1B091FD0A269E368174D39
:102CE00053F82200D5F8041246F208220023A1501E
:102CF00019462B6001F01CF9A269E368012153F821
:102D0000220001F015F92046FDF7C2FF2046FFF72B
:102D10003FFD08B985F8040138BD09492046FEF792
:102D2000CDFFDAE7C4540100DC540100D480FF1F5A
:102D3000F8540100700CFF1FFC81FF1FD07FFF1FA4
:102D4000D57FFF1F90F8443010B504460BB1FFF754
:102D500001FE2046BDE81040FEF7CAB92DE9F04754
:102D6000436A012BAAB004463CD0E36899691A690A
:102D7000D4F86431B4F86801D4F86051A362012337
:102D80002063E56220468B719371FDF7DFFF94F8B5
:102D900045301BBB94F85030E3B93F2384F83830FA
:102DA0008A4D8B492868083005F016FC286894F88D
:102DB00038301C227821083005F0A2FB28688549AC
:102DC000083005F009FC2868083004F03FFF2AB0FD
:102DD000BDE8F087442384F83830E1E7472384F8DE
:102DE0003830DDE790F84430002BBED190F8453004
:102DF000002B34D194F850301BBB2AAD202325F88A
:102E0000A03DFEF7C3F9D0F80C32DFF8E48100955D
:102E1000012B714B0CBF71497149A3F1FF020020D6
:102E2000FEF7E4FAD8F80832022B69D0032B1FD042
:102E3000012B18D0E368DA680020012160629171EB
:102E400094E7FEF7A3F9D0F80C32012B00F09C8038
:102E5000644B0FCB02AD2E4607C63370D1E7FEF7A9
:102E600095F9614BF5E72046FFF73AFDE3687DE70A
:102E70005E4E46F2082396E8050004F5C445E35883
:102E8000121A08350DF1580A00270133B3EB221F3F
:102E90002B6006D300230133B3EB221F2F602B607E
:102EA000F8D200EB031050220023514608F00CF931
:102EB0009DF858302F2B1ED09DF859302E2B1AD04C
:102EC000CBB12B6830684A4DC8F8043200EB0310D0
:102ED00005F582710023FF2208F0F6F82046FFF77F
:102EE00057FC0028BFD185F80401E3686062DA6806
:102EF000012191713AE796E805002B68121AC4E7A0
:102F00003A4E46F2082396E80500002704F5C4452A
:102F1000E358121AB94608350DF1580A0133B3EBDC
:102F2000221F2B6009D300230133B3EB221FC5F806
:102F300000904FF001072B60F5D200EB03105022F8
:102F40000023514608F0C0F89DF858302F2B16D0BA
:102F50009DF859302E2B12D08BB1DFB1E3682D686C
:102F6000DA6830681C4900230126636200EB051013
:102F70009671FF22C8F8045208F0A6F8F5E696E824
:102F800005002B68121AC9E71A4B0FCB02AD85E872
:102F90000F0036E72B683068154DC8F8043200EB97
:102FA000031005F582713B46FF2208F08DF820469C
:102FB000FFF7EEFB00287FF456AF85F80471E36855
:102FC0006762DA6801219171D0E600BFEC16FF1F3D
:102FD000C06601003C6B0100D480FF1F3C5501001E
:102FE000585501002C55010020540100FC81FF1FA1
:102FF000D07FFF1F3054010070B50D460646FDF727
:10300000A7FD032D044601D0204670BD0428FBD146
:10301000B369032B08D03046FFF702FBF16B06F1D2
:10302000440001F0BDFEEFE7736A012B09D0002BCD
:10303000EAD196F84430002BE6D03046FFF78AFC00
:10304000E2E796F84430002BDED1FEF711F81E4B74
:10305000D3F80832032B0ED8DFE803F01D29110244
:10306000FEF794F8D0F80C32012B0CBF1749184921
:103070000020FEF7BBF93046FFF732FCC4E7FEF74D
:1030800085F8D0F80C32012B0CBF124912490020F0
:10309000FEF7ACF9EFE7FEF779F8D0F80C32012B28
:1030A0000CBF0E490E490020FEF7A0F9E3E7FEF73A
:1030B0006DF8D0F80C32012B0CBF0A490A490020E8
:1030C000FEF794F9D7E700BFD07FFF1F3C56010001
:1030D0006C56010000560100245601007055010095
:1030E00094550100B0550100DC550100704700BF48
:1030F00000207047704700BF10B5036804461B6985
:10310000984701230022C4F8A8206371A37110BD61
:1031100010B502680023044643711269C0F8A83054
:1031200090470123A37110BD10B5D0F8C0200368EB
:103130001268C0F8C42004461B6998470123002286
:10314000C4F8A8206371A37110BD00BF10B5026858
:103150000023044643711269C0F8A8309047012348
:10316000A37110BDD0F8C430002B03DBD0F8C82009
:10317000934202DD0023C0F8C430D0F8C0201360B1
:10318000704700BF90F8C430D0F8C020012B84BF36
:10319000002380F8C4301370704700BF026801211B
:1031A00080F8C010D369184710B5036804461B693E
:1031B000984701230022C4F8A8206371A37110BDB1
:1031C000D0F8C0301A6852B990F8C42062B990F8AB
:1031D000C52032B102221A600368DB691847002259
:1031E0001A600368DB69184701221A600368DB690B
:1031F000184700BF704700BF704700BF704700BF4F
:10320000704700BF704700BF704700BF704700BFE6
:10321000704700BF704700BF704700BF704700BFD6
:1032200008B543796BB9C26B5AB1084B196800F104
:10323000100352F8211018460AF010FA03461846F7
:1032400008BD00F11003184608BD00BF0882FF1F2B
:1032500008B5437933B1104B1B88038200F110038A
:10326000184608BDD0F8C410034631B110331846D3
:103270000AF0F4F90346184608BDC26B002AEAD0EA
:1032800006490968103352F8211018460AF0E6F989
:103290000346184608BD00BF405101000882FF1FC9
:1032A00010B5C021044607F061FF204610BD00BFE5
:1032B00010B5CC21044607F059FF204610BD00BFD1
:1032C00010B5E021044607F051FF204610BD00BFB5
:1032D00010B5D821044607F049FF204610BD00BFB5
:1032E00010B5CC21044607F041FF204610BD00BFB9
:1032F00010B5D021044607F039FF204610BD00BFAD
:1033000010B5C021044607F031FF204610BD00BFB4
:1033100010B5D021044607F029FF204610BD00BF9C
:1033200010B5CC21044607F021FF204610BD00BF98
:1033300010B5C821044607F019FF204610BD00BF94
:1033400010B5D021044607F011FF204610BD00BF84
:1033500010B5CC21044607F009FF204610BD00BF80
:10336000C36B10B504465BB1D0F8A010D0F8A42010
:10337000D0F8C000521A1031013221440AF09EFAEE
:10338000D4F8A420D4F8A030D4F8C010D31A0B4439
:1033900000225A7010BD00BF437910B573B9C36BDA
:1033A00063B10849D0F8C020096800F1100453F84F
:1033B0002110204609F0DEFE204610BD00F1100469
:1033C000204610BD0882FF1F437910B58BB9D0F895
:1033D000C020C36B1268C0F8C4209BB10B490968B8
:1033E00000F1100453F82110204609F0C3FE2046D6
:1033F00010BD90F8AC302BB9C36B1BB10349D0F8AA
:10340000C420ECE700F11004204610BD0882FF1F25
:10341000437970B543B3D0F8C430002B1ADBD0F831
:10342000C8209A4216DBC26BD2B1124BD0F8C860EA
:10343000D0F8C4401B68D0F8CC5052F8231006FBDB
:10344000034300F1100455F82320204609F092FEB2
:10345000204670BDC26B0023C0F8C430002AE4D1FE
:1034600000F11004204670BDD0F8C0301B68C0F8D1
:10347000C430D2E70882FF1F38B5437923B9D0F8AA
:10348000C0301B7880F8C43090F8C420C36B012A88
:1034900012D9002280F8C4200BB3134AD0F8C850C8
:1034A000126800F1100453F8221055F8322020461B
:1034B00009F060FE204638BD8BB1002AEDD00A49E4
:1034C000D0F8C820096802EBC10200F1100453F8DB
:1034D00021105268204609F04DFE204638BD00F10B
:1034E0001004204638BD00BF0882FF1F90F8AC30A2
:1034F00010B504464BB9084AC36B116800F1C40209
:1035000053F82110103009F05BFED4F8C030D4F825
:10351000C4201A6010BD00BF0882FF1F70B5437938
:1035200088B00446BBB1D0F8C810D0F8C430D0F889
:10353000C020009102A80F4909F01CFE0E4AE36B5F
:103540001168103402AA53F82110204609F012FE27
:10355000204608B070BD04F073F8054604F080F80A
:10356000064604F08DF8A0F5FA60009033462A462E
:10357000E0E700BFA85801000882FF1F036810B5EC
:103580001B690446984701230022C4F8A8206371F0
:10359000A37104F055F8C4F8C00004F061F8C4F851
:1035A000C40004F06DF8A0F5FA60C4F8C80010BDBE
:1035B00070B5437988B0044673B9D0F8C0205AB3C7
:1035C0002749C36B0968103453F82110204609F0CD
:1035D000D1FD204608B070BDD0F8C00018B10AF087
:1035E000AFF8052832D9D4F8CC10D4F8C830D4F8C4
:1035F000C420009102AD28461A4909F0BBFD184AC3
:10360000E36B116810342A4653F82110204609F064
:10361000B1FD204608B070BD03F0E2FF054603F09F
:10362000EFFF064603F0FCFF334600902A4602A84F
:103630000C4909F09FFD0A4AE36B1168103402AA95
:1036400053F82110204609F095FDE2E702AD284627
:10365000D4F8C830D4F8C420034909F08BFDCEE774
:103660000882FF1FB8580100C85801002DE9F04337
:10367000D0F8C450172D83B0044603D8D0F8C870D2
:103680003B2F04D90023637103B0BDE8F083D0F869
:10369000CC80B8F13B0FF5D8D0F8C060E6B1304629
:1036A0000AF04EF805280AD83B462A463046154906
:1036B00009F060FD0023637103B0BDE8F0833B4671
:1036C000CDF800802A4630460F4909F053FD00230B
:1036D000637103B0BDE8F08303F0B2FF064603F068
:1036E000BFFF814603F0CCFF334642463946019086
:1036F000CDF80090284603F0D5FF03F021FF06F037
:1037000077FABFE7C8580100B8580100D0F8D830A0
:10371000DFED246A07EE903AF8EEE77A2DE9F04102
:1037200086EEA77A0446D0F8C000DFF87C8094F8D3
:10373000DC50D6B20027DBB232462DED028B90ED85
:10374000008AD8F80000B8EEC88A84B028EE078A4C
:103750000095F4EE487AF1EE10FACDB248BFB0EE23
:10376000678A08302946019704F0B8F9B5EEC08A97
:10377000F1EE10FA10DDFDEEC87AD8F8000094F8EA
:10378000DC30CDED037A00930830019732462946AC
:103790009DF80C3004F02EF904B0BDEC028BBDE8AE
:1037A000F08100BF0000C842EC16FF1F2DE9F04376
:1037B000DFF8FC80D0F8C430064683B0CFB2D8F82A
:1037C000000096F8C8400094D5B24FF00009B91C2B
:1037D000023B2A46DBB2C9B20830CDF8049004F0AF
:1037E0007DF9D6F8C830D8F80000043B2B44AC1C57
:1037F000E4B2DBB2009322463B463946083005F07E
:1038000005F8D6F8C830D8F80000191F29447B1CE9
:10381000DBB2C9B2224600910830194604F0F6FF27
:10382000D6F8C030D6F8C4101868204CD6F8C83086
:10383000CDF804900A1F00FB02F284FB0204D217A9
:10384000C2EB64140139E4B2D8F800003944023BF9
:103850000135EDB2DAB2091B23460092C9B22A46FD
:10386000083004F0C7F8D8F800004946083004F0E2
:103870009FFFD6F8C430D6F8C860D8F80000CDF85D
:103880000490043B023EF91C1B1BF6B22A46C9B247
:10389000DBB20096083004F0ADF8D8F80000012142
:1038A000083003B0BDE8F04304F082BF1F85EB5140
:1038B000EC16FF1FD0F8C0301A7810B5044662B974
:1038C0000A4A106801210830197005F063FC23686A
:1038D0002046DB69BDE810401847044A1068002202
:1038E00008301A70FF2105F055FCF0E7EC16FF1FB9
:1038F00030B5036804461B6983B09847D4F8C050BC
:10390000012300226371A371C4F8A820F5B1C4F8A3
:10391000CC20284609F014FF05280AD81249284669
:1039200004F1C80304F1C40203B0BDE8304009F05B
:1039300047BC04F1CC030093284604F1C80304F10A
:10394000C4020A4909F03CFC03B030BD03F048FE54
:10395000C4F8C40003F054FEC4F8C80003F060FECD
:10396000C4F8CC00F0E700BFE0580100D4580100D3
:1039700070B5057A0446B5B1D0F8C430D0F8C82087
:1039800001339342C0F8C430A4BF0023C0F8C43050
:1039900003685B69984723680122DB69A2712046AE
:1039A000BDE87040184703681B6998470123C4F8B5
:1039B000A8506371A37170BD032910B5044616D0D9
:1039C00063799BB194F8AC3083B1042926D00529E2
:1039D0000CD1D4F8A830D4F8B02001339342C4F805
:1039E000A83018DB0023C4F8A83014E010BD037918
:1039F000002BE5D043793BB3154B1B78DBB9D0F8EE
:103A0000A83003F11102013350F82220511C12D0CA
:103A1000C0F8A830C2600123A37110BDD4F8A8304B
:103A2000013B002BC4F8A830F5DAD4F8B030013BE4
:103A3000C4F8A830EFE7236820465B6998472368FD
:103A40002046DB699847E6E703689B699847E2E709
:103A50005C09FF1F437910B523B3D0F8A8301033A9
:103A6000012950F8233021D002291BD103441A7CAC
:103A7000202A30D0212A2BD02D2A32D0302A3FD0F4
:103A8000412A7CD05F2A40F0818090F8C91000293B
:103A900054D15A221A74036804461B6998470123BB
:103AA000A37110BDBDE81040FFF786BF03441A7C28
:103AB0007E2A37D07A2A44D05A2A55D05F2A19D084
:103AC000392A27D190F8C91049BB41221A74E2E77C
:103AD00090F8C8207ABB90F8C92042B17E221A74AF
:103AE000D9E790F8C91049BB90F8C8201ABB7A22D0
:103AF0001A74D0E790F8C91089B961221A74CAE71C
:103B000090F8C910D1B990F8CA20002AECD02D2223
:103B10001A74C0E72D2A45D190F8C91009B30132B3
:103B20001A74B8E790F8C8202AB990F8C92082B171
:103B300021221A74AFE720221A74ACE7013A1A74F2
:103B4000A9E790F8C9100029E9D190F8C820002A07
:103B5000F1D190F8CA20002AD9D190F8CB20002AC0
:103B6000B3D030221A7496E790F8C9100029D6D144
:103B700090F8CA20002AC0D05F221A748BE790F810
:103B8000C9100029DAD139221A7484E7612AD5D103
:103B900090F8C9100029D1D190F8CA20002A3FF42A
:103BA00078AFE9E7202ABAD190F8C9100029B6D138
:103BB00090F8CA20002AAAD1D3E700BF437910B5F4
:103BC0008BB1012913D002290DD1D0F8C430013BAB
:103BD000002BC0F8C43017DB036804461B69984704
:103BE0000123A37110BDBDE81040FFF7E5BED0F87A
:103BF000C430D0F8C82001339342C0F8C430EBDBA6
:103C00000023C0F8C430E7E7D0F8C830013BC0F863
:103C1000C430E1E7437913B14B1E012B01D9FFF703
:103C2000CBBE90F8C43010B54BB9012380F8C43036
:103C3000036804461B6998470123A37110BD002344
:103C400080F8C430F4E700BFFFF7B6BE43791BB37A
:103C500070B5D0F8A85005F110020129044650F8BB
:103C600022201FD0022919D190F8AC30002B56D158
:103C7000D0F8C430D0F8D010D0F8C8205B1A9342E6
:103C8000C0F8C43001DAC4F8C420236820461B6998
:103C900098470123A37170BDFFF78EBEBDE8704049
:103CA000FFF78ABE90F8AC305BB9D0F8C410D0F8FA
:103CB000D030D0F8CC200B449342C0F8C430E4DDBF
:103CC000E1E790F8D4300BB1002D36D02244137CBC
:103CD0000133DBB2392B2BD82F2B98BF3923137428
:103CE0001F4EE36B326804F1100553F8221028468A
:103CF00004F1C40209F064FAD4F8C430D4F8CC203A
:103D0000934222DCC1DA3168E36BD4F8C82053F85F
:103D10002110C4F8C420284609F02CFAB5E790F821
:103D2000D43043B92244137C013BDBB2392BD3D9C5
:103D300030231374D4E7002DF4D12244137C2B2BB1
:103D40000CBF2D232B231374CAE73168E36BC4F82F
:103D5000C420284653F8211009F00CFA95E700BF5B
:103D60000882FF1F4379CBB1D0F8A83010B54BB310
:103D7000012B18D000F1CC033B220129044619D0B5
:103D8000022926D11968013958BF0A461A602368EA
:103D900020461B6998470123A37110BDD0F8C0309D
:103DA000A3B1FFF709BE012900F1C8034FF03B02A0
:103DB0000446E5D1196801319142CABF0022196059
:103DC0001A60E4E700F1C4031722D6E701238371E8
:103DD000E7E7FFF7F1FDDAE72DE9F84305466C3038
:103DE000014605F13C034FF0FF3243F8042F98429F
:103DF00041F8042FF9D100240C2305F12607C5F85A
:103E0000A030C5F8A440C5F8B040384609F098FC89
:103E1000A146224605F125064FF0FF3805E0262B86
:103E20001BD04FF000094A460134A04230DD16F89D
:103E3000013F242BF3D1002A39D008F11C03384666
:103E400045F82340D5F8A430A342B8BF2346C5F8AF
:103E5000A43009F075FC0122E6E752B9D5F8B0307C
:103E600005EB88020133C5F8B03008F1010854644D
:103E70005467B9F1000F17D005EB880308F101086A
:103E80005C645C67D5F8B0300133C5F8B030D4E776
:103E90006B6C01330CBF0023012385F8AC302B6C15
:103EA000C5F8A030BDE8F8834FF00109C5E7D5F8A3
:103EB000B02005EB88030132C5F8B02008F10108F5
:103EC0005C645C67B9E700BFF8B50446079D164F10
:103ED000089884F8B4204FF0FF36002223720123A3
:103EE000C4F8B8502760E660C4F8BC002271627163
:103EF000E2712274A371637284F8AD30069D49B1FA
:103F000004F1260009F0AAFB2046E563FFF764FFF1
:103F10002046F8BD054BE5631B88E3842046FFF788
:103F20005BFF2046F8BD00BF38590100E85801008A
:103F3000037901718B421CBF01238371704700BF5D
:103F40002DE9F0419DF818000D4617461E4680B930
:103F5000174B1C68084684F8A02084F8A16009F07B
:103F6000EFFB23680246294620465B68BDE8F04126
:103F70001847DFF83C80D8F800000021083004F032
:103F800017FCD8F80040284684F8A07084F8A16097
:103F900009F0D6FB2368294602465B68204698470D
:103FA000D8F8000001210830BDE8F04104F000BC61
:103FB000EC16FF1F2DE9F04F43798BB004460E46F7
:103FC0009046002B00F0838000F11005D4F8A83053
:103FD000002BC0F28A8004EB8303D3F84090B9F140
:103FE000000FC0F282804A462946854FD3F870A060
:103FF00004A809F063FC0AABD7F800B04B445FFAA1
:1040000088F24FF0000103F8181C04A88BF8A06098
:104010008BF8A120039209F093FBDBF800300246F5
:104020005B6804A95846984704A809F089FB754BBA
:10403000C9EB0A0B1B680BF1010B09F110015A4681
:1040400003FB0069214404A809F038FC0AAB9B4437
:104050004FF0000601234A4604A900932046434638
:104060000BF8186CFFF76CFF04A809F069FB064613
:10407000284609F065FB0AF10103984205464CDD2C
:104080006FEA0A0B5F4B0AF1110100EB0B022144AE
:1040900004A8D3F800A009F011FC0AAB1D44AB44FE
:1040A0004FF000033D680BF8183C06FB0A969DF89C
:1040B0000C3085F8A13085F8A06004A809F040FB19
:1040C0002B68024604A95B682846984725E00368E8
:1040D0001B69984794F8B430002B40F0848004F1B9
:1040E00010056379002B7FF471AF237923B194F825
:1040F000B490B9F1000F2DD0414FD7F80090284669
:1041000089F8A06089F8A18009F01AFBD9F800307D
:10411000024629465B684846984794F8B4300BB18C
:10412000237913B90BB0BDE8F08F386836490830F1
:1041300004F052FA38685FFA88F2522300210830FE
:1041400004F0DEF938683149083004F045FA0BB064
:10415000BDE8F08F01230DF1100A0093324651465D
:10416000277C8DF81190434620468DF81070DFF8BB
:1041700094B0234FFFF7E4FE504609F0E1FADBF874
:10418000003004F1110103FB0066504609F046F8C7
:104190000AABCAEB000039680391184400F8199C77
:1041A00081F8A06081F8A180504609F0C9FA03990E
:1041B0000B6802465B68084651469847504609F02E
:1041C000BFFA8146284609F0BBFADBF8002001233C
:1041D00000F10F010093214402FB0962434620468F
:1041E000FFF7AEFE99E70A4F04F1100501E03B88A6
:1041F0002B52284609F0A4FA1428F8D971E700BF19
:10420000EC16FF1F4009FF1FC06601003C6B010058
:1042100040510100FFF7CEBE2DE9F04F85B00446B6
:10422000037900930F4613461646444D0A46444907
:10423000FFF786FED4F8C8302A68217900913B4404
:104240009A1A204633463F49FFF77AFED4F8C03029
:104250001B68012B53D0022B35D0D5F80080D4F841
:10426000C850DFF8E4A094F8CC30DAF800000093EE
:10427000A5EB480505EBD5756D10033D013608F13A
:104280000201F6B25FFA85F94FF0000B39444B4654
:10429000C9B232460830CDF804B003F0ABFB07EBEF
:1042A00008012944DAF8000094F8CC400094043165
:1042B000CDF804B0C9B24B463246083003F09AFB41
:1042C00005B0BDE8F08FD4F8CC30D4F8C8209A42BD
:1042D000A4BF02EBD27253101B4ABCBF03EBD373D3
:1042E0005B101068D9199A190F24D2B2C9B2DBB287
:1042F0000830009403F0B2FD05B0BDE8F08F2868E7
:10430000D4F8CC20D4F8C8300F4D3918023102EB64
:10431000D2740B4406EB6404A3EB400332442868D8
:10432000013409B224B212B2043B02921BB20191D1
:10433000009432B2083004F09DFCC1E74009FF1F31
:10434000EC580100CC520100EC16FF1F2DE9F0479C
:1043500084B0129D139C02948DE82800002304462B
:104360000C9E0D9D9DF838A09DF83C909DF84080D6
:104370009DF84470FFF7A8FD084BC4F8C0602046C4
:10438000C4F8C45084F8C8A084F8C99084F8CA80DE
:1043900084F8CB70236004B0BDE8F087E8570100D3
:1043A000F0B585B004460F9D0E9E02950A9D0093C0
:1043B000019600230B9F0C9EFFF786FD2868E36B98
:1043C0000F49C4F8C40000220D98C4F8C050C4F8C6
:1043D000C870C4F8CC60C4F8D000216084F8D42040
:1043E00053B1084A0849126853F8220009F008FC42
:1043F00010B1012384F8D430204605B0F0BD00BFD1
:10440000385801000882FF1FF0580100F0B585B050
:104410000A9F0E9E0F9C0B9D0097019602940C9F85
:104420000D9E0446FFF750FD2A68064BC4F8C050A5
:104430002046C4F8C420C4F8C870C4F8CC60236017
:1044400005B0F0BDC057010070B584B0C66B099BC4
:10445000089D02930096019501230446FFF734FD61
:10446000064A074B1288236020460023228284F8E4
:10447000C030C4F8C43004B070BD00BF405101006A
:10448000605801000346002290F8C00083F8C02065
:10449000704700BF30B585B0089D099C02948DE837
:1044A000280000230446FFF70FFD024B236020463F
:1044B00005B030BD10580100022908D021F00201DA
:1044C000042920D0092914BF1F201E2070479307FC
:1044D00017D10F49D31781FB020110B4C3EB611050
:1044E000642404FB102080B9C3EBE1134FF4C871BE
:1044F00001FB1322002A14BF1C201D205DF8044B71
:1045000070471C2070471E2070471D20F6E700BF33
:104510001F85EB5138B5437973B3D0F8A830044602
:104520000D46B3B1012B30D100F1C4020C20012D96
:104530001BD0022D24D1116801398B42CCBF034618
:104540000B461360236820461B6998470123A3711B
:1045500038BDD0F8C820D0F8C410FFF7ADFF012D4A
:1045600004F1C0024FF00103E3D115680135A84200
:10457000A8BF2B461360E5E7BDE83840FFF71CBA3B
:1045800029462046FFF718FADCE700F1C80212239B
:104590006320CCE7437973B3F0B5D0F8C060002E48
:1045A00083B0044623DDD0F8C450D0F8C870294643
:1045B0003A46FFF781FF864219DC013D0B2D16D8E4
:1045C000112F14DD03F00CF8064603F019F8074626
:1045D00003F026F8D4F8C820D4F8C450D4F8C0307A
:1045E0000192394602460095304603F05BF80023FD
:1045F000637103B0F0BD704730B585B0099D0A9C6A
:1046000002948DE8280000230446089DFFF75CFC17
:10461000034BC4F8C0502046236005B030BD00BF36
:104620009857010030B585B0089D099C02948DE82B
:10463000280000230446FFF747FC034B2360204675
:104640000123A37205B030BD1059010010B50E4C06
:10465000204602F0AFF823799FED0C0AE2690C497D
:104660005B0800FB03F307EE903AF8EEE77A642369
:1046700067EE807A013A03FB00F027EE800A90FB98
:10468000F2F0086010BD00BF5C7BFF1F0000803AA5
:104690001082FF1F30B5837A83B00446ABB9104B4C
:1046A000186807F047FB0F4BE26B1D680E4B52F882
:1046B00025501B680093103402460B4620462946BD
:1046C00008F058FD204603B030BDFFF7BFFF044A95
:1046D000002310EE100A82ED000AA372E1E700BF8A
:1046E0000C82FF1F0882FF1F1082FF1F2DE9F0417F
:1046F00084B00D460C9C0D9E0194002490461F46EC
:10470000029600942346224621460A9E0446FFF75D
:10471000DBFB084B0B9AC4F8C050204684F8C480D9
:1047200084F8C570C4F8C860C4F8CC20236004B015
:10473000BDE8F08170570100F0B585B01D460A9CB8
:104740000B9B019400240F461646029300942346C7
:10475000224621460446FFF7B7FB054BC4F8C0705C
:104760002046C4F8C460C4F8C850236005B0F0BD4A
:1047700088580100F0B587B01D460C9B009104934A
:1047800000210D9B05930126642417460294019194
:104790000A460396064B07490446FFF701FE064BFF
:1047A000C4F8D8702046C4F8DC50236007B0F0BDD0
:1047B0005409FF1FF85801006059010030B50D463B
:1047C0000B4985B08DE80E000123002209490446FB
:1047D000FFF77AFB2978084A084BC4F8C0502046F6
:1047E00084F8C410C4F8C820236005B030BD00BFF1
:1047F0006009FF1FFC5801004409FF1F8859010090
:10480000F8B5044600F5C240343000F087FB1E497D
:104810001E4F0B6846F2AC1004F5C34227504FF40C
:104820008056002504F59670968682F836501063FF
:1048300043B13C21164806F025F9164806F012FB54
:104840002046F8BD04F5045244F2301746F2B8167B
:1048500044F22C152C32E251A3514FF40052605116
:1048600023750C60637323702361C4F81431C4F89A
:104870001831C4F81C31C4F82031A4F82431C4F82C
:1048800028212046F8BD00BF1482FF1F00DC050070
:10489000A8590100700CFF1F00F1140370B5044605
:1048A00000F5C2450E461846114608F0D7FE3435CD
:1048B000014666732846002200F050FB002836D0DF
:1048C00046F28813254AE35823619342627B3EDD1A
:1048D00032B12349DA1781FB0313C2EBA30323612F
:1048E000284600F0E7FB400807EE900AF8EEE76A7A
:1048F000D4ED047AC4F81401B8EEE77A46F2BE1398
:10490000C6EE877A0021E1522846C4F81811C4F88F
:104910002011A4F82411617021736160A160FDEE83
:10492000E77AC4ED477A00F0B1FB012070BD46F292
:10493000BE13C4F81C01E052C4F81801C4F82001E9
:10494000A4F82401607020736060A06070BD002A2C
:10495000C6D103EB83035B002361C1E7FFED0200D7
:1049600067666666104938B50B68104D044623F03B
:10497000010200230A602B70A1686268237046F26E
:10498000B6108A42C4F81831C4F82031A4F8243192
:10499000235404F5C24088BFA2600021343000F0E7
:1049A00075FB207838BD00BF18710340031002402A
:1049B0002DE9F04704460D4600F5C24004F582415A
:1049C00082B0343134304FF4805200F013FBD4F80D
:1049D0002831984244D046F2BE130020E25A207398
:1049E00040F6FE139A4201D801232373D4F81831FC
:1049F000D4F81C2103F5805307EE903AF8EE676A6D
:104A0000D4ED047AC4F81831B8EEE77AC6EE877AA6
:104A1000DFED466AFCEEE77A07EE102A17EE903AD1
:104A2000934288BF1346C4ED487A07EE903AF8EEF9
:104A3000677AB8EE477A67EEA67A88BFC4F8202175
:104A4000C7EE876AFCEEE67ACDED017ABDF8043058
:104A5000642B88BF6423A4F8243102B0BDE8F0873A
:104A600004F5C34646F2B8123046B04604F5824318
:104A700004F5C24EA758DFF8B8C032330EF1320E3B
:104A800040363E3008F13C084FF001091EE098F82E
:104A90000010A1B33A4102F5006201888A42C8BF02
:104AA0000280B2F5805F21DB6268D4F81411013214
:104AB000ACFB01A1B2EB511F626024D984F80190D4
:104AC00040F6FF729E4525F8022B16D033F9022FCF
:104AD000B6F900A082EAE271A1EBE2715145C8BFCC
:104AE0003180002FD3D102F50062D6E7002A0DDB1A
:104AF00092B29E4525F8022BE8D1012076E7BA4014
:104B000002F50062C9E740F6FF72DBE76268D4F89D
:104B100014110132ACFB01A1B2EB511F626003D949
:104B200084F801900022CDE70022CBE70000C842C4
:104B30001F85EB512DE9F84346F2AC1644F22C13D5
:104B400002698251C158044600F5C345FFF730FFA2
:104B500048B92A216A4805F095FF6A4806F082F9AB
:104B60002078BDE8F88344F230132046E158FFF77F
:104B70001FFF0028EDD00023634F6360A3603968F6
:104B8000DFF8A8C1DFF8A8E1DFF8A891DFF8A88175
:104B900046F2BE1046F2C012235241F48051A35295
:104BA00001205A4A6370237320703960177858497E
:104BB00047F080071770177847F04007177017788D
:104BC00047F004071770177847F002071770802224
:104BD0008CF800208EF800300A784E4FDFF85CE148
:104BE00002F0FB020A700A7802F0FD020A700A78ED
:104BF00002F0FE020A70D9F8002042F00202C9F861
:104C000000203968444A41F002012C353960ACF586
:104C1000422C402188F80010ACF6C27C4FF4807121
:104C2000CEF80030CEF800106968CCF80010138080
:104C30001188A9F57B39A9F5777989B24FF0020C73
:104C400041F480711180A9F800C0298908F58258C3
:104C500008F10E080EF5835E01FA0CF10EF1080E54
:104C60004942C8F800102D49CEF800C0C9F80C1010
:104C7000118889B201431180A8F808302A8928498F
:104C8000CEF81030824092B20A802A89DFF8B0E074
:104C9000824092B2A8F81220A1F806C0CA88DFF8B4
:104CA000A4C008F5BF3892B208F2971842F0040287
:104CB000CA800821FC22CEF8001088F8003088F85D
:104CC00000209CF80010DFF88080DFF880E0154AB3
:104CD00041F003018CF800103968A659B2FBF6F2D6
:104CE00041F40001104E3960013AC8F80030CEF8A6
:104CF0000020336803433360A8722078BDE8F8834E
:104D0000E8590100700CFF1F2C80044021C00C40AA
:104D100020C00C403C8004406690004000C00C4025
:104D200076900040006CDC023871034022C00C40D9
:104D300023C00C40408004401E80004000800040A2
:104D400000E100E01B800040007003403071034030
:104D500044F22C1244F2301309498258C3580968AE
:104D600010B599422CBF114619460446FFF720FEA4
:104D700000B110BD2046BDE81040FFF7F3BD00BFF5
:104D80006090004008B5044B1868FFF7E1FF034B43
:104D900003221A7008BD00BF1482FF1F1F8000404D
:104DA00010B40A290FD8DFE801F0061A232C353D8C
:104DB000464F5861110046F2B81146F2BC13052463
:104DC00001224450C2545DF8044B704746F2B811BA
:104DD00046F2BC13052400224450C254F3E746F2C5
:104DE000B81146F2BC13042401224450C254EAE72D
:104DF00046F2B81146F2BC13032401224450C254B7
:104E0000E1E746F2B81146F2BC13022401224450F5
:104E1000C254D8E746F2B81146F2BC1201234350FF
:104E20008354D0E746F2B81146F2BC1300240122A5
:104E30004450C254C7E746F2B81146F2BC130124ED
:104E400000224450C254BEE746F2B81146F2BC13E9
:104E5000022400224450C254B5E746F2B81146F28B
:104E6000BC13032400224450C254ACE746F2B811EC
:104E700046F2BC13042400224450C254A3E700BFEE
:104E80002DE9F04190F8703082B004464BB900F142
:104E90001805284600F08AFB0023A36602B0BDE88F
:104EA000F081466B0DF10808A6F12C0348F8083D87
:104EB00000F1180502AF2846282100F045FD083E04
:104EC00041460422284600F029FE47F8046D284692
:104ED000042100F039FD39462846042200F01EFE68
:104EE000D7E700BF10B5037E034A026004460BB14A
:104EF000FFF7C6FF204610BDCC5C010010B5037E55
:104F0000054A026004460BB1FFF7BAFF204678213C
:104F100006F02CF9204610BDCC5C0100F0B40B4A21
:104F20000B4D0C4C0C4E02604FF47A77002201219D
:104F3000076186604560C466416702764276027307
:104F40000275826680F87020F0BC7047CC5C01006E
:104F500000803B483EC3AE36004B01002DE9F041D6
:104F6000037E04460E4617460BB1FFF789FF1D4B23
:104F700004F11805196828460123324600F04CFB5D
:104F8000C8B900251F2184F8717084F87050164844
:104F900005F078FD304608F0D3FB0146304605F0B9
:104FA00071FD1E21114805F06DFD114805F05AFFF5
:104FB0002846BDE8F08104F13C082C22002140463F
:104FC00007F07CFE414628462C2200F085FB002895
:104FD000D7DD002384F8717084F870300120BDE8BB
:104FE000F08100BF1C82FF1F1C5C01003C5C0100C3
:104FF000700CFF1F2DE9F843047E00AF7CB381469F
:10500000406F012838D026DD02FB00F35B00083337
:1050100023F007034000E846ADEB030D02FB00F26E
:105020000D4609F11800694600F056FB061E6C4655
:1050300020DD0020D9F87420A91E034634F813504F
:1050400021F8025F13449E4200F10100F6DCC546E0
:10505000BD46BDE8F8830020BD46BDE8F883302199
:10506000084805F00FFD084805F0FCFE2046BD4647
:10507000BDE8F8833046EAE7520009F1180000F075
:105080002BFBE5E7905C0100700CFF1F037E13B95A
:105090004FF0FF30704710B50C46416F490004FBDC
:1050A00001F1183000F050FC08B9204610BD4FF057
:1050B000FF3010BD406B2C38704700BF054A064BCF
:1050C00012681B6882B00192019ADA6001225A715B
:1050D00002B070479086FF1F1882FF1F084A094BD5
:1050E00012681B6882B001200192019A1A614FF484
:1050F000C8710022987119629A6202B0704700BFAD
:105100009086FF1F1882FF1F084A094B12681B6810
:1051100082B001200192019A5A614FF4C8710022B5
:10512000D8715962DA6202B0704700BF9086FF1FE3
:105130001882FF1F054A064B12681B6882B0019255
:10514000019ADA6101225A7202B070479086FF1FFD
:105150001882FF1F054A064B12681B6882B0019235
:10516000019A9A6101221A7202B070479086FF1F5D
:105170001882FF1F014B1860704700BF1882FF1F85
:1051800030B583B004469DF81C50324862702170DF
:10519000A370E570036801939DF81830019A23719C
:1051A00000230846E260A261E261226162616371EC
:1051B00023726372A371E371022104F03FFD6078F2
:1051C000022104F03BFDA078022104F037FD207994
:1051D000002835D1E078002838D120781E494028B1
:1051E00028BFFF20042204F081FC60781B4940287E
:1051F00028BFFF20042204F079FCA0781849402839
:1052000028BFFF20042204F071FC207930B140282F
:1052100028BFFF200422134904F068FCE07830B175
:10522000402828BFFF2004220F4904F05FFC4FF400
:10523000C872002322626262A362E36203B030BDDF
:10524000022104F0FBFCE0780028C6D0022104F023
:10525000F5FCC2E79086FF1FBD500000DD50000046
:1052600009510000555100003551000030B50C4A7D
:105270004379126883B00192019D1BB1C368EB1A98
:10528000322B02D8002003B030BD0446007804F071
:10529000C7FC0028F6D160710120E56003B030BD85
:1052A0009086FF1F30B51A4A8379126883B004468E
:1052B0000192019D1BB10369EB1A322B17D860785C
:1052C00004F0AEFC80B92369226AEB1A93420CD930
:1052D000A36A25610133082BA071A36213D00F2BA1
:1052E0000DD0012003B030BD002003B030BD4078A8
:1052F00004F096FC0028E2D12561A071F1E7422379
:1053000023620120F1E7852323620120EDE700BF3E
:105310009086FF1F30B51A4AC379126883B00446DD
:105320000192019D1BB14369EB1A322B17D8A0786B
:1053300004F076FC80B96369626AEB1A93420CD977
:10534000E36A65610133082BE071E36213D00F2B30
:105350000DD0012003B030BD002003B030BD8078F7
:1053600004F05EFC0028E2D16561E071F1E74223C0
:1053700063620120F1E7852363620120EDE700BF4E
:105380009086FF1F30B50C4A437A126883B00192B1
:10539000019D1BB1C369EB1A322B02D8002003B068
:1053A00030BD0446C07804F03BFC0028F6D16072A2
:1053B0000120E56103B030BD9086FF1F30B50C4A77
:1053C000037A126883B00192019D1BB18369EB1AC5
:1053D000322B02D8002003B030BD0446007904F01F
:1053E0001FFC0028F6D120720120A56103B030BD5A
:1053F0009086FF1F10B50446FFF738FF08B1032061
:1054000010BD2046FFF74EFF08B1012010BD204619
:10541000FFF780FF08B1022010BD2046FFF7B2FF62
:1054200008B1042010BD2046FFF7C8FF00280CBFBC
:105430000020052010BD00BF38B504460D462422CB
:10544000002107F03BFCA560EB79102B08D0202B46
:1054500004D1402301202370A07038BD002038BD46
:10546000202301202370A07038BD00BF2DE9F0413A
:10547000037803F020032BB903F0FF044269214BAA
:105480009A4204D94FF000084046BDE8F081837885
:105490000169054663F07F038068AB7005F1100277
:1054A00001F030F980460028ECD02969A86801F0A5
:1054B000B5F80646A86831462430052201F076F892
:1054C00007460028DED04FF40072214607F0F6FBB5
:1054D000AB681A79012A10D9012403E0AB681A7964
:1054E000A2420AD918680368A1199B683A469847EE
:1054F0000134E4B20028F1D1C4E76B6903EB422226
:105500006A61C1E7FFFD1F0010B5044680680A46C6
:105510002430A16901F04AF820B1A38803F00F03F9
:1055200000EB431010BD00BF38B590F90230002BDE
:10553000044618DBA56805F1240001F067F828B9D6
:10554000637843F001036370002038BD05F50C70EB
:1055500001F05CF80028F3D0286803685B6898477E
:105560000028EDD0F1E70121FFF7CEFF0546002826
:10557000E6D00378E52BE3D023780B4A1B0744BF22
:10558000E369C361236A126843831B0C83822AB1D7
:1055900000F11601183090472B8B6B82A37803F033
:1055A0007F03A370C6E700BF2082FF1F10B50378FA
:1055B00004461BB900232370012010BDFFF7B4FF80
:1055C0000023237010BD00BF0022F0B50646441E24
:1055D000082710464FF02E0E14F8013F202B0DD057
:1055E000082A11D0A3F14105192D04D8357B2F428B
:1055F0001CBF2033DBB20B540130C0B201320B2A86
:10560000EAD100230B54F0BD01F800E0431CD8B2EE
:1056100010272378E6E700BFF0B5064693B035784B
:10562000019200208DF824008DF825002DB91F4629
:105630000B7813F0700F0C4602D1002013B0F0BDB0
:1056400013782F2B104616D10130019003782F2BA1
:10565000FAD0002B34D0A16809A8FFF7EDFE00288E
:10566000EBD0019809AC06E03046FFF75DFF002360
:105670000198337009AC01AA03A900F0F3FB03AA57
:10568000214601230028D8D0019D2D7830467DB1D8
:1056900000F06AFD354609AC0028CED00FCD0FC40E
:1056A0000FCD0FC433782A682260002BDFD0DBE7F0
:1056B0003B4603AA2146304600F056FD13B0F0BD2C
:1056C000A1683046FFF7B8FEB8E700BF03780BB11A
:1056D00000207047FFF7B0BE2DE9F04F0F4601786C
:1056E00083B0054611B18378DC0708D46B784FF09E
:1056F000FF3043F002036B7003B0BDE8F08F0B077F
:10570000914600F18780880608D5AA686B691289DE
:10571000C3EB42139BB2994528BF9946B9F1000FDC
:1057200000F097806B698A064E464FF0000805F13D
:10573000100AC3F3080B3FD5AA68116A01EB532185
:10574000BBF1000F52D1B6F5007F4FD3D36A994217
:105750004CD0B6F5806F66D3287880064FEA562B7A
:1057600006D41079C8EB0000C0B2834528BF834639
:1057700099424FEA4B240BD35B44994208D202F181
:105780002400019100F042FF0028AFD0AA680199DF
:10579000106802685B46D2F80CB03A46D847002839
:1057A000A4D06B69361B234427446B6151D0297800
:1057B0008A06C3F3080BBFD4A86890F8058008EAEE
:1057C0005328BBF1000F2CD1B8F1000F29D1002BC9
:1057D00034D14C064CBF016A296A296100F01EFFD2
:1057E000AA6808EB0001BBF1000FACD002F1240065
:1057F000002200F0DBFE00283FF478AFCBF5007408
:10580000B44228BF344600EB0B012246384603F071
:1058100061FFC6E7EB696A699B1A994528BF9946FB
:105820007CE72969DAE7106803683A461B689847FD
:1058300000283FF45BAF4FF40074B2E75246296989
:1058400000F0F2FE0028FFF651AF08D0A8682969E1
:10585000C4E70026C6EB090003B0BDE8F08F2B7843
:1058600013F0700FF6D141E72DE9F047814682B081
:10587000884617461E464FF0FF3A00250124A742EE
:1058800009DCBAF1000F26DB0023284608F80530B2
:1058900002B0BDE8F08701220DF107014846FFF78D
:1058A0001BFF0FFA80FABAF1010FEAD19DF8073019
:1058B0000D2B30461946E2D008F8053024B22EB13F
:1058C00007F0F2FC28B925466C1CD8E70A2B2546C0
:1058D000FAD12546D8E74FF0FF3002B0BDE8F08797
:1058E00070B582B001220DF10701044646690569D1
:1058F000FFF7F2FE012805BF9DF8070066614FF033
:10590000FF30256102B070BD30B54369C3F3431564
:1059100083B0044605B189B901220DF10701204683
:10592000FFF7DAFE40B201280BD163691F336361D0
:10593000A068303000EB451003B030BD2033436128
:10594000F6E7002003B030BD2DE9F0410378076988
:10595000044693B142698A420E4636D021B921618C
:1059600066610120BDE8F08118070AD499060BD5BD
:10597000A3681B89B6EB431FF2D927610020BDE85D
:10598000F081E1698E42F8D8D4F808E09EF806501C
:10599000511E05F10900751EC140C540A94200D83D
:1059A000B2B95B064CBFDEF82030236A236104F1F4
:1059B00010084246002DD3D02169A06800F034FEC3
:1059C000002805F1FF35F4DCD7E70120BDE8F081C0
:1059D0006D1AECE72DE9F041884615460021242296
:1059E00004461E469DF8187007F068F9D8F80800BC
:1059F000D8F82030E36005F00F02520100F13001C9
:105A00001144A060A580CB7A1B0714D4831893F8A7
:105A10003B3003F017032370C97AE77011F0180FB9
:105A200004BF43F00803237016F0320F07D0237829
:105A300013F0110F03D000202070BDE8F08106F0B4
:105A40000F05A5700244C36AA361B2F84410B2F80E
:105A50004A30F70643EA014107D42162D36CE3617F
:105A6000B30607D40120BDE8F08151B965F07F0588
:105A7000A570F5E7E1692046FFF766FF0028F1D140
:105A8000D9E700F07BFE0028D5D0A578EEE700BF6F
:105A900003781BB90B7813F0700F01D10020704709
:105AA0002DE9F0474E6916F01F0782B021D19146CB
:105AB0000D468046BA4601E000276E69002128465F
:105AC000FFF722FFA8B103789BB12E2BF4D0E52B72
:105AD000F2D0C27A110710D50F2AEDD15A06ECD5B3
:105AE00003F01F0790F80DA0E7E700F00BF98245DF
:105AF00005D0002002B0BDE8F087002FF5D1009757
:105B00004B46C6F34F1229464046FFF763FFF1E7C5
:105B100003780BB1FFF708BD012070472DE9F84F5E
:105B200003781E0704466FD583789D076CD55B0705
:105B30000F46904600F1CD806369DA43904563D803
:105B4000B8F1000F00F0B68046464FF0000933E090
:105B5000002940F08380216A002900F08A802161B9
:105B600000F05CFD0146B6F5007F55D3B6F5806FB9
:105B700066D3A2681379D06A5B1BDBB2750AAB42AD
:105B800028BF2B4681424FEA432508D3184481425F
:105B900005D282F824904FF0FF30D062A2681068DE
:105BA0000268D2F810A03A46D04768B36369761B02
:105BB0002B442F4463617DD0A0682169457915EAA3
:105BC0005325C3F3080A34D1BAF1000FC0D000F056
:105BD00025FD0146CAF50075B54228BF35460122AC
:105BE000A068243000F0E2FC70B150442A463946E7
:105BF000AA4403F06FFDBAF5007FD7D1A068243026
:105C000000F004FD0028D1D1637843F001036370F4
:105C10004FF0FF30BDE8F88F6369E269B6F5007FA9
:105C2000354628BF4FF40075934234BF0122052248
:105C3000D6E700F0F3FC2918BAF1000F93D0C9E7BA
:105C4000A368DA6A914222D0186803683A469B68D2
:105C500098470028D8D04FF40075A7E704F1100B3F
:105C60005A4600F0E1FC0028CEDB17D02169A0687D
:105C700076E7A37863F07F03A37004F1100200F0CD
:105C800041FD0028C0D021692162A06868E783F83F
:105C900024904FF0FF32DA62A368D5E7A378216938
:105CA000A06863F07F035A46A37000F02BFD002824
:105CB000DCD1A9E7E2699A4212D2A278E36142F00C
:105CC0008003A3701A0701D523788BB94046BDE83D
:105CD000F88FE169FFF738FE00287FF42DAF93E7D6
:105CE000074B1B6853B1A37843F08003A370E9E727
:105CF0002046FFF719FC0028E8D185E7A378E1E703
:105D00002082FF1F10B4421E00F10A04002012F886
:105D1000011F430843EAC01051FA80F09442C0B218
:105D2000F5D15DF8044B704738B5CB6873B10546C3
:105D30000C462422002106F0C1FF102301202B7005
:105D4000A870A268E3682B62AA6038BD8968BDE8C4
:105D50003840FFF7BBBC00BF2DE9F0478AB003789D
:105D600000278DF804708DF80570884613B10C2A51
:105D7000154607D84FF0000A88F800A050460AB030
:105D8000BDE8F087C3780646002B59D001A83146FC
:105D9000FFF7CAFF0028EDD0F378002BEAD04FF0D0
:105DA0000109B188C9EB0101490101A8FFF7CCFD48
:105DB00082460028DED0002101A8FFF7A5FD0028BB
:105DC000D8D0C37A0F2BD5D1037803F01F039945A0
:105DD000D0D109F1FF3303EB430403EB840408EB58
:105DE00004020023042BD9B231D90A2934D9591C11
:105DF00000EB4101898869B1A54212D97E2903F1DE
:105E0000010394BFC9B23F210D2B04F1010402F834
:105E1000011BE7D1A54204D903785A0648BF08F808
:105E2000047008EB050303F8017C03785B06A5D436
:105E300009F10109F3785FFA89F94B45B1D299E785
:105E400000F074FB824650460AB0BDE8F08700EBD4
:105E50004301B1F80110CEE7591E00EB4101C9889A
:105E6000C9E700BF2DE9F04F0378202B03D110F8CC
:105E7000013F202BFBD088600378002B00F00781C6
:105E80002F2B2FD05C2B22D0A3F12204E4B21D2CA7
:105E900020D9DFF818E2461C00247C2BA3F1200552
:105EA000374614D05E2D12D816F8013BA3F1220517
:105EB000EDB20134002B00F0D3802F2B13D05C2BDC
:105EC0002EFA05F703D01D2DE7D8FF07E5D50020F2
:105ED000BDE8F08F754D25FA04F4E407D9D500200C
:105EE000BDE8F08F002407193E4625462F2302E027
:105EF00016F8013F0135202BFAD02F2BF8D005449E
:105F000015604CB13A4612F8013D2E2B02D0202BE1
:105F100040F0A980013CF6D14FF0FF3523464B609D
:105F200001F1170601F10C03202203F8012FB342FF
:105F3000FBD1461E002200E0013216F8013F2E2B55
:105F4000FAD0202BF8D0B2FA82FC6E1C4FEA5C1C0F
:105F50000CD0475D2E2F00EB050604D106E016F8A5
:105F6000017D2E2F02D015F1FF35F8D2A2424FF05D
:105F7000000980F291804E46CA4607274FF0080874
:105F800025E02E2B47D0222B0BD07C2B09D0A3F160
:105F90002A0EBEF1050F48D9A3F13A0EBEF1050F46
:105FA00058D8954239D0B74229D34FF0000C5F231F
:105FB00006F1010E01EB060B5FFA8EF6062E8BF84A
:105FC0000D3000D80E730132A24207DA835C202B19
:105FD000D7D10132A2424FF0000CF7DB4B7B202BD4
:105FE0003FF475AFBCF1000F47D01AEA090F18BF94
:105FF0004FF0020981F800900120BDE8F08F0A2FD0
:1060000037D0954235DB2A460A2708264FF010087C
:106010004FF0000CD7E79542DBD10A2F29D02A4652
:106020000A2708264FF01008CDE72D2BB9D1A3F190
:10603000210EBEF15D0FB4D89542EED0B742DED34B
:10604000A3F1610EBEF1190F28D8203BDBB248EA5C
:106050000909ADE7A3F15B0EBEF1020FA1D9E6E796
:10606000176007194EE7FF2C3FF731AF651E234637
:1060700055E74B7B202B3FF42AAF0B7B0B440120D1
:106080007E24312208705C739A73BDE8F08F106033
:106090001C464FF0FF3542E7CA469FE7A3F1410E89
:1060A000BEF1190F98BF48EA0A0A81E701010035DD
:1060B0002DE9F8430F7B0E46044601F10D054FF024
:1060C00002084FF07E097068B16808EB00039BB2CC
:1060D00040B1084411F8012B03EB431353408842AD
:1060E0009BB2F7D1032F28BF03273A1DD2B203F08A
:1060F0000F01B018013A0929D2B294BF30313731BB
:1061000097424FEA13134173F1D3F319002183F837
:106110000D902046FFF718FC01212046FFF7F4FB05
:106120000B2203460146A8B193F800E02846BEF1D1
:10613000000F15D0DB7A1B07EED406F029FD0028EE
:10614000EAD108F101081FFA88F8B8F1640FBAD152
:10615000BDE8F8836078B0FA80F04009BDE8F883C4
:106160000120BDE8F88300BF2DE9F04F0C7814F052
:10617000700F8BB001D004781CB100200BB0BDE8CB
:10618000F08F1478D2F804B0A40740D14FF0010981
:106190000E4692460990002130460F460893FFF7BD
:1061A000D3FB0AF10D03079703973C46B8460697C1
:1061B0000593756901213046C5F34F15FFF7A4FB20
:1061C000002800F0A1800378E52B39D0002B37D0D0
:1061D0004C4538BF00242E2B2FD0C27A0F2A3DD039
:1061E00002F0080202F0FF033ABBB8F1000F40F0E2
:1061F00066810B22059906F0CBFC0028D9D19AF8CC
:106200000030DB0740F16F8101230693D1E7BF4DDA
:106210000BF10C04A5FB04494FEA990909F10109A6
:106220005FFA89F9B4E7039A013AD2B29342039232
:1062300003D1437B079A9A421BD04FF00008B8E77E
:10624000002C08BF2F464C453CBF0134E4B2002B64
:106250005ED0E52BBFD14FF00008AAE7B8F1000FE0
:10626000E1D15A06A5D503F01F08437BCDF80C8079
:106270000793039B013B03EB430503EB8505AB450C
:10628000DBD9C5EB0B0C0023049018E0DAF808000A
:10629000D2B2A2F1410E415CBEF1190F98BF20327B
:1062A000A1F1410E98BFD2B2BEF1190F9CBF2031AF
:1062B000C9B29142C1D101330D2B3FF47AAFDAB2AA
:1062C000042A05EB03010DD90A2A17D904985A1C90
:1062D00000EB420292889C450BD0FF2AD6D94FF0A2
:1062E000000866E7049A02EB43029C45B2F80120DD
:1062F000F3D1002A18BF4FF000085AE704985A1E3D
:1063000000EB4202D288E6E77378002B7FF435AFCA
:10631000089B03F04203422B7FF42FAF002C18BFE1
:106320003D464C4503D31AE0DCB2A14517D9002104
:106330003046FFF7E9FA631C0028F5D1737823B1E2
:106340001BE7B3681B79012B09D8A14507D9304653
:10635000FFF78CF81034E4B20028F2D10DE7069B69
:1063600033B151463046FFF7A3FE00283FF405AF96
:1063700069013046FFF7E8FA00283FF4FEAE09F164
:10638000FF3818F0FF0866D048F04003DBB20393F3
:106390004446002500213046FFF7B6FA00283FF4B6
:1063A000ECAEB268039992F82430A04543F00103A3
:1063B00008BF8E464FF00F0718BFA64682F824305C
:1063C0000AF10C01C772057380F800E00AF11707A3
:1063D000002311F801CF5A0842EAC3135CFA83F391
:1063E0008F42DBB2F5D10EF01F0E0EF1FF3E43736C
:1063F000DAF8083085760EEB4E020EEB820203EBE4
:106400000209C57600230FE0042B19F8031000EBF6
:10641000430EDFB214D90A2F72D8AEF8041001333C
:106420000D2B02F1010212D09345EDD814BF4FF0AD
:10643000FF310021042B89B200EB430EDFB2EAD812
:1064400001330D2BAEF8011002F10102ECD1013C39
:1064500014F0FF049ED1002130467569FFF754FA0D
:10646000C5F34F15044600283FF487AE20220021D3
:1064700006F024FC5346264953F80D2F58686060F7
:1064800022601A899B7AA37222819AF800200B68F5
:1064900002F018022273002B3CD004F10E0104F12B
:1064A00010009847238AE189B26863822383E182DE
:1064B00092F8243043F0010382F8243017E0039A65
:1064C000012A7FF45AAE441E0A3014F8011F5A08FC
:1064D00042EAC31351FA83F3A042DBB2F5D1079A23
:1064E0009A427FF44AAE089B1F063FF546AECDF8B0
:1064F0000080089B09982A463146FFF76BFA3DE673
:10650000013300EB4307B9808AE700BF4FECC44E6C
:106510002082FF1F21212822A37308232174E37303
:1065200062744FF4006142F62103BDE703789BB12A
:1065300013F0600305D02F2200230A704B70012056
:10654000704710B50C461946FEF7DEFF30B1214604
:10655000FFF73AF8012010BD00207047002010BD61
:10656000F8B54368816800F10C06044618680368B2
:1065700032469B68984740B123789A07054607D46E
:1065800023F0010323702846F8BD00252846F8BDF6
:106590006368A16818681F690368324639449B68BC
:1065A00098470028F1D02378EAE700BFF8B5836860
:1065B0008B42064614460FD00378DA070F4612D4F2
:1065C000630716D506F10C05002304F003041C43F1
:1065D00034702846B760F8BD10F90C3B04F0030492
:1065E0001C433470F8BDFFF7BBFF0028E8D1002042
:1065F000F8BD73681868036806F10C051B682A4625
:10660000394698470028DFD1F1E700BF0378DB0760
:1066100001D401207047FFF7A3BF00BF8379406911
:106620000239994008447047012933D9C369994216
:1066300030D870B5C379202B164605460C4618D0C5
:10664000102B13D18369C1F307211944022200F5ED
:106650000C70FFF7ABFF48B1E1B230F81130EA69D6
:1066600093429ABF01203360002070BD4FF0FF308D
:1066700070BD8169022201EBD41100F50C70FFF7A7
:1066800095FF0028F2D004F07F0150F8213023F06C
:106690007043E4E74FF0FF30704700BF01291DD978
:1066A00038B5C369994206D8C379202B15460C46E4
:1066B00016D0102B01D0002038BD8369C1F307210B
:1066C000194400F50C700322FFF770FF0346002801
:1066D000F1D0E1B2012023F8115038BD00207047FD
:1066E0008169032200F50C7001EBD411FFF75EFF06
:1066F00003460028DFD004F07F01012043F8215039
:1067000038BD00BF2DE9F041054682B090460F46E6
:10671000C1B9C668344604E001D0019BA3B1B442BC
:106720000BD0EB6901349C4288BF0224214601AAA8
:106730002846FFF779FF0028EEDA0026304602B03F
:10674000BDE8F0810E46E5E76FF07042214628462D
:10675000FFF7A4FF06460028EFD037B9EC603046BB
:10676000C8F8004002B0BDE8F0813946284622460C
:10677000FFF794FF0028F2D1DFE700BF70B50546B0
:1067800082B00C4608E0FFF789FF80B1EB689C42BD
:1067900038BFEC60019C5EB101AA21462846FFF794
:1067A00043FF061E21464FF000022846EBDA002088
:1067B00002B070BD2DE9F041C379C269102B02F11E
:1067C000010805D0202B03D04FF0FF30BDE8F08149
:1067D0008569B8F1000F3ED0064600F50C7700241D
:1067E0002946022238460135FFF7E0FE0028EBD0AB
:1067F000F379102B16D0B8F17F0F28D81FFA88F143
:10680000C646013989B200EB8101031F53F8042FFA
:1068100002B901348B42F9D1B8EB0E08E0D1204621
:10682000BDE8F081B8F1FF0F18D94FF4807E7346B0
:10683000591E89B200EB4101831E33F8022F02B9C1
:1068400001349942F9D1B8EB0E08C9D1E7E74FF00E
:10685000800E7146D5E74046BDE8F0811FFA88F307
:10686000C646E5E7F8B5044600224FF0FF330120A5
:10687000A462C4F83442E060E27184F8242084F811
:106880003022E362C4F838320D46C1B1042901D97F
:106890000020F8BD04F1240630461146FFF786FEBD
:1068A0000028F5D000EB051393F8AE315B06EFD16D
:1068B0001B3500EB0515D5F8065015B9E8E704F1CE
:1068C0002406304600222946FFF770FE0028DFD05C
:1068D000B0F80B30B3F5007FDAD1037C022BD7D1AF
:1068E000C389002BD4D0467B2671731E0021012E54
:1068F0006371A1710ED001210A4600E019465200D1
:10690000D2B24B1C9642DBB203D0092BF6D1A17157
:10691000BEE7A171C38A4BB31F462761C6892E44C7
:10692000A661B0F8113023815A0102F2FF1206EB82
:10693000470303EB622262612362B0F8133003B9AC
:10694000036AAD1A1D4425FA01F140F6F4734A1C9E
:106950009942E2610CD94FF6F473994285BFC36A3C
:10696000236210232023E3710120F8BD476AD4E796
:106970000C23E3718CE700BF034B04481B681840ED
:10698000B0FA80F04009704730100B4001000F0052
:10699000024B186800F00100704700BF24100B4044
:1069A000014B1878704700BF6482FF1F4FF47A7262
:1069B0002C4B02FB00F09842F0B44BD82A4D082231
:1069C000012149000B01B5FBF3F39842264C3DD25F
:1069D000013AF6D1B4FBF1F44B081F02A0423DD2BC
:1069E000214E4B00012200E02346B6FBF3F4A04207
:1069F00002F1010503EB010426D2102D2A46F3D142
:106A0000F0221A4E1A4C18481A494FF47A7505FBB1
:106A100003F3B0FBF3F33360236823F00803236030
:106A2000206820F47F2323F47F6343F460233B43F7
:106A30001A4322600B681B07FCD50D4A136843F00C
:106A400008031360F0BC70471201DAE7B4FBF1F4FD
:106A5000CF01C3E7044C00270121BFE70B4600220A
:106A6000CFE700BF3F548900004495086882FF1FAC
:106A70002C100B4024100B4001207047F8B5054640
:106A800003F0E2F8064F064604E003F0DDF8801B51
:106A9000B84203D8A84704460028F6D12046F8BDDE
:106AA00020A107002DE9F041DFF840800E4FC8F823
:106AB0000000054603F0C8F8064606E003F0C4F8F7
:106AC000801BB8420AD804F069FBA8470446002896
:106AD000F4D1C8F800002046BDE8F0810023C8F8D2
:106AE00000302046BDE8F08120A107002C82FF1F66
:106AF00038B504460F480D46FFF7C0FF08B1002027
:106B000038BD0D4A0D4B15600D481C60FFF7B6FFF0
:106B10000028F4D10B4A0C4B1168196019681160F8
:106B20001A68D207EBD51B6813F4702FE7D1012048
:106B300038BD00BF9169000008100B400C100B40DD
:106B40007969000030100B404C82FF1F30B5154BA7
:106B500085B00D461968FFF7CBFF00B3124A134BFF
:106B6000126800921968019159680291083305F181
:106B70000F041B680393002301E051F8102C03F06D
:106B80000301C9000133CA400DF1100E23F00301C7
:106B90000F2B714404F8012DEFD10023EB7305B0E6
:106BA00030BD00BF3882FF1F10100B4014100B4087
:106BB00008B5074B07481968FFF79AFF30B1064B35
:106BC000186880F48070C0F3002008BD012008BD63
:106BD0003882FF1F00001A0D10100B40054B18687B
:106BE00010F0020005D01B6803481840B0FA80F08E
:106BF000400970474C82FF1F00007F11F8B59407D1
:106C000000D143B91E491F4B602040F24F1208705B
:106C10001A600020F8BD07461B481D460E46144664
:106C2000FFF740FF08BB194B19491A4A4FF0010EF4
:106C300083F800E0184B08601B781460EBB9710210
:106C40002B041648164E174C174A184D316043F462
:106C500000730360256016481760FFF723FF0028C4
:106C6000D7D1BDE8F840FFF7B9BF0549054B29204A
:106C70004FF4A97208701A60CBE73146E0E700BF15
:106C80006809FF1F2882FF1FB16B00006482FF1F8D
:106C90004C82FF1F00100B403082FF1F04100B407E
:106CA00008100B4038100B400C100B4002007F11F5
:106CB000A169000030B59307ADF5017D11D01546EF
:106CC00001236A461048FFF799FF044680B16946E0
:106CD00028464FF4007202F0FDFC20460DF5017DC0
:106CE00030BD01230848FFF789FF04460028F4D18E
:106CF0000649074B3120002440F2562208702046F6
:106D00001A600DF5017D30BD11003A116809FF1FB1
:106D10002882FF1F10B59307ADF5007D0C4606D005
:106D2000114668464FF4007202F0D4FC6A462146D0
:106D300001230748FFF762FF30B90649064B3224AA
:106D400040F2CE220C701A600DF5007D10BD00BF20
:106D500001003A186809FF1F2882FF1F2DE9F04142
:106D6000940715D00646BBB115460C4601EB030847
:106D700001E0A04510D031682A460F683046214610
:106D8000B847013405F500750028F2D1BDE8F0815F
:106D90000748FFF733FF10B10120BDE8F081054936
:106DA000054B31244FF41A720C701A60BDE8F08163
:106DB00037003A126809FF1F2882FF1F2DE9F041B2
:106DC000940715D00646BBB115460C4601EB0308E7
:106DD00001E0A04510D031682A468F683046214630
:106DE000B847013405F500750028F2D1BDE8F081FF
:106DF0000748FFF703FF10B10120BDE8F081054906
:106E0000054B332440F2DE220C701A60BDE8F0819D
:106E100027003A196809FF1F2882FF1FF8B50446AA
:106E200019480D46FFF72AFE38B11849184B29209A
:106E3000EC2208701A600020F8BD164F164B174A56
:106E4000DFF878E0164E17494FF0010C87F800C0C4
:106E50001860154B1560154F154D164ACEF80040B9
:106E6000154837600D601A60FFF71CFE18B9FFF770
:106E7000B5FE00B1F8BD0549054B2320F622087088
:106E80001A600020F8BD00BFB16B00006809FF1F49
:106E90002882FF1F6482FF1F4C82FF1F00100B40DF
:106EA00004100B4038100B400C100B404000010048
:106EB00002007F1111003A06A169000008100B4082
:106EC00010B4074C074A0849084800232360146897
:106ED0000C60096811605DF8044B0370704700BFD7
:106EE00038100B4030100B404C82FF1F6482FF1F94
:106EF0002DE9F04FAE4DAF48DFF83483AE4FAF4EC3
:106F0000AF49DFF830E3AF4C00232B70026888F8FC
:106F1000003042F040623B70337002600A6842F415
:106F200000320A6000F57E3001F59F4104305C318B
:106F3000CEF80030036023600B6001F5C821A24A3F
:106F4000C36020314FF08070136091B00A46086032
:106F500013689E4CD901FBD44FF4C870FFF726FD8F
:106F6000DFF8D4E2DFF8CCC29648994A994940F25A
:106F70004343CCF80030CEF800304FF4886EC0F8B0
:106F800000E0136002F5C82228320B60C36092490A
:106F9000924B9348106060204FF4003208701A60E2
:106FA000236843F000632360216811F00061FBD186
:106FB0000846FFF79DFD044600284ED00A244FF4F2
:106FC000D5718848FFF794FD00285DD1013CF6D1CA
:106FD0003378854E002B08BF4FF4401602F034FE84
:106FE000824C814600218248FFF782FD50B9814AD8
:106FF00040F2E311432311602B700024204611B0AE
:10700000BDE8F08F31467C48FFF772FD0028EED0D6
:1070100002F01AFE794B754AC9EB00009842E6D897
:107020002368002BDEDA764B116819601368754807
:107030005A0048BF01234FF0000148BF3B70FFF7E3
:1070400057FD044698B96B4A40F2ED1121232046C2
:1070500011602B7011B0BDE8F08F664A4FF4E971F2
:107060002023204611602B7011B0BDE8F08F002165
:107070006548FFF73DFD0446D0B95E4A4FF4F8710C
:10708000222311602B70B9E7584B1B68B3F5D57FED
:107090000AD0584A00244FF4EC7125232046116091
:1070A0002B7011B0BDE8F08F012333704E4E95E781
:1070B0004E4B564E1B68564956481B0C1B043360FA
:1070C000FFF744FD044630B94A4A40F2F511262341
:1070D00011602B7092E750495048FFF737FD044686
:1070E00030B9444A4FF4FC71272311602B7085E7B7
:1070F00031684B48FFF7FCFC044630B93D4A40F28A
:10710000FB11242311602B7078E731683848FFF7B2
:10711000EFFC38B9374A40F2FF11402311602B7061
:1071200000246BE702213F48FFF7E2FC04460028F9
:10713000F0D03D4B3D481A6822F006021A601A68EA
:107140004FF0101542F002021A60694605606FF0B8
:107150007F40FFF763FE18B19DF80D309B076DD49B
:1071600046F2A810DFF8CCB0DFF8CCA0DFF85490DE
:10717000174F184E144D0023CBF80030CAF80030DA
:10718000C9F800303B6033602B60FFF70FFC40F222
:1071900043434FF488610122CBF80030CAF8003035
:1071A000C9F800103B6033602B6088F8002025E7A9
:1071B0006809FF1F00D800403082FF1F2482FF1F94
:1071C0003080044008D0044014D004402C100B4000
:1071D0000CD0044010D0044051E400E008E100E08D
:1071E0000B007F1100001A080000304010100B4007
:1071F00000001A372882FF1F0000022920A1070083
:107200003482FF1F0000090200001A033882FF1FAA
:107210005482FF1F000009093C82FF1F0000090A79
:1072200000001B0700001A0628100B4044100B40FA
:107230005082FF1F00D0044004D004406946074834
:10724000FFF7ECFD00288BD09DF8103003F00F0302
:10725000012B85D14CF2503084E700BFF1FFFF8055
:1072600010B4047F4160022CC26003D05DF8044B6F
:1072700003F00CBD83685DF8044B1847644A654B06
:107280002DE9F04F644EDFF8A0A1644CDFF8909137
:10729000A2FB00524FEA124C0CF10407A3FB00259D
:1072A000A6FB0062A7FB0AAB6D09D20AA3FB05632C
:1072B000A4FB0264CBEB07060BEB56065B09B60892
:1072C0002409C6EBC606C3EB031304EB4404A5EB89
:1072D0008303BE1BC5EB0515A2EBC402A0EB850022
:1072E000013600248A7008704B70CE70224640F23E
:1072F0006D1B4FF064084FF4C87A0EE0C6EBE5153D
:107300000AFB153570BB002D14BF58464FF4B770FB
:107310000244944504F1010413D3E7B207F2B273B7
:1073200089FB0305DE17C6EB651013F0030E08FB9F
:107330001030E3D040F26D100244944504F1010492
:10734000EBD28F71BEF1000F0FD13548DE1780FBF5
:107350000340C6EB6014642505FB1434BCB34FF442
:10736000B77405E04FF4B770D2E740F26D14DE1742
:107370002B482C4D80FB0370C6EB6018121BC6EB2C
:10738000E01664244FF4C87000FB163604FB18386E
:10739000C2EB0C020120002302E00130C0B2013335
:1073A000012BDFB220D05C5D944209D80C28A2EBFF
:1073B0000402F2D10D2701320A714F71BDE8F08F3E
:1073C0000137FFB201320A714F71BDE8F08F4FF4FF
:1073D000C874C6EBE01004FB1030002840F26D14B6
:1073E00008BF4FF4B774C3E7BEF1000F0AD1B8F17C
:1073F000000F0BD1002E14BF1C241D24A24203D366
:10740000121BCAE71C24F9E70227D4E71D24F5E77D
:1074100007452EC289888888C5B3A291ABAAAAAABB
:107420001F85EB51F05C01002549922410B50349FA
:107430000446FFF723FF024B1C6010BD7082FF1F44
:107440006C82FF1F2DE9F0413949867901FB06F175
:1074500006B306F2B27C40F2B373DFF8D8E06427DB
:107460004FF4C8780DE013F0030F09D1C2EBE51219
:1074700008FB123204B91AB901F5A83101F5C0713F
:1074800001338EFB0325DA17C2EB6514634507FB56
:107490001434E8D14779012F2FDD264C264ADFF836
:1074A0009CE006F2B27384FB0346DC17C4EB661C57
:1074B0006425C4EBE6164FF4C87405FB1C3C04FBC2
:1074C000163603F00305012307E014780133BB42AD
:1074D0000EFB041102F101020FD0022BF5D1002D99
:1074E000F3D1BCF1000F1BD001F5181101F56E515D
:1074F0000133BB4202F10102EFD143788578047871
:1075000002790E48C3EB03134FF461669B0006FB40
:1075100005332344013A00FB02300844BDE8F08102
:10752000002ED2D101F5181101F56E51E0E700BF30
:107530008033E1011F85EB51F05C010080510100B7
:10754000F0B5204C204E23683268204D83B0286867
:107550000093009B9B1AB3F57A7F0FD3013000E0B4
:10756000084623680093009B02F57A729B1AB3F5D4
:107570007A7F00F10101F3D228603260144F3B683A
:1075800098420FD3134B1B6863B19847124B58B9FD
:1075900012491A680B7828680033024418BF012387
:1075A0003A600B7003B0F0BD226801921B680B4A71
:1075B000019C28600344022134603B60117003B0D9
:1075C000F0BD00BF9086FF1F8482FF1F7882FF1FDF
:1075D0008882FF1F8082FF1F6C09FF1F7C82FF1FB4
:1075E00008B5FFF7ADFF044B1B68984201D0FFF7C9
:1075F0001DFF024B987808BD6C82FF1F7082FF1F31
:1076000008B5FFF79DFF044B1B68984201D0FFF7B8
:107610000DFF024B587808BD6C82FF1F7082FF1F60
:1076200008B5FFF78DFF044B1B68984201D0FFF7A8
:10763000FDFE024B187808BD6C82FF1F7082FF1F91
:1076400008B5FFF77DFF044B1B68984201D0FFF798
:10765000EDFE024B187908BD6C82FF1F7082FF1F80
:1076600008B5FFF76DFF044B1B68984201D0FFF788
:10767000DDFE024B587908BD6C82FF1F7082FF1F30
:1076800008B5FFF75DFF054B1B68984201D0FFF777
:10769000CDFE034B987900F2B27008BD6C82FF1FDB
:1076A0007082FF1FF0B583B00746099C089E632CCB
:1076B000CCBFA4F2B27504F11E050E4C2046A57194
:1076C00066712371A77061702270FFF7BBFE0A4BD1
:1076D0000A4A1B6812680193094E0A4D0A490B4B6E
:1076E000019C30601044022228600C601A7003B0C4
:1076F000F0BD00BF7082FF1F9086FF1F6C09FF1F47
:107700007882FF1F8882FF1F8482FF1F7C82FF1FF9
:107710000349044A044B096811601860FFF710BF61
:107720007882FF1F8882FF1F8082FF1F30B5A1F182
:10773000280383B00546252B14D8DFE803F05A2E22
:107740002B2B475113131313131313131313131367
:1077500013131313131313131313131313131313F9
:10776000131334343F295ED901F03F016B1893F8AD
:107770002900FF280ED00F2957D9102903D10190D5
:1077800003F00CFD019802F04BFA003018BF012005
:1077900085F82400012003B030BD104602F078FACD
:1077A000012003B030BD01F03F0101920D44002AD9
:1077B00032D1012195F8290002F040FA019A95F89A
:1077C0002900114602F026FA0120E4E7002A14BF3E
:1077D00030220022002ADDD0013AFDD10120DAE773
:1077E000022A8CBF6023F023013BFDD1012003B0AE
:1077F00030BD2835002415F8013FFF2B4FF0010163
:10780000184605D00F2C84BF1846022102F016FA44
:107810000134162CEFD1BDE795F82900022102F0C2
:107820000DFA0120B7E70020B5E7114602F0F2F9A2
:107830000120B0E780F8341080F8352080F8363029
:10784000704700BF143920B505460C292ED8DFE853
:1078500001F0132D2D07180D2D2D2D2D2D2D0B0085
:107860001946134801F0F4FC012020BD0121104805
:1078700001F094FE012020BD0D4801F01BFD012008
:1078800020BD2B685B7B032B03D90A49084801F014
:107890005BFD95F82020064B012002F0FE0283F8E4
:1078A0003B2083F85E0083F85D0020BD002020BDF2
:1078B000DC09FF1F801A06002DE9F04F541C83B02D
:1078C0009B46E4B2CB180094DBB290460D460746C7
:1078D00090F891900C9E00F073FF70B3BBF1000F15
:1078E00029D001244FF0000A10E097F89030DBB166
:1078F000640014F0FF040BF1FF3305F1010504BF30
:107900000136012413F0FF0BEDB214D033781C4282
:10791000EBD087F89190CDF800A00123424629468C
:10792000384600F0E3FEE3E7B9FA89F25209009322
:1079300087F89120F1E787F8919003B0BDE8F08FC8
:107940002DE9F04782B01F469DF828500B9E531931
:10795000DBB207EB010E00935FFA8EF31446884604
:10796000824600F02DFF90B18DB107F10709C9F3F0
:10797000C40900963B46224641465046FFF79CFF0D
:107980006B1E013413F0FF054E44E4B2F1D102B096
:10799000BDE8F08710B49DF8044001945DF8044BF5
:1079A000FFF7CEBF2DE9F04383B01F469DF8285066
:1079B0005319DBB201EB070E00935FFA8EF3144606
:1079C0000E46804600F0FCFE80B17DB14FF000090C
:1079D0003B462246CDF800903146404600F086FEF8
:1079E0006B1E013413F0FF05E4B2F1D103B0BDE822
:1079F000F08300BF2DE9F04F85B0CC189DF83850CA
:107A00009DF83C605719E4B2FFB29A4600972346AE
:107A100089469346804600F0D3FE10B905B0BDE814
:107A2000F08FF343DBB2022009EB06010BEB0602F9
:107A3000C9B2D2B21C441F44009033464046039161
:107A40000292E4B200F054FA01232146029A009314
:107A50004046334600F04CFAFFB204233A460399FD
:107A600000934046334600F043FA08230093214632
:107A700033463A46404600F03BFAAAEB460303F091
:107A8000FF03022B13D8A5EB460505F0FF05022DD9
:107A9000C4D9029A023D0132EDB2D2B253464946F0
:107AA00040460E9505B0BDE8F04FFFF77BBF039A47
:107AB0000132741CD2B21146E4B2023BDBB25A4628
:107AC00040468B4600940393FFF76CFF0094039BA2
:107AD00059463A464046FFF765FFD4E72DE9F04F97
:107AE00085B0CD189DF838809DF83C4002EB080B1E
:107AF000EDB25FFA8BFB1E46CDF800B02B468946EF
:107B00009246074600F05CFE10B905B0BDE8F08F64
:107B1000E343DBB209EB04010AEB04020220C9B221
:107B2000D2B21D449B44009023463846EDB20391E7
:107B3000029200F093F901232946029A00933846F5
:107B4000234600F08BF95FFA8BFB04235A46039916
:107B500000933846234600F081F908232946A6EB16
:107B6000440500935A462346384605F0FF0500F0C9
:107B700075F9A8EB4404022D04F0FF0417D8022C79
:107B8000C3D9029D023C0135EDB2E4B223462A4638
:107B90004946384600F0D4FD711E494423462A4622
:107BA000C9B2384605B0BDE8F04F00F0C9BD039B2F
:107BB000023D03F1010B5FFA8BFBEDB22B465946F8
:107BC0005246384600F09EFD08F1FF3252442B46E3
:107BD0005946D2B2384600F095FDD0E72DE9F04382
:107BE000036890F84C8093F8119090F84D7083B032
:107BF0000646002502E0994518D933681B7CB06C15
:107C0000D90005FB01F14FF6F872ECB20A400244CC
:107C10003919013400923046CAB201350021E4B26C
:107C200001F086FA7B19A045DBB2E4D803B0BDE8C9
:107C3000F08300BF026890F84C30127C806C12FB1D
:107C400003F20021D20005F039B800BF10B5044698
:107C5000FFF7C4FF2046BDE8104001F0A5BA00BF01
:107C6000426C80F84D101368184700BF10B590F8AB
:107C70009230044653B1026890F84C30127C806C0C
:107C800012FB03F2D200002105F018F82046002173
:107C9000BDE81040FFF7E4BF38B50546FFF79EFF8B
:107CA00095F84D4095F84C302A681C44517CE4B25C
:107CB000A14216D995F8921029B928462146FFF716
:107CC000CFFF012038BD127CA86C12FB03F2D2005A
:107CD000002104F0F3FF28462146FFF7C1FF0120F1
:107CE00038BD284601F060FA002038BD2DE9F84380
:107CF0009DF824409DF820601D46E30788461746FE
:107D000081463BD4A10728D4220715D4630701D4A8
:107D1000BDE8F883F219C8EB05014846D2B2C9B2F2
:107D200000F02CFD08EB0602E91B4846D2B2C9B2AE
:107D3000BDE8F84300F022BDF21905EB0801484602
:107D4000D2B2C9B200F01AFD08EB0602E919D2B2AC
:107D5000C9B2484600F012FDD8E7F21BC8EB050196
:107D60004846D2B2C9B200F009FDC8EB0602E91BD1
:107D7000D2B2C9B2484600F001FDC5E7B21A69188F
:107D8000D2B2C9B200F0FAFCC8EB0602E919D2B2CD
:107D9000C9B2484600F0F2FCB4E700BF2DE9F04755
:107DA0009DF824409DF820801E46E3070D461746A7
:107DB00081463FD4A10728D4220715D4630701D4F4
:107DC000BDE8F0877B1C711B42464846DBB2C9B256
:107DD00000F0B6FC6B1CF11B42464846DBB2C9B250
:107DE000BDE8F04700F0ACBC7B1C71194246484628
:107DF000DBB2C9B200F0A4FC6B1CF119DBB2C9B252
:107E00004246484600F09CFCD8E77B1CC7EB0802C2
:107E1000711B4846DBB2D2B2C9B200F091FC6B1CB8
:107E2000C5EB0802F11BDBB2D2B2C9B2484600F082
:107E300087FCC1E7531C7118C2EB0802DBB2D2B257
:107E4000C9B200F07DFC6B1CC5EB0802F119DBB276
:107E5000D2B2C9B2484600F073FCABE72DE9F04F4F
:107E60001E46531C83B091463344721CDCB28846D4
:107E70008B18C6EB0902891B0094DBB2D2B2C9B2DF
:107E800082469DF830B000F09BFC10B903B0BDE80D
:107E9000F08F77427F00C6F101048DE8000A434667
:107EA0003246002150467FB264B2FFF71FFF002E1A
:107EB000ECD000250135EDB2002C43462946504652
:107EC00007F1020205DBD7B23C44013E64B27FB247
:107ED000F6B204EB45048DE8000A32460134FFF7A0
:107EE00005FFB54264B2E5D303B0BDE8F08F00BF33
:107EF0002DE9F04F1E46531C83B091463344721C4B
:107F0000DCB288468B18C6EB0902891B0094DBB2F1
:107F1000D2B2C9B282469DF830B000F051FC10B91F
:107F200003B0BDE8F08F77427F00C6F101048DE811
:107F3000000A43463246002150467FB264B2FFF742
:107F40002DFF002EECD000250135EDB2002C43466C
:107F50002946504607F1020205DBD7B23C44013EF8
:107F600064B27FB2F6B204EB45048DE8000A3246F3
:107F70000134FFF713FFB54264B2E5D303B0BDE8A7
:107F8000F08F00BF10B50446FFF770FE2046FFF7E4
:107F900083FE0028FAD101462046BDE81040FFF7D5
:107FA0005FBE00BF08230370004870478C82FF1F2C
:107FB00030B585B00D46009309491346094A044679
:107FC00001F004F90DF10F00FFF7ECFF9DF80F2011
:107FD00000950146044B204600F0B4FE05B030BDCC
:107FE00049900000F18E00002189000030B585B075
:107FF0000D46009309491346094A044601F0E6F884
:108000000DF10F00FFF7CEFF9DF80F200095014600
:10801000044B204600F096FE05B030BD899000006C
:10802000F18E0000218900004318405C5B7803EB6F
:10803000002080B2704700BF012B0BD007D3022B6A
:1080400002D1801AC0B27047401AC0B270471044C3
:10805000C0B270470844C0B2704700BF012B0BD0BC
:1080600007D3022B02D1401AC0B270471044C0B2ED
:1080700070470844C0B27047801AC0B2704700BF52
:1080800070B490F878204166002380F86E30072A9B
:108090000D7836D90131A2F108034166DBB2012423
:1080A00004FA02F2013A90F8796080F86E302A40C2
:1080B00080F86C20F5180A78EDB2072D42FA03F229
:1080C00021D94C1C4466C3F108044B78E1B203FA91
:1080D00001F1083D1143EDB2C9B290F8914080F82A
:1080E0006E50012202FA06F3013BB4FA84F20B400F
:1080F000520980F8704080F86D3080F8712070BCB3
:1081000070471346CBE7D1B2E7E700BF00207047C6
:1081100090F88D000130C0B2704700BF10B50B78E9
:1081200003704B7843708B788370CB78C3700B7976
:1081300003714B7943718B798371CB79C3710B7A5E
:1081400003724B7A43728B7A8372CB7AC3720B7B46
:1081500003734B7B43738B7B8373CB7BC3730B7C2E
:10816000037402460C4608461121FFF75DFF1321F8
:1081700050822046FFF758FF152190822046FFF7D6
:1081800053FFD08210BD00BF70B4827A05688C188E
:108190002B78E4B2072C43FA02F30AD96E1C06606E
:1081A000C2F108026D78D2B205FA02F2083C13431C
:1081B000E4B2012505FA01F20139DBB2013AC9B294
:1081C00005FA01F11A408472531A58B270BC704714
:1081D0002DE9F04F87B005460F4690F86A9090F869
:1081E0006BA005920EE095F86F20002A46D0A742BA
:1081F0000AF10103A7EB040438D3E7B25FFA83FA6C
:108200004FF0000995F8728095F8693003934FFAA2
:1082100089F64FFA8AFB434631465A4695F868007C
:1082200095F86C40FFF71AFFC9EB0404049043462D
:108230005A4631460398FFF7FFFEE4B2059AA7427B
:108240003B4628BF2346002ACDD095F87060CDF874
:1082500000800246049985F89160284600F046FAAD
:10826000A7420AF10103A7EB0404C6D24F4485F8E4
:108270006A7085F86BB007B0BDE8F08F95F8716053
:10828000E5E700BF2DE9F04F044685B000F1640733
:10829000FFF7F6FE94F96D3094F87A1002933846A1
:1082A0001E46FFF771FF94F87B1082463846FFF7B1
:1082B0006BFF94F87C1005463846FFF765FF94F98C
:1082C0006C800390B8F1000F2ADD5FFA86FB5D44F5
:1082D00094F8727094F868006D426DB22A463B467D
:1082E0005146FFF7BBFE2A4684F868008146514696
:1082F00094F869003B46FFF79FFE024684F8690048
:10830000032F00F2B680DFE807F0747B870F94F943
:108310006B2002998A4220DB94F8703084F8913007
:10832000039805B0BDE8F08FC8F1010101440BEBE3
:1083300009030130CAB2DBB2C1B2009120464946FE
:1083400000F03EFA0028EBD0002294F86E3084F85A
:108350006A2084F86B204FF0010894F87600656E6F
:10836000C2182978D2B2072A41FA03F163D8CFB2F2
:1083700094F8771084F86E208B1808FA00F095F8BE
:1083800000E0DBB20138072B07EA00074EFA02F0E3
:1083900061D8C5B208FA01F101390D4084F86E3098
:1083A00004E0D2B2D20784F86E30B0D5002239464C
:1083B0002046FFF70DFF012229462046FFF708FF60
:1083C00094F86E10666E4B1C3278DBB2C1F1080077
:1083D000072B06F1010C42FA01F2C0B2E1D9C4F850
:1083E00064C0737803FA00F00243CB1FD2B2DBB251
:1083F000D8E709EB08030BEB0001DBB2C9B29CE73D
:10840000CBF1010009F10103484402EB08015FFAD6
:1084100080F9DBB2C9B290E7C8F10105CBF10100E8
:1084200009F10103511C4D4410445FFA85F9DBB298
:10843000C2B2C9B281E705F1010EC4F864E06D78FB
:10844000C3F10803DBB205FA03F3083A1943D2B2C9
:10845000CFB275468CE705F1010EC4F864E0C2F1B5
:1084600008026D78D2B29540083B0543DBB2EDB20D
:1084700090E701464B4660E738B5C36DFF2903F12D
:10848000170311D8602934D8402984BFB0F886205A
:108490009B18587818B92BE00344587878B31A78A9
:1084A0008A42F9D1981C38BDB0F88A209C180D4634
:1084B000224610460021FFF7B7FD02210444104672
:1084C000FFF7B2FD854202F10402F2D8207862780B
:1084D00052EA00200CD0854202D10EE09D420CD021
:1084E000A3781C442078637853EA0023F6D1184619
:1084F00038BDB0F888201344CBE7E01C38BD38BD48
:108500002DE9F04190F8726004460F4615469846F2
:10851000032E07D8DFE806F0201B1602026E9047F4
:108520003844C7B284F8687084F8695041462046E0
:10853000FFF7A2FF20B101462046FFF7A3FEC0B21D
:10854000BDE8F081036E9847281AC5B2EAE7036ECA
:108550009847381AC7B2E5E7036E98472844C5B272
:10856000E0E700BFC36DE3B190F88C3090F9811063
:1085700090F9822080F88D1080F88E208BB1012B2D
:1085800010D010B490F97E3090F980402344994285
:10859000B8BF80F88D30A242C8BF80F88E405DF829
:1085A000044B704790F983309942B8BF80F88D3002
:1085B00090F984309A42F4DD80F88E30704700BF25
:1085C000014B0366704700BF0D810000014B03663D
:1085D000704700BF11810000C26D8A420AD010B5F9
:1085E00004467430E165FFF799FD2046BDE8104070
:1085F000FFF7B8BF704700BF30B4446C9DF8085017
:1086000002956468A44630BC604700BFF0B490F89F
:108610004D509DF81070A2EBC502012B0646D2B258
:108620000D4624D0022F1C462BD0032F46D090F8A5
:108630004F3090F84E10F8072BD58D421FD21444BE
:10864000E4B2944249D29A4246D2591ECCB2B4B155
:108650009C4294BFC2EB0404C2EB0304E3B20121C9
:108660000491346C29463046A446F0BC604790F82B
:108670004E408C4203D990F84F40944231D8F0BC20
:1086800070470135ED1A90F84E1090F84F3005F014
:10869000FF059A42F3D26319DBB2AB4218D28D4286
:1086A00015D24B1EDBB2002BE9D0994294BFC5EB2B
:1086B0000103C5EB0303DBB20021D1E7C3F10103E2
:1086C0001A44D2B290F84F3090F84E10B5E700251A
:1086D0008D42E8D3F0BC704700229A42B7D3F0BC79
:1086E00070470497046CA446F0BC604710B49DF832
:1086F000044013B95DF8044B704701945DF8044BD6
:10870000FFF77ABFF0B5541C83B0E4B21D46CB1816
:108710000094DBB217460E46044600F051F800B153
:108720000DB903B0F0BD4FF0000E2B463A4631466E
:108730002046CDF800E0FFF75FFF03B0F0BD00BFBB
:10874000F0B5D41883B0E4B21D464B1C0094DBB2E4
:1087500017460E46044600F033F800B10DB903B0D9
:10876000F0BD4FF0010E2B463A4631462046CDF87B
:1087700000E0FFF741FF03B0F0BD00BF70B590F817
:108780005750954282B00BD890F85850954207D96F
:1087900090F855408C4203D890F856308B4201D85F
:1087A00002B070BD002300930123FFF725FFF7E718
:1087B00002298ABF012380F8911080F89130704718
:1087C00070B490F8586090F857509DF80C4096425D
:1087D0000CD9A5420CD290F8564090F855208C4206
:1087E0000BD99A420BD2012070BC7047A54201D22E
:1087F000A242F0D8002070BC70479A42FAD2994247
:1088000094BF0020012070BC704700BF2DE9F04FDD
:1088100083B099429DF830B08CBFC3EB0108C1EB27
:1088200003085A450C461E46074692465FFA88F8EA
:108830003DD9CBEB0203DBB29845019346D21146FA
:108840002246B2465C460E4693464FF00109019B14
:10885000DA4534BF4FF0010B4FF0FF3B43F34705C0
:10886000FF2E08BFFE26B44202D91DE0A6421BD34C
:10887000524621463846B9F1000F02D022465146F1
:108880003846C8EB0505FFF779FFEAB255B2013467
:10889000002DE4B2EADA01990AEB0B035518A6425F
:1088A0005FFA83FA6DB2E3D203B0BDE8F08FC2EB9A
:1088B0000B03DBB29845019328D3B14217D8019A34
:1088C000CDF804804FF000099046C0E7B142F6D9D8
:1088D000214642463446DA4648F347050E46DDF85F
:1088E000048001924FF000094FF0010BB8E72146D8
:1088F00042463446DA4648F347050E46DDF8048022
:1089000001924FF000094FF0FF3BA9E731462246A4
:108910005E4654468B4692464FF0010997E700BFEA
:10892000F0B590F891509DF8147002F007060124FC
:10893000B440012D8E46E4B23AD90025016891F881
:1089400010C002F0F8020CFB02E1826C11448FB9F6
:108950005A1ED2B201320A440B782B43634001F80D
:10896000013B8A42F8D1F0BD08BF154601D0012471
:108970002546BBB10A7801362A436240013B16F016
:1089800007060A70DBB24FEA45074FEA44020AD1F4
:1089900090F8912090F84E70012A3944E4D90124CE
:1089A000002BE7D1F0BDFDB2D4B2002BE2D1F9E744
:1089B000254608BF0024C1E7B0F90810B0F90A3015
:1089C0008B4218DD30B4C388C589848982882B44E2
:1089D0009BB222441CB292B2002CC481828105DD7C
:1089E0000488458822445B1B8281C3810131018157
:1089F00030BC012070470020704700BF037E01316A
:108A0000C8B2834298BF0020704700BF037E01397F
:108A1000C8B2984224BF03F1FF30C0B2704700BF14
:108A20002DE9F84300EB40001E4EC500AC19A6F13D
:108A30001C09217D236939F9217009EB810248461F
:108A4000B2F90280984709EB800239F92030B2F977
:108A500002206281DB1BC8EB02029BB292B219B208
:108A60000FFA82FE0029A4F80880A7812075A4F8D7
:108A700002E00EDB01230022AB530B46E28193FBA5
:108A8000FEF20EFB123391FBFEF1E380A180BDE804
:108A9000F8835B42C2F101024FF6FF70A8531BB28C
:108AA000E281ECE7008BFF1FF8B5334E054600204E
:108AB000B6F91A40FFF7B4FF0120FFF7B1FF737E4C
:108AC000002B50D12C4FB6F93C20002A1EDB95F824
:108AD00054309A421ADAB7F92830B7F94000834285
:108AE0002ADA002812DB95F853108B420EDA814205
:108AF00023EAE373D8BF08B2D9B2431ADBB2D2B2C9
:108B00002846FFF7FFFD01E0FFF78AFF1B48FFF74C
:108B100053FF0028F8D01A48FFF74EFF38B901205C
:108B2000FFF77EFF1648FFF747FF0028F7D0013C0C
:108B300024B2002CC7DCF8BD002BE7DB95F85310FE
:108B40008842E3DA0028AEBF9E464FF0000E73461F
:108B50008E45A8BF0BB2C1B25B1ADBB2D2B22846B7
:108B6000FFF7D0FDD2E706F11C00FFF725FF06F165
:108B70003400FFF721FFA5E7E48AFF1F008BFF1FEA
:108B8000188BFF1F70B50B4D01EB410105EBC104C4
:108B9000064694F8300001E084F830000146E36AAC
:108BA0000448984705EB8003B3F90230B342F3D091
:108BB00070BD00BFE48AFF1FF8B5DFF8B4E02A4AB1
:108BC0009EF81870294BCEF844200020012FCEF8D3
:108BD0002C30BEF902608EF830003FD984467146D1
:108BE00034460123B1F906209442B8BF1446B2427C
:108BF00003F1010501F1040102DA9C461646012049
:108C0000EBB2BB42EED160BBA01B00B2AEF81A00C3
:108C1000174C00B9F8BD94F8303084F84830012181
:108C20003046FFF7AFFF30460021FFF7ABFF94F867
:108C3000302094F8483034F9222034F923300120D0
:108C40009A42607602D000236376F8BD608B0138CB
:108C500000B26083003018BF0120F8BDAEF81A00E2
:108C6000D8E78EF830C0CFE7FD8900000D8A0000FC
:108C7000E48AFF1F2DE9F0410C4CBDF91870BDF9D5
:108C80001C60BDF92050218062800321A380E78011
:108C90002681658180462176FFF78EFF08B9BDE801
:108CA000F0814046BDE8F041FFF7FEBEE48AFF1FB9
:108CB00070B490F84C50046890F84D60EB00DBB253
:108CC00080F84F30217C1F2928BF1F21F200C900E6
:108CD000D2B280F84E1080F85020617C35448D422D
:108CE00002DD8B1BDB00DBB21344F02180F8531054
:108CF00080F8523080F85120A38A8B4298BF80F8C8
:108D00005330E38A80F8543070BC704710B5044685
:108D1000FFF7CEFF002094F84E1094F8512094F8FD
:108D2000523084F8550084F8561084F8572084F89F
:108D3000583010BD10B49DF8044001945DF8044B08
:108D4000FFF764BCF8B5069E80F84C20002501278B
:108D500080F84D5080F86F5080F8905080F89170F6
:108D600080F89270044603648164C5654664336884
:108D700098472046FFF724FC84F87250F8BD00BFE6
:108D800011B94FF6FF7070470A29FAD088B27047C0
:108D9000002380F82330704710B404691346A446BA
:108DA0000A465DF8044B1721604700BF00B583B049
:108DB00002AA02F8011D0121FFF7EEFF03B05DF8E2
:108DC00004FB00BF10B404690023A4461A4618210E
:108DD0005DF8044B604700BF10B404690023A4464B
:108DE0001A4619215DF8044B604700BF70B5044670
:108DF00016460D46FFF7E6FF20464021FFF7D6FF57
:108E000033462A46204625691721A8472046BDE853
:108E10007040FFF7E1BF00BF10B4C4680A46A44623
:108E2000002315215DF8044B604700BF10B4C468EF
:108E30000A46A446002316215DF8044B604700BF94
:108E400010B4C4681346A4460A465DF8044B1721C3
:108E5000604700BF10B4C4680023A4461A46182116
:108E60005DF8044B604700BF10B4C4680023A446FB
:108E70001A4619215DF8044B604700BF70B50646DD
:108E800082B00D462C78172C13D01DD90023192C35
:108E90001A462146304626D9FE2C4FF0290120D112
:108EA0006A788DF80720023500F088F92C78172CA5
:108EB000EBD16B788DF807300DF1070201213046B8
:108EC0000235FFF7BDFFDDE7152C4FF0000321460B
:108ED000304606D36A788DF80720F4680235A0473B
:108EE000D0E702B070BDF4680135A047CAE700BF03
:108EF000143970B5064614461D46052931D8DFE8F9
:108F000001F02213130A202018213046FFF76EFFCC
:108F1000183CE4B21835182C2A46F5D830462146BC
:108F2000FFF764FF012070BDFFF74CFF00213046C2
:108F3000FFF73CFF21463046FFF738FF3046FFF78A
:108F40004BFF012070BD90F820300469FF2B04BF57
:108F5000782380F82030A4462B461421BDE87040C9
:108F60006047002070BD00BF0B39F8B505461446B8
:108F70001E46042950D8DFE801F0404F4631030077
:108F8000FFF768FFAB7F777903EBC70707F0FF07B1
:108F900040212846FFF740FF390941F010012846DB
:108FA000FFF73AFF07F00F012846FFF73FFFB179BF
:108FB000284641F0B001FFF739FF31793268C90026
:108FC00001F0F8012846FFF73BFF621E12F0FF0494
:108FD000F3D12846FFF748FF0120F8BDFFF73AFF1D
:108FE00081212846FFF718FF21462846FFF71EFF7C
:108FF0002846FFF739FF0120F8BDBAB90E49FFF73F
:109000003DFF0120F8BD4AB90C49FFF737FF2B6837
:109010009B7CAB770120F8BD0020F8BD0849FFF725
:109020002DFF2B68DB7CAB770120F8BD0549FFF7EE
:1090300025FF0120F8BD00BFD4740100FC740100BD
:109040003C750100DC74010038B505460C46FFF79D
:109050008BFF90B9092C0AD00A2C0FD1284600F0BA
:1090600037F828460649FFF709FF012038BD284692
:10907000044900F029F8012038BD012038BD00BFA7
:1090800004750100E474010038B505460C46FFF78D
:109090006BFF90B9092C0AD00A2C0FD1284600F09A
:1090A00017F828460649FFF7E9FE012038BD284693
:1090B000044900F009F8012038BD012038BD00BF87
:1090C00004750100BC74010001608B7C83777047DC
:1090D00038B5002304461A4645692821A8470023CD
:1090E0001A46E56820461421A847204601224B2154
:1090F00000F064F8236820461A79292100F05EF810
:10910000204600224B2100F059F8236820461A79A6
:10911000292100F053F8204601224B2100F04EF89F
:10912000236820465A792921BDE8384000F046B826
:1091300030B583B002AC069D44F8085D8DF805108B
:109140008DF806208DF804308568234601220F2112
:10915000A84703B030BD00BF10B484680023A44604
:109160001A4609215DF8044B604700BF10B48468BB
:109170000023A4461A460A215DF8044B604700BF4D
:1091800010B484680A46A44600230B215DF8044B02
:10919000604700BF10B484680A46A44600230E212D
:1091A0005DF8044B604700BF10B484680023A446F8
:1091B0001A4610215DF8044B604700BF10B44469A3
:1091C0000023A4465DF8044B604700BFF0B4049F41
:1091D0000024FF250460C47780F8224080F82340F3
:1091E00080F8205080F8255000F1280400F13E0658
:1091F00004F8015FB442FBD147618160C260036142
:10920000F0BCFFF7A9BF00BF90F8392090F83800F4
:10921000101A704790F8383090F839209A4205D9E2
:109220005A1C034480F83820187E70474FF0FF30F6
:10923000704700BF90F8383090F839209A4286BFC6
:109240001B18187E4FF0FF30704700BF704700BFFB
:1092500038B50546B0F85E0090B195F85D3014461B
:10926000C3F1210294420CD805F13B001844224678
:1092700000F030FA95F85D30234485F85D302046E3
:1092800038BD012014462871EEE700BFB0F85E300B
:109290006BB190F85D30202B07D8C218013380F8ED
:1092A0005D30012082F83B107047012303710020DC
:1092B000704700BF0023426980F8383080F83930A9
:1092C00080F85C3080F85D3080F85E3080F85F3088
:1092D00006CA30B40D68046943662A4383660A608F
:1092E000A370426990F861301649146813441D7ADE
:1092F0005B7B01EBC5051B026D6803F4E06343F083
:1093000064032B6090F8623013449D7CDB7D01EB9D
:10931000C5011B02496803F4E06343F064030B607A
:1093200021685368194205D0036927225A700369DE
:1093300004229A71036920225A71036980229A706B
:1093400030BC7047D875010043690CCB12681A42D3
:109350000CD0094B99420AD9084B9942036994BF32
:109360001A220D225A70036904229A717047036908
:1093700027225A70F7E700BF7F1A06003F420F000E
:1093800038B50269D478E4B2E106054624D5102345
:10939000D37063061FD504F0040404F0FF03002C0F
:1093A0005AD042496A6E00230B7085F85D30002A5E
:1093B00066D0904795F85D30002B61D02B69D022A4
:1093C0009A702B6995F83B201A712B69012285F858
:1093D0005C200222DA7038BD04F0400303F0FF0085
:1093E000002BD8D19379DBB203F0600160294ED015
:1093F000937803F0100303F0FF01B3B114F00104FC
:1094000037D195F85C3095F85D1099424BD9591CCD
:109410002B4485F85C1093F83B3013712B69D022F4
:109420009A702B690222DA70D5E785F8601093797B
:1094300043F0200393712B6995F839101A791F298D
:10944000D2B2C6D8194800780028C2D068180131B5
:1094500085F839100276BCE72A6985F83930C023CF
:1094600093702B69114A1979012111700222DA7067
:10947000B1E7C02393702B691A790222DA70AAE748
:109480000122002385F85D2085F83B3096E703F044
:10949000DF039371AB6E23B185F8380095F839007E
:1094A00098472A69A4E71471B8E700BF8C86FF1FAC
:1094B0002DE9F047374FDFF8E0903B68026982B052
:1094C00006460093DDF800800021F025D3789B0646
:1094D0005BD53B680193019BC8EB03030F2BF5D9C8
:1094E00049B1102BF2D000209070336980229A701D
:1094F00002B0BDE8F087726996F861301344052127
:10950000187A00F09BFB726996F8613013440121D0
:1095100093F812A0504600F091FB09240021504618
:1095200000F078FB2B46013BFDD10121504600F0B5
:1095300071FB2B46013BFDD1013CEFD1706996F8E0
:10954000611001444FF4F0720C7A4B7B09EBC401BB
:109550001B02496803F4E06343F064030B6096F870
:1095600062300344997CDB7D09EBC1011B02496831
:1095700003F4E06343F064030B60013AFDD1326908
:10958000D3789B064FF00101A3D4012002B0BDE8BF
:10959000F08700BF9086FF1FD8750100F0B5036902
:1095A0001222DA700269937803F0200385B0044632
:1095B0000D46002B5ED0B42393703C4922690B68A2
:1095C0000093009E05E00B680193019B9B1B042BFD
:1095D00042D8D37803F0200303F0FF00002BF2D031
:1095E00094F85D30002B31D04FF0000E4FF0020C9C
:1095F00004EB0E0393F83B3013710B680393039F46
:10960000206907E09B060DD50B680293029BDB1BCC
:10961000052B28D8C378DBB203F0020202F0FF0664
:10962000002AEFD080F803C02669F378DBB2DF06AA
:1096300032462DD49F062BD5DB0731D40EF1010E17
:1096400094F85D305FFA8EFE7345D1D800201DBBC3
:10965000002384F85E3004E09070236980229A70C1
:10966000042005B0F0BD86702369802204209A7022
:1096700005B0F0BD03F0FF06FFF71AFF10B9042094
:1096800005B0F0BD236984F85F60B0229A7094E75A
:109690008023B3700420DAE726698023B370D7E70C
:1096A000BEF1000F0CBF02200320F6E79086FF1FDB
:1096B0000148FFF765BE00BFDC09FF1F0148FFF747
:1096C0005FBE00BF480AFF1F0148FFF759BE00BF39
:1096D0007009FF1F844641EA000313F003036DD1B4
:1096E000403A41D351F8043B40F8043B51F8043B65
:1096F00040F8043B51F8043B40F8043B51F8043B6C
:1097000040F8043B51F8043B40F8043B51F8043B5B
:1097100040F8043B51F8043B40F8043B51F8043B4B
:1097200040F8043B51F8043B40F8043B51F8043B3B
:1097300040F8043B51F8043B40F8043B51F8043B2B
:1097400040F8043B51F8043B40F8043B51F8043B1B
:1097500040F8043B51F8043B40F8043B51F8043B0B
:1097600040F8043B403ABDD2303211D351F8043BAB
:1097700040F8043B51F8043B40F8043B51F8043BEB
:1097800040F8043B51F8043B40F8043B103AEDD25A
:109790000C3205D351F8043B40F8043B043AF9D2AB
:1097A000043208D0D2071CBF11F8013B00F8013B7E
:1097B00001D30B8803806046704700BF082A13D38B
:1097C0008B078DD010F003038AD0C3F10403D21AA3
:1097D000DB071CBF11F8013B00F8013B80D331F8D7
:1097E000023B20F8023B7BE7043AD9D3013A11F857
:1097F000013B00F8013BF9D20B7803704B784370C2
:109800008B78837060467047F0B51D4B1D4E5968CC
:1098100018689A68DB6885B06C460FC4337899077E
:1098200021D5194A194C137813F0700318BF13701F
:1098300000F0C4F8164A1749174B80271770002606
:109840001220052226706D4608701A7072B6043C0C
:1098500045F001052046A84762B600F0C9F8237814
:1098600013F0700309D10D4B064901E0013B02D012
:109870000A78D207FAD505B0F0BD237005B0F0BD67
:10988000C8750100010002400000024004000240CF
:10989000070002400B0002400A000240410D030095
:1098A000B0F5805F0AD210B5094B1B78DB07044680
:1098B00006D504F1A0500078C0B210BD002070475A
:1098C000FFF7A2FF04F1A0500078C0B210BD00BFA6
:1098D00001000240B0F5805F1DD238B5124B1B78F5
:1098E000DA070D46044617D504F1A0542378AB429D
:1098F00010D000F063F80D4A137813F0700318BF0E
:109900001370094A25701378DB07FCD5BDE8384091
:1099100000F06EB838BD704704F1A054FFF774FF33
:109920002378AB42E5D1F5E7010002400000024098
:1099300008B5104C08E0236859050DD423681A05B2
:109940000FD42368DB0411D423685803F3D500F047
:109950005DFB23685905F1D501F028FD23681A0540
:10996000EFD501F0B9FD2368DB04EDD501F04AFE27
:10997000EAE700BF3480044008B5FFF7D9FF00BF15
:10998000014B10221A80704700200540704700BF2D
:10999000094908B50B6830B16A461844A2F500526F
:1099A000904202D20860184608BD02F06BFD0C23FD
:1099B00003604FF0FF3008BDB40AFF1F084A137858
:1099C000802B01D0002070470649074B07480860EC
:1099D000002119701378802BFCD00120704700BF44
:1099E00003E007404480044001E0074000002522D6
:1099F0000A4A1378012B01D00020704703F18043FD
:109A000003F5FC23602119701378802BFCD1044BE3
:109A10004FF001721A600120704700BF03E0074059
:109A200044800440704700BF10B4114B53F83020FD
:109A300092F8804234B1012379B182F880305DF828
:109A4000044B704703EBC0035B681A6851B922F0FE
:109A500002021A605DF8044B704782F800315DF82D
:109A6000044B704742F003021A605DF8044B7047E4
:109A7000D87501001C4A02EBC00301295B6811D0B4
:109A800004291BD052F83000002280F8802229B12E
:109A9000022920D0032922D01A6070474FF4807227
:109AA0001A60704752F830004FF4A27280F88012AA
:109AB0001A601A6822F020021A60704752F83010BB
:109AC0004FF4A272012081F880021A601A6842F0F5
:109AD00020021A60704740F203121A6070474FF478
:109AE00081721A60704700BFD87501003F2817D8EF
:109AF000F8B5042A13D8DFE802F0494C4F144600A9
:109B00002C4872B6236823F4702343F08072C4F3A8
:109B100084011643236040F82150266062B6F8BDE8
:109B200070474FF41026244B03EBC0030D465C68CE
:109B3000216811F4E06134D0204B214A2149C3F857
:109B40002C2104F140422048C3F83411A2F592219F
:109B50001E4FC3F830017C291D48C3F83871C3F883
:109B60003C01CDD9A2F594237C2B18D9A2F59623DC
:109B70007C2B19D9A2F598237C2B17D9A2F59A2210
:109B80007C2A15D9F8BD4FF43026CCE74FF40026D7
:109B9000C9E74FF44026C6E74FF42026C3E70D4837
:109BA000AFE7FFF767FFC7E70B48AAE70B48A8E74F
:109BB0000B48A6E7B80AFF1FD87501000002FF1F77
:109BC000E107FF1F8907FF1FB507FF1F5D07FF1F85
:109BD0003107FF1F300BFF1F900BFF1FC00BFF1F34
:109BE000000CFF1F014B1868704700BF00D00340F6
:109BF00030B4054B054D064C002210211A602A6036
:109C00002060196030BC704714D0034004D003407A
:109C100000D003403F2801D8FFF706BF704700BFC0
:109C20003F2806D8044B53F8303093F80002C0B2F6
:109C300070470020704700BFD87501003F2801D849
:109C4000FFF718BF704700BF72B60D490D4B0E4AA3
:109C50001B680868126862B6520102D5322B88BFB1
:109C600001300A49C3F50C334FF47A7203F27F23B3
:109C7000A1FB031302FB00F000EB5310704700BF81
:109C80009086FF1F18E000E004ED00E0398EE33815
:109C90002DE9F843054672B6214F224B224A1B6834
:109CA0003C68126862B6520102D5322B88BF01347B
:109CB000A5B3C3F50C331D4EDFF86890DFF868805C
:109CC00003F27F234FF47A72A6FB031302FB04F422
:109CD00004EB531472B6D9F800103A68D8F800E0D3
:109CE00062B6C1F50C3303F27F23A6FB03031EF01B
:109CF000806FC4EB53134FF47A7002D0322988BFBF
:109D0000013200FB0233B3F57A7F04D3013D05D065
:109D100004F57A74DEE701F041FADBE7BDE8F88389
:109D20009086FF1F18E000E004ED00E0398EE33874
:109D3000F8B54E4B4E48DFF85CC14E4C4E49DFF84B
:109D400058E14E4E4E4D4F4F4FF000621A604FF0AB
:109D500080521A604FF000521A604FF080421A6031
:109D60004FF000421A600022026028234BF6FF7079
:109D7000CCF80000CEF8003023600EF5012E0B6009
:109D800033602B6006F500263B6005F50025A362D5
:109D900007F500278B6204F5012401F5012106F681
:109DA000E87605F6E87507F57F6710310EF1100EBD
:109DB000203433602B60CEF800303B600B602360B2
:109DC000314CBB618B6109212160A7F5002704F5A7
:109DD0008054203F08343A602060BB60E36047F85D
:109DE000041C04F5FD2407F5FE27043704F2FC7477
:109DF00022603860A360FB6044F8041C083404F659
:109E0000FC74C7F8FC2F2060A4F5E124A4F2DC74F4
:109E100033602B60C7F8F81F21681C4841F40071BB
:109E2000216001681A4C0EF57F4E0EF1E80E07F521
:109E3000883706F5803605F5803541F00071016000
:109E4000CEF8002047F6FF710822396033602B609E
:109E5000226001F005FA3220FFF71AFF00F002FD40
:109E60004FF4AF70BDE8F840FFF712BF04E100E027
:109E700004800340148003401C800340248003407E
:109E80002C80034034800340008003400480044061
:109E900000900C40088003400C800340431E032BBD
:109EA00014D872B60A4951F8230068B170B4094C4D
:109EB000058834F81320466841F82360521B24F8C3
:109EC000132062B670BC704762B6704700207047BE
:109ED000EC86FF1F308BFF1F013803280BD872B6AA
:109EE000074B53F8203043B100205B680130002B52
:109EF000FBD162B67047002070471846F9E700BFF3
:109F00004087FF1FF0B472B61A491B4E012311F8A7
:109F1000014B194F9A00240742F0010505D556F868
:109F2000324064B156F83520BAB10133052BEED179
:109F300062B6124B00221A70F0BC00F017BD0F4C35
:109F40000F4D217847F8325007EB431308304A1E73
:109F50005860227062B6F0BC70470849094B0A7815
:109F600047F8353007EBC5030830013A58600A70EE
:109F700062B6F0E7047801000000FF1F6987FF1F49
:109F800088004000C8004000431E032B1DD81B4A18
:109F9000400140F0100030B4104472B6184CE25C3E
:109FA000032A1BD8DFE802F00212151703220D88DE
:109FB000E25410F0080F14BFC823882343EA054376
:109FC00008310360416062B630BC7047083002223D
:109FD000EDE70522EBE708300422E8E7094A52F8EA
:109FE000230038B1084A52F82300416042F8231098
:109FF00062B6E9E742F82310034AF7E70000FF1FC3
:10A000007887FF1F4087FF1F5087FF1F2DE9F04F04
:10A01000DFF804A3DFF804B387B044E0A94F4FEAA8
:10A02000930807EBC809013ED9F8042003F00803A0
:10A03000F6B2A2F1080003F0FF04002B40F0FE800E
:10A0400057F838301B0C99B222F8081C002B00F08E
:10A05000EC809D4B22F8064C42F8044C53F8262025
:10A06000002A00F02B82994D55F826305860984C04
:10A0700045F8260034F81630194424F8161000F07C
:10A0800055FC002800F01382924A934B19F0080FF8
:10A0900000F1080018BF1346C9F8040047F838302B
:10A0A00008238AF800309AF80040E4B260071AD515
:10A0B0008A4B1B78A3B18A490A7802F0FF0322B1C8
:10A0C000013BDBB20B7003B900BE86490A7802F08F
:10A0D000FF032AB1013BDBB20B70002B00F0BD8106
:10A0E00004238AF8003004F0080303F0FF02002B79
:10A0F00000F0C8809BF80030DBB21E098ED19C08AE
:10A10000704F57F8342007EBC401C2F38302013AC1
:10A1100049680C2A00F28580DFE802F079798383B0
:10A120008383838342838383070008686E4B6F4D6C
:10A130000193684B4A686E4E47F8343081B240F262
:10A140008164694B6A60286000220120A1421A6084
:10A150003A61BA61307000F2E380B1F5D06F80F0FF
:10A160002782B1F5817F00F0E08100F2C381802970
:10A1700000F03682822940F0DE81A9885D4B01F033
:10A180007F01042900F2D8815B4C89000B442270C6
:10A1900062701A78930740F122832070022023E234
:10A1A000514B01931A683AB3544B514E5449188895
:10A1B00034780D784028864645F0020828BF4FF0D5
:10A1C000400E002C84F001043470CEEB00000CBF74
:10A1D0008824C82407EBC80680B285F0010544EA4C
:10A1E0000E447260188047F8384072440D700028A1
:10A1F00000F0B780019B1A603C4B1A88B2F5A06F43
:10A200000FD100219A7859703E4B1A7009E0374AF5
:10A21000108842F22102904200F0A8802D4A47F8AF
:10A220003420394A012313703AE72A4A2A4B19F09D
:10A23000080F18BF134647F8383031E700F096FB97
:10A24000324A334952F82630002B00F03B815868DF
:10A250008C5D42F8260003F10802C9F80420032CA3
:10A2600005D8DFE804F02C02292602228A551A8834
:10A2700019F0080F0CBF8823C82343EA024347F8AC
:10A2800038300DE7E00700F1EB80210600F128816E
:10A29000A20706D51F4A204913780220DBB21370AB
:10A2A0000870E30602D51C4B10221A7007B0BDE8F7
:10A2B000F08F04228A55DAE705228A55D7E7032270
:10A2C0008A55D4E70000FF1FEC86FF1F9886FF1F0A
:10A2D000308BFF1FC8004000880040007487FF1FBC
:10A2E000FD86FF1F7C87FF1F9486FF1F6087FF1F6F
:10A2F000FC86FF1FC02007406C87FF1FA886FF1F3A
:10A300006887FF1F98200740942007404087FF1F61
:10A310007887FF1F88200740802007409020074053
:10A3200042F22104A14200F0948043D8B1F5086FB5
:10A3300000F0A881B1F5106F40F0FD80B84AB94C2B
:10A34000A978117004F1800503E00834AC4200F0F4
:10A350009E81236A1906F8D5606A083800F006FB6A
:10A36000F3E7BEF1400F18BF002243E7AE4ACD1D10
:10A3700011F8013B02F8013FA942F9D1AB4A12683A
:10A38000862A00F01181AA49AA4E0A78307882F014
:10A390000105002842F002020D700CBF8821C8217F
:10A3A00047F8321007EBC20280F001000021307044
:10A3B000516033E742F22124A14240F0FE81DFF8F0
:10A3C000BCC29D4B9D49AC78DCF800501D608146B5
:10A3D0000C700020029080468446044694490D7813
:10A3E00045F0020E07EBCE03B9F1000F5C600CBF25
:10A3F0008824C82444EA080385F0010447F83E3065
:10A4000032700C70DFF81CE28A4BDFF824820028DF
:10A4100040F09880BCF1400F1BD144F0020407EBE0
:10A42000C403029FDFF8FCE15F60002A40F09F80D8
:10A43000020442F0880207444EF8342086F8009067
:10A440000D703B46402804D100207D4A01991080C0
:10A450000B607C4A01231370E3E600F0F3FB3FE658
:10A46000704B784872491A614FF0020E80F800E094
:10A47000754F0A70754919609960754E754D764C27
:10A480009A610D213970FF213170DFF8F4E12970F4
:10A490002270724D724A8EF800109F27012406F830
:10A4A000047C5D600470DA6007B0BDE8F08F6D4A2F
:10A4B00047F83800137801331370F1E543F82600AC
:10A4C000694DD4E58B5D032B67D801A252F823F0C8
:10A4D000A1A00000A1A0000025A500001FA500006C
:10A4E00059495C4B80220D2008701A70A2077FF535
:10A4F000D8AECFE640F20232914240F05681A988B0
:10A5000001F07F01042916D86A88A2B94E4C89004F
:10A510000C448146217841F00201217059E7012362
:10A520008B55BDE500238B55BAE5A98801F07F0165
:10A53000042940F24781444B0F221A70414A0123FB
:10A5400013706EE640287FF668AF44F002040EEB0D
:10A55000C401029E4E60AAB1444A83F8009033467B
:10A56000403888F8005040334EF834206DE702043C
:10A57000029B86F8009042F0C8020D7003444EF82A
:10A5800034205FE783F80090029B304A88F800503F
:10A59000403840334EF8342057E719F0080F0CBF0D
:10A5A000022303238B557BE5314A0F211170EAE624
:10A5B000304A5468002CBED06888B5F804E003E047
:10A5C0000C325468002CB6D013888342F8D15388DB
:10A5D0007345F5D1000A03280CBF2078108903E0E9
:10A5E000254C022022706270EA88824280F00C8141
:10A5F0000F490D78402A45F0020E944607EBCE0035
:10A6000028BF4FF0400C04EB0C0344600293CCEBEA
:10A6100002004FEA0C484FF001090022C824E9E685
:10A620007487FF1F0000FF1F3B8BFF1F3C8BFF1F2A
:10A630006887FF1FFC86FF1F388BFF1F8C87FF1F5B
:10A64000A886FF1F94200740C020074088004000D4
:10A65000882007408020074098200740AC86FF1FD5
:10A660000087FF1F6987FF1F9886FF1FC8004000F3
:10A67000FD86FF1F087801006C87FF1F9086FF1F73
:10A680008C200740684A694C12782270ACE7684910
:10A69000684B694A02916949694C6A4D0394059671
:10A6A0004FF0000988461C4616460495206828B1DC
:10A6B000456800F05BF92846002DF9D1002323609E
:10A6C000049B30681A46002342F8293028B14568B7
:10A6D00000F04CF92846002DF9D100223260029A90
:10A6E00098F800301146002241F8042B039A029199
:10A6F000023B4FF0000122F81910032B07D8DFE8C6
:10A7000003F0340234024FF0010388F8003009F1FD
:10A710000109B9F1040F04F1040406F1040608F17B
:10A720000108C3D1484B059EDFF83091DFF8308136
:10A7300000211970012518F8013B09F8043B1A079C
:10A7400018D4AC0044F0020244F00304002347F89C
:10A75000323047F834303D4B994505F10105EAD1D7
:10A7600096F8009089F0010233E64FF0000388F874
:10A770000030CCE700F0DAF8AC0007EB451300F14D
:10A780000802002837D05A60314B47F8343000F0C7
:10A79000CDF844F0010307EBC30200F1080100B358
:10A7A00051602C4A47F83320CCE7B1F5A06F7FF415
:10A7B000C2AE00224FF001090BE642F22132914273
:10A7C000F7D0B8E66A88002A7FF4B5AE224C89003B
:10A7D0000C448146217821F002012170F9E5022024
:10A7E00002E7194B44F001021B7847F83200164A81
:10A7F00001331370A6E7144B134A1B78AC000133E6
:10A8000047F834001370C2E74028844628BF4FF051
:10A81000400C04EB0C03CCEB00004FEA0C48029315
:10A8200000224FF00109D9E57487FF1F6C87FF1FD5
:10A830005087FF1FEC86FF1F4087FF1F7887FF1F91
:10A84000308BFF1F9886FF1F6987FF1FD4200740AA
:10A8500088004000C8004000C0200740C4200740D6
:10A86000047801002DE9F843244C01F0B1F80022EE
:10A8700004F1880023461A605A60083383424FF07F
:10A880000001F8D11E481F4A0368DFF890E01E4F10
:10A890001E4D1F4EDFF88880DFF888C0DFF88890F3
:10A8A00043F48023036013681A4843F04073136035
:10A8B000C4F307238EF80030C4F307433B70240E23
:10A8C000FF2302F5C9222C7002F5847288F800304B
:10A8D000114D8CF800303370012389F80030702658
:10A8E0008EF864104FF40014102107F82C3C2E70E1
:10A8F000046011700EF1640EBDE8F8830000FF1FC4
:10A900003480044000D80040B0200740B420074005
:10A910001020074004E100E035E400E09C200740FF
:10A9200080200740882007409420074072B60D48D9
:10A930000268B2FA82F30B2B10DC4FF00041D940D1
:10A9400022EA0102026062B6074803EBC303DB00A0
:10A95000C2180021C15010465160704762B60020F5
:10A96000704700BF6C0CFF1FD003FF1F0D4B0E4A3A
:10A97000C31AA2FB03231B090B2B0CD80B4A12781A
:10A9800052B972B60A484FF00041026821FA03F347
:10A990001A43026062B67047064A1278002AF0D065
:10A9A000FFF7B0BAD003FF1F398EE3386987FF1F66
:10A9B0006C0CFF1F7487FF1F38B50F4D286878B1E6
:10A9C00043880288C118013393420C7A02D2438033
:10A9D000204638BDFFF7CAFF002320462B6038BD54
:10A9E000064B1B782BB10320FFF758FA286000288C
:10A9F000E6D14FF0FF3038BD8887FF1F7487FF1FF7
:10AA000010B5094C206818B143881844007A10BD6D
:10AA1000064B1B782BB10320FFF740FA206000287B
:10AA2000F2D14FF0FF3010BD8887FF1F7487FF1FE2
:10AA3000044B054A1B6890881BB11A885B88D31A9F
:10AA4000184470478887FF1F308BFF1F0B4B1B7804
:10AA50009BB110B50A4C206848B1FFF787FF00236F
:10AA600003202360FFF71AFA30B1FFF77FFF0320BE
:10AA7000FFF714FA0028F8D110BD70477487FF1F44
:10AA80008887FF1F2DE9F04FDFF8F89083B001228F
:10AA900089F80020019169B3DFF8EC80364F019E00
:10AAA0008346D8F80000B0B3344D4488C4F1400167
:10AAB000B14228BF314604EB010E00221FFA8EFE80
:10AAC0002A70761AA0F802E000F1080251B1013CA8
:10AAD000224459441BF8014B02F8014F8B45F9D130
:10AAE000B0F802E0BEF13F0F0BD8254A05211170E6
:10AAF000002ED6D10198002389F8003003B0BDE8BC
:10AB0000F08F4022028001460420FFF73DFA002228
:10AB1000C8F80020E9E73A782AB3184D4FF6D9640F
:10AB20004FF0010A07E0013C16D02A78A2B900F0E4
:10AB300035FB3A78BAB10420FFF7CEF90728F2D8EE
:10AB400089F800A0FFF7F2FEC8F800000028ACD199
:10AB50000C4B013C1870E8D101234FF0FF302B70F3
:10AB600003B0BDE8F08F00234FF0FF3089F80030CC
:10AB700003B0BDE8F08F00BF7487FF1F8487FF1FFD
:10AB80007C87FF1F7D87FF1F8087FF1F00B583B075
:10AB900002AB012103F8010D1846FFF773FF03B064
:10ABA0005DF804FB38B50E4D0E4C28680123237068
:10ABB00028B1408800232370C0F1400038BD0A4B03
:10ABC0001B7813B90020207038BD0420FFF784F9EA
:10ABD0000728F7D8FFF7AAFE28600028E9D1F1E797
:10ABE0008087FF1F7D87FF1F7487FF1FF8B5114BFC
:10ABF0001B788BB1104E114D346801272F7064B152
:10AC00000F4A638800271770214623800420FFF72E
:10AC1000BBF9376000232B70F8BDFFF787FE084BA8
:10AC200028B1014604201C70FFF7AEF9F2E71F704F
:10AC3000F0E700BF7487FF1F8087FF1F7D87FF1F1E
:10AC40007C87FF1F38B50E4B1B7873B90D4C2168FC
:10AC500061B103F0FF054B880B800420FFF794F9E6
:10AC6000256038BD084B01221A7038BDFFF75EFE23
:10AC70000028F7D00146BDE838400420FFF784B92A
:10AC80007D87FF1F8087FF1F7C87FF1F10B4EFF3B6
:10AC9000108272B6437F33B9017F012908D003299E
:10ACA00010D00123437702B962B65DF8044B7047B8
:10ACB000114C2168A1B1114943610B68836108609F
:10ACC0005861EEE70E4C216881B10E4943610B6873
:10ACD0008361086058610C4B4FF080511960E0E7C8
:10ACE000064B4161816120601860DAE7054B4161E4
:10ACF000816120601860EEE7A087FF1F9C87FF1F1F
:10AD00009087FF1F9487FF1F04ED00E070B5EFF3FD
:10AD1000108272B60C4C206880B10C4E002543693D
:10AD2000236073B19D6102B962B645778368984725
:10AD3000EFF3108272B620680028F0D102B962B633
:10AD400070BD3360EFE700BF9087FF1F9487FF1F40
:10AD5000FFF7DCBF184A30B41468002C27D0036812
:10AD600021688B420ED2CB1A00218460C16023601F
:10AD7000E06010600223037530BC704711688B429D
:10AD8000144608D3A2685B1A0360002AF6D18260D9
:10AD9000C460A060EEE7D268C2608460E060C5680D
:10ADA000CB1A0222A8602360027530BC7047846011
:10ADB000C4601060DEE700BF9887FF1FF8B5224E21
:10ADC00034682CB32368002B3AD1204F1D4604E091
:10ADD0003468ECB12368002B32D1A36803B1DD6085
:10ADE00020693360036825751B68BB4221D1037F4E
:10ADF0004560022BC46020D0FFF748FF6368002B3A
:10AE0000E6D023602046FFF7A5FF3468002CE1D18F
:10AE1000EFF3108372B60E4A00211068116003B977
:10AE200062B628B18468FFF795FF20460028F9D163
:10AE3000F8BD224600219847E0E783689847DDE7A0
:10AE4000013B2360E4E700BF9887FF1F61720000A9
:10AE5000A887FF1F024A136801331360FFF7AEBFD4
:10AE60009086FF1F00B5064A036812885B6883B0AE
:10AE700001A9ADF804200222984703B05DF804FB55
:10AE8000D877010010B5036814465B6898472046E0
:10AE900010BD00BF0EB400B582B003AA52F8041B67
:10AEA000019206F0E1FA02B05DF804EB03B07047DE
:10AEB00070B4002303730360436083600E684D68C1
:10AEC0008C688460066045600B604B608B6070BC72
:10AED000704700BF10B50446006801F031FB204602
:10AEE00010BD00BF38B543688B4201D3012038BD87
:10AEF0000D4604460131006801F032FF0028F6D00B
:10AF0000A36884E82100002BF0D10370EEE700BFB6
:10AF1000F8B50446154632B9036803B11A70002328
:10AF2000A3602046F8BD0E461146FFF7DBFF07463B
:10AF300048B9206810B101F003FB2760002363606B
:10AF4000A3602046F8BDA5603146206802F086FB6C
:10AF5000E7E700BF38B50023044603604360836021
:10AF6000037341B108460D4602F0EAFB294602464A
:10AF70002046FFF7CDFF204638BD00BF00238842A2
:10AF800010B50446036043608360037303D08A688E
:10AF90000968FFF7BDFF204610BD00BF38B5054664
:10AFA00008460C4602F0CCFB214602462846BDE886
:10AFB0003840FFF7ADBF00BF38B5054600680C4606
:10AFC00028B16A688B689A420CD201F0B9FA2368FA
:10AFD0006168A2682B6000236960AA6023606360D7
:10AFE000A36038BD096802F039FBA368AB60002399
:10AFF000A36038BD884210B5044601D0FFF7DCFFDE
:10B00000204610BD2DE9F84303680F46BB420446B5
:10B01000816815460AD85A18974207D2C3EB070928
:10B020004FF0010835B92046BDE8F8834FF000081D
:10B03000002DF8D04E1931462046FFF753FF002867
:10B04000F1D0B8F1000F0ED02368A0682A4603EBB8
:10B0500009011844FEF73EFB236800229A55A660BA
:10B060002046BDE8F8832068A3683946184402F0FA
:10B07000F5FAF4E738B5054641B108460C4602F04A
:10B080005FFB214602462846FFF7BCFF284638BD35
:10B09000036853B1096811B1184602F075B98068A8
:10B0A00010B118787047184670470B68002BFAD01B
:10B0B00088680028F8D018784042704708B5FFF734
:10B0C000E7FFC00F08BD00BFB2B1A9B138B58468B1
:10B0D0009C420ED9E41A013A0D469442016828BFF9
:10B0E000144619442246284602F0E8FB00232B555B
:10B0F00038BD00230B7038BD704700BF9A42F8B5C9
:10B1000004460E4602D911461A460B460021A1609C
:10B110002173B0682160824261600ED8834228BFEB
:10B1200003461D4633685F5D59553368991806D04C
:10B130002046FFF733FF33685F552046F8BDA16016
:10B140005F55FAE710B58B680446FFF7D7FF204636
:10B1500010BD00BF08B5F5F72FFBF5F72DFC00F08B
:10B160001DF8FAE701F0E4B901F0EAB901F0E8B935
:10B17000FFF76CBCFFF744BCFFF71EBCFFF758BCE1
:10B18000FFF734BDFFF70EBD08461146FFF77ABC46
:10B190000846FFF7FBBC00BF704700BF38B52C4C1A
:10B1A000237803B138BD01232370FFF741FC002849
:10B1B00042D100F0EBF800283BD100F07DF90028E7
:10B1C00034D100F00FFA70BB00F088FA40BB00F0F9
:10B1D00001FB10BB00F07AFBE0B900232370EFF312
:10B1E0000583002BDED1EFF3108172B6194B18687E
:10B1F00028B3194C227812BB45691D6001232370C6
:10B200000DB3AA6101B962B60025457783689847F6
:10B210002570C7E700F028FCDFE700F023FCD9E742
:10B2200000F01EFCD3E700F019FCCDE700F014FCA1
:10B23000C7E700F00FFCC0E7FFF7AEFFB9E7002952
:10B24000B0D162B638BD054B1D600029DCD1DAE70C
:10B25000AC87FF1FA087FF1FA487FF1F9C87FF1FCE
:10B2600030B42948294A2A4B2A4D6024E121047030
:10B2700011701B78284C082B30D00A2B27482849FE
:10B2800037D00C2B0CBF35223D2212232A602360BD
:10B2900002600B60234B24491B78244ABBB1012375
:10B2A0000B601360224B23491B78234A012B26D9BC
:10B2B000042B0FD9082B1ED9102B94BF862387236C
:10B2C0000B6013601D4B01221A7030BC70470B607D
:10B2D0001360E7E784230B601360F3E700F58E202B
:10B2E0000F490830012213232A60236002600B609B
:10B2F000D0E73922F7E785230B601360E2E780236C
:10B300000B601360DEE700BF0040074001400740CC
:10B31000800CFF1F08B003400CB0034008B00B4086
:10B320000CB00B40AE87FF1F20B0034020B00B4095
:10B33000810CFF1F24B0034024B00B40AD87FF1FDA
:10B34000F0B44D1E2E46002400E00134B0FBF2F3B1
:10B3500002FB1300092800F130078ABF3730F8B22A
:10B36000C0B206F8010F1846002BEED10A1953702F
:10B370004CB1107815F8016F28700133E01A834240
:10B3800002F80169F5DB0846F0BC7047054A064B38
:10B3900010781B78C0B2DBB2984238BF4030C01A78
:10B3A000704700BFB487FF1FB587FF1FF0B4384B4D
:10B3B0001A7912F0300F2CD072B6997D01F0FF028D
:10B3C00000293DD062B6334F334938780D78334E7B
:10B3D0001C46C0B2EDB2431C402BE17928BF0023CC
:10B3E000AB4202F1FF32C9B21CBFF154184612F051
:10B3F000FF02F0D12A4B1B68C2B23A704BB1A8428F
:10B4000036BFC5F14005401B40192728C4BF0122A3
:10B410001A701F49CA78D2B2150616D452060DD535
:10B420001B4B1B795B0609D51E4B1F491B6800226D
:10B430000A7003B11A70164B3C22DA70F0BC7047E8
:10B440004022D9795A7462B6E3E70B791C06E5D538
:10B45000164B174E1C783378E4B2DBB29C420ED008
:10B46000144D01E0A3420AD00133402B28BF002332
:10B470000879E85CC0B2C871087D0728F2D9DBB250
:10B48000034933700B79180644BF7C23CB70C5E7A2
:10B4900000A00640B487FF1FB587FF1FF887FF1F76
:10B4A000B087FF1F3C88FF1F3888FF1F4088FF1FA1
:10B4B0003988FF1FB887FF1F054A064B10781B7895
:10B4C000C0B2DBB2984238BF4030C01A704700BFEC
:10B4D000B488FF1F4988FF1FF0B4384B1A7912F067
:10B4E000300F2CD072B6997D01F0FF0200293DD0BB
:10B4F00062B6334F334938780D78334E1C46C0B2AC
:10B50000EDB2431C402BE17928BF0023AB4202F18E
:10B51000FF32C9B21CBFF154184612F0FF02F0D13D
:10B520002A4B1B68C2B23A704BB1A84236BFC5F174
:10B530004005401B40192728C4BF01221A701F492B
:10B54000CA78D2B2150616D452060DD51B4B1B79FC
:10B550005B0609D51E4B1F491B6800220A7003B108
:10B560001A70164B3C22DA70F0BC70474022D97931
:10B570005A7462B6E3E70B791C06E5D5164B174EF5
:10B580001C783378E4B2DBB29C420ED0144D01E05B
:10B59000A3420AD00133282B28BF00230879E85C96
:10B5A000C0B2C871087D0728F2D9DBB203493370F5
:10B5B0000B79180644BF7C23CB70C5E700B006406A
:10B5C000B488FF1F4988FF1F7488FF1F4488FF1F2E
:10B5D000B888FF1F4888FF1FBC88FF1FB588FF1F62
:10B5E0004C88FF1F054A064B10781B78C0B2DBB2AF
:10B5F000984238BF4030C01A704700BFC488FF1F50
:10B60000C588FF1F30B42B4B1A7994061FD52A48E2
:10B61000DA790378294901333F2B0978C8BF002321
:10B620008B42D2B203D0264CD9B2E2540170254AE3
:10B63000116861B1244A1278D2B2934236BFC2F186
:10B6400040029B1A9B18272BC4BF01230B70194A79
:10B65000D378DBB2180611D45A060DD5154B1B79D9
:10B660005B0609D5194B1A491B6800220A7003B101
:10B670001A70104B2C22DA7030BC70471179090611
:10B68000EAD5144910480C780178C9B28C420DD023
:10B690004A1C272A84BF00210A460F4D054C98BF3B
:10B6A000D1B2AA5CD2B2E2710170D5E76C21D1703F
:10B6B000D2E700BF00C00640C488FF1FC588FF1F37
:10B6C000F088FF1FC088FF1F3189FF1F3489FF1FCB
:10B6D0003089FF1F3889FF1FC888FF1F054A064BA6
:10B6E00010781B78C0B2DBB2984238BF4030C01A25
:10B6F000704700BF4089FF1F4189FF1F30B42B4BAB
:10B700001A7994061FD52A48DA7903782949013332
:10B710003F2B0978C8BF00238B42D2B203D0264CFE
:10B72000D9B2E2540170254A116861B1244A1278F5
:10B73000D2B2934236BFC2F140029B1A9B18272B0C
:10B74000C4BF01230B70194AD378DBB2180611D499
:10B750005A060DD5154B1B795B0609D5194B1A49AD
:10B760001B6800220A7003B11A70104B2C22DA7089
:10B7700030BC704711790906EAD5144910480C7895
:10B780000178C9B28C420DD04A1C272A84BF0021FF
:10B790000A460F4D054C98BFD1B2AA5CD2B2E271F5
:10B7A0000170D5E76C21D170D2E700BF00D0064010
:10B7B0004089FF1F4189FF1F6C89FF1F3C89FF1FC4
:10B7C000AD89FF1FB089FF1FAC89FF1FB489FF1F20
:10B7D0004489FF1F054A064B10781B78C0B2DBB2C4
:10B7E000984238BF4030C01A704700BFBC89FF1F65
:10B7F000BD89FF1F30B42B4B1A7994061FD52A48F8
:10B80000DA790378294901333F2B0978C8BF00232F
:10B810008B42D2B203D0264CD9B2E2540170254AF1
:10B82000116861B1244A1278D2B2934236BFC2F194
:10B8300040029B1A9B18272BC4BF01230B70194A87
:10B84000D378DBB2180611D45A060DD5154B1B79E7
:10B850005B0609D5194B1A491B6800220A7003B10F
:10B860001A70104B2C22DA7030BC7047117909061F
:10B87000EAD5144910480C780178C9B28C420DD031
:10B880004A1C272A84BF00210A460F4D054C98BF49
:10B89000D1B2AA5CD2B2E2710170D5E76C21D1704D
:10B8A000D2E700BF00A00E40BC89FF1FBD89FF1F6B
:10B8B000E889FF1FB889FF1F298AFF1F2C8AFF1FF5
:10B8C000288AFF1F308AFF1FC089FF1F054A064BC9
:10B8D00010781B78C0B2DBB2984238BF4030C01A33
:10B8E000704700BF388AFF1F398AFF1F30B42C4BC6
:10B8F0005A6894021FD52B48DA6803782A49013325
:10B900003F2B0978C8BF00238B4204D0274CD2B20A
:10B91000D9B2E2540170264A116861B1254A127801
:10B92000D2B2934236BFC2F140029B1A9B18272B1A
:10B93000C4BF01230B701A4A9368180202D55268DB
:10B94000110211D45A020DD5154B5B685B0209D563
:10B95000194B1A491B6800220A7003B11A70184B60
:10B9600000221A6030BC7047164A124910780A78D3
:10B97000D2B290420DD00132272A84BF0020024665
:10B98000114D074C98BFD0B2AA5CD2B2E2600870E9
:10B99000D8E70E480A4A0024012104601160D1E76B
:10B9A00000400C40388AFF1F398AFF1F648AFF1F3E
:10B9B000348AFF1FA58AFF1FA88AFF1FA48AFF1FC2
:10B9C00058018843AC8AFF1F3C8AFF1F5C018843F3
:10B9D00010B584B072B6FDF7F1FF184A184B19493B
:10B9E0001160702280211A701A46197013781B0694
:10B9F000FCD5154B1C68FDF7FBFF62B6134B9C4250
:10BA00009CBF04EB840464002046114C01A90A2267
:10BA1000FFF796FC01A92046002311F8012B013302
:10BA20003AB10A2B20F8022FF7D11623237004B065
:10BA300010BD5B00DBB2237004B010BD04000240F7
:10BA400000000240000007410C0002407F96980071
:10BA5000100DFF1F704700BF704700BF704700BF49
:10BA6000704700BF704700BF704700BF81F00041C2
:10BA700002E000BF83F0004330B54FEA41044FEAD3
:10BA8000430594EA050F08BF90EA020F1FBF54EA6E
:10BA9000000C55EA020C7FEA645C7FEA655C00F00A
:10BAA000E2804FEA5454D4EB5555B8BF6D420CDDDB
:10BAB0002C4480EA020281EA030382EA000083EA5E
:10BAC000010180EA020281EA0303362D88BF30BDFE
:10BAD00011F0004F4FEA01314FF4801C4CEA113154
:10BAE00002D0404261EB410113F0004F4FEA0333B3
:10BAF0004CEA133302D0524263EB430394EA050F3E
:10BB000000F0A780A4F10104D5F1200E0DDB02FAAC
:10BB10000EFC22FA05F2801841F1000103FA0EF240
:10BB2000801843FA05F359410EE0A5F120050EF106
:10BB3000200E012A03FA0EFC28BF4CF0020C43FA37
:10BB400005F3C01851EBE37101F0004507D54FF044
:10BB5000000EDCF1000C7EEB00006EEB0101B1F594
:10BB6000801F1BD3B1F5001F0CD349085FEA3000DA
:10BB70004FEA3C0C04F101044FEA445212F5800FE5
:10BB800080F09A80BCF1004F08BF5FEA500C50F182
:10BB9000000041EB045141EA050130BD5FEA4C0C65
:10BBA000404141EB010111F4801FA4F10104E9D1EE
:10BBB00091F0000F04BF01460020B1FA81F308BFE5
:10BBC0002033A3F10B03B3F120020CDA0C3208DDB1
:10BBD00002F1140CC2F10C0201FA0CF021FA02F18C
:10BBE0000CE002F11402D8BFC2F1200C01FA02F1FC
:10BBF00020FA0CFCDCBF41EA0C019040E41AA2BF21
:10BC000001EB0451294330BD6FEA04041F3C1CDAE8
:10BC10000C340EDC04F11404C4F1200220FA04F008
:10BC200001FA02F340EA030021FA04F345EA0301B2
:10BC300030BDC4F10C04C4F1200220FA02F001FA74
:10BC400004F340EA0300294630BD21FA04F02946F6
:10BC500030BD94F0000F83F4801306BF81F480118F
:10BC60000134013D4EE77FEA645C18BF7FEA655C02
:10BC700029D094EA050F08BF90EA020F05D054EAD4
:10BC8000000C04BF1946104630BD91EA030F1EBFD9
:10BC90000021002030BD5FEA545C05D140004941DD
:10BCA00028BF41F0004130BD14F580043CBF01F5D0
:10BCB000801130BD01F0004545F0FE4141F47001B6
:10BCC0004FF0000030BD7FEA645C1ABF1946104691
:10BCD0007FEA655C1CBF0B46024650EA013406BF92
:10BCE00052EA033591EA030F41F4002130BD00BF51
:10BCF00090F0000F04BF0021704730B54FF480640E
:10BD000004F132044FF000054FF0000150E700BF8E
:10BD100090F0000F04BF0021704730B54FF48064ED
:10BD200004F1320410F0004548BF40424FF00001DA
:10BD30003EE700BF42004FEAE2014FEA31014FEA1D
:10BD400002701FBF12F07F4393F07F4F81F060516C
:10BD5000704792F0000F14BF93F07F4F704730B5DB
:10BD60004FF4607401F0004521F0004120E700BF6E
:10BD700050EA010208BF704730B54FF000050AE0F5
:10BD800050EA010208BF704730B511F0004502D5F6
:10BD9000404261EB41014FF4806404F132045FEAF8
:10BDA000915C3FF4DCAE4FF003025FEADC0C18BF9D
:10BDB00003325FEADC0C18BF033202EBDC02C2F193
:10BDC000200300FA03FC20FA02F001FA03FE40EA25
:10BDD0000E0021FA02F11444C1E600BF70B54FF025
:10BDE000FF0C4CF4E06C1CEA11541DBF1CEA135507
:10BDF00094EA0C0F95EA0C0F00F0DEF82C4481EA6F
:10BE0000030621EA4C5123EA4C5350EA013518BF8E
:10BE100052EA033541F4801143F4801338D0A0FB7B
:10BE200002CE4FF00005E1FB02E506F00042E0FB28
:10BE300003E54FF00006E1FB03569CF0000F18BF2E
:10BE40004EF0010EA4F1FF04B6F5007F64F54074D6
:10BE500004D25FEA4E0E6D4146EB060642EAC62169
:10BE600041EA55514FEAC52040EA5E504FEACE2ED6
:10BE7000B4F1FD0C88BFBCF5E06F1ED8BEF1004FD9
:10BE800008BF5FEA500E50F1000041EB045170BD55
:10BE900006F0004646EA010140EA020081EA030199
:10BEA000B4EB5C04C2BFD4EB0C0541EA045170BD95
:10BEB00041F480114FF0000E013C00F3AB8014F10F
:10BEC000360FDEBF002001F0004170BDC4F1000458
:10BED000203C35DA0C341BDC04F11404C4F12005D9
:10BEE00000FA05F320FA04F001FA05F240EA020034
:10BEF00001F0004221F0004110EBD37021FA04F66A
:10BF000042EB06015EEA430E08BF20EAD37070BD23
:10BF1000C4F10C04C4F1200500FA04F320FA05F082
:10BF200001FA04F240EA020001F0004110EBD37084
:10BF300041F100015EEA430E08BF20EAD37070BDF4
:10BF4000C4F1200500FA05F24EEA020E20FA04F3CD
:10BF500001FA05F243EA020321FA04F001F000417C
:10BF600021FA04F220EA020000EBD3705EEA430EED
:10BF700008BF20EAD37070BD94F0000F0FD101F01C
:10BF80000046400041EB010111F4801F08BF013C55
:10BF9000F7D041EA060195F0000F18BF704703F093
:10BFA0000046520043EB030313F4801F08BF013D1A
:10BFB000F7D043EA0603704794EA0C0F0CEA1355D6
:10BFC00018BF95EA0C0F0CD050EA410618BF52EA90
:10BFD0004306D1D181EA030101F000414FF0000096
:10BFE00070BD50EA410606BF1046194652EA4306A4
:10BFF00019D094EA0C0F02D150EA013613D195EA18
:10C000000C0F05D152EA03361CBF104619460AD15F
:10C0100081EA030101F0004141F0FE4141F4700169
:10C020004FF0000070BD41F0FE4141F4780170BD59
:10C0300070B54FF0FF0C4CF4E06C1CEA11541DBFBE
:10C040001CEA135594EA0C0F95EA0C0F00F0A7F8C0
:10C05000A4EB050481EA030E52EA03354FEA0131ED
:10C0600000F088804FEA03334FF0805545EA131300
:10C0700043EA12634FEA022245EA111545EA1065C8
:10C080004FEA00260EF000419D4208BF964244F15F
:10C09000FD0404F5407402D25B084FEA3202B61A7E
:10C0A00065EB03055B084FEA32024FF480104FF452
:10C0B000002CB6EB020E75EB030E22BFB61A7546C6
:10C0C00040EA0C005B084FEA3202B6EB020E75EB59
:10C0D000030E22BFB61A754640EA5C005B084FEAC1
:10C0E0003202B6EB020E75EB030E22BFB61A75468E
:10C0F00040EA9C005B084FEA3202B6EB020E75EB99
:10C10000030E22BFB61A754640EADC0055EA060E59
:10C1100018D04FEA051545EA16754FEA06164FEA9C
:10C12000C30343EA52734FEAC2025FEA1C1CC0D148
:10C1300011F4801F0BD141EA00014FF000004FF0D5
:10C14000004CB6E711F4801F04BF01430020B4F196
:10C15000FD0C88BFBCF5E06F3FF6AFAEB5EB030C4E
:10C1600004BFB6EB020C5FEA500C50F1000041EB4B
:10C17000045170BD0EF0004E4EEA113114EB5C0418
:10C18000C2BFD4EB0C0541EA045170BD41F48011EB
:10C190004FF0000E013C90E645EA060E8DE60CEAF3
:10C1A000135594EA0C0F08BF95EA0C0F3FF43BAF10
:10C1B00094EA0C0F0AD150EA01347FF434AF95EAC7
:10C1C0000C0F7FF425AF104619462CE795EA0C0FAB
:10C1D00006D152EA03353FF4FDAE1046194622E778
:10C1E00050EA410618BF52EA43067FF4C5AE50EA52
:10C1F00041047FF40DAF52EA43057FF4EBAE12E742
:10C200004FF0FF3C06E000BF4FF0010C02E000BF22
:10C210004FF0010C4DF804CD4FEA410C7FEA6C5C05
:10C220004FEA430C18BF7FEA6C5C1BD001B050EAA8
:10C23000410C0CBF52EA430C91EA030F02BF90EA93
:10C24000020F0020704710F1000F91EA030F58BF52
:10C25000994208BF90422CBFD8176FEAE37040F0B4
:10C26000010070474FEA410C7FEA6C5C02D150EA52
:10C27000013C07D14FEA430C7FEA6C5CD6D152EA0D
:10C28000033CD3D05DF8040B704700BF84461046D2
:10C2900062468C461946634600E000BF01B5FFF7D1
:10C2A000B7FF002848BF10F1000F01BD4DF808EDA1
:10C2B000FFF7F4FF0CBF012000205DF808FB00BF72
:10C2C0004DF808EDFFF7EAFF34BF012000205DF8CC
:10C2D00008FB00BF4DF808EDFFF7E0FF94BF012019
:10C2E00000205DF808FB00BF4DF808EDFFF7CEFF1A
:10C2F00094BF012000205DF808FB00BF4DF808ED59
:10C30000FFF7C4FF34BF012000205DF808FB00BF29
:10C310004FEA410C7FEA6C5C02D150EA013C0AD141
:10C320004FEA430C7FEA6C5C02D152EA033C02D133
:10C330004FF0000070474FF0010070474FEA410294
:10C3400012F5001215D211D56FF47873B3EB625267
:10C3500012D94FEAC12343F0004343EA505311F08E
:10C36000004F23FA02F018BF404270474FF0000020
:10C37000704750EA013005D111F0004008BF6FF05E
:10C38000004070474FF00000704700BF4A0011D2D4
:10C3900012F5001211D20DD56FF47873B3EB62521F
:10C3A0000ED44FEAC12343F0004343EA505323FA2B
:10C3B00002F070474FF00000704750EA013002D1A0
:10C3C0004FF0FF3070474FF0000070474FEA4102D6
:10C3D000B2F1E04324BFB3F5001CDCF1FE5C0DD9E3
:10C3E00001F0004C4FEAC0024CEA5070B2F1004F2D
:10C3F00040EB830008BF20F00100704711F0804F30
:10C4000021D113F13872BCBF01F00040704741F4F4
:10C4100080114FEA5252C2F11802C2F1200C10FAF8
:10C420000CF320FA02F018BF40F001004FEAC123DC
:10C430004FEAD32303FA0CFC40EA0C0023FA02F380
:10C440004FEA4303CCE77FEA625307D150EA013356
:10C450001EBF4FF0FE4040F44000704701F0004026
:10C4600040F0FE4040F40000704700BF0B4601461C
:10C47000184600F001B800BF13460A4601460220E4
:10C4800005F06CB8014B1868704700BF5011FF1FD2
:10C4900070B50F4E0F4D761BB61018BF002405D097
:10C4A000013455F8043B9847A642F9D10A4E0B4D8A
:10C4B000761B0BF0DBFBB61018BF002406D001344E
:10C4C00055F8043B9847A642F9D170BD70BD00BF36
:10C4D000787C0100787C0100907C0100787C010070
:10C4E000034A044B1268506B002808BF1846704777
:10C4F0005011FF1F5411FF1F044B054A1B685B6B53
:10C50000002B08BF134693F8280170475011FF1FF6
:10C510005411FF1FD0F8EC00704700BF08B5034B63
:10C520001868FFF7DDFFD0F8EC0008BD5011FF1FC1
:10C53000024B0146186800F00BB800BF5011FF1FF6
:10C54000024B0146186806F07BB800BF5011FF1F70
:10C550002DE9F04F01F10B05162D83B0064640F290
:10C560009F8035F0070500F1BF80A94200F2BC8032
:10C5700000F0F2FBB5F5FC7FC0F09C826B0A00F086
:10C58000BA80042B00F28381A80900F1390E4FEA2A
:10C590004E033830C44F07EB8303A3F108015C68F6
:10C5A000A14207D1ACE0002A80F2AC80E468A1424D
:10C5B00000F0A680636823F003035A1B0F2AF2DD04
:10C5C000B9493C6901F1080E744500F0B381636814
:10C5D00023F003035A1B0F2A00F39981002AC1F8A4
:10C5E00014E0C1F810E080F29E80B3F5007F80F087
:10C5F0006781DB0803F1010C01229B1002FA03F3AF
:10C600004A6851F83C80C4F8088001EBCC091A4311
:10C61000A9F10803E3604A6041F83C40C8F80C40C7
:10C62000831001249C40944200F28A80144206D177
:10C6300020F003006400144200F10400FAD007EB7C
:10C64000C009CC468046DCF80C108C4507D173E15C
:10C65000002A80F28181C9688C4500F06D814B68A9
:10C6600023F003035A1B0F2AF2DD0C46D1F80CC04D
:10C6700054F8088F4B1945F001054D6042F0010157
:10C68000C8F80CC03046CCF808807B613B61C3F829
:10C690000CE0C3F808E059609A5000F05FFB1FE01F
:10C6A000102921D800F058FB1025062302207E4FC8
:10C6B00007EB8303A3F108025C68944200F0458114
:10C6C0006368E168A56823F00303234430465A6891
:10C6D000E96042F001028D605A6000F03FFB0834CF
:10C6E000204603B0BDE8F08F00240C2320463360C1
:10C6F00003B0BDE8F08F80234FF0400E3F2049E7A4
:10C7000070465DE72344E1685A68A56842F001027B
:10C71000E96030468D605A6000F020FB0834204606
:10C7200003B0BDE8F08F234430465A6842F001025E
:10C730005A6000F013FB0834204603B0BDE8F08FC8
:10C74000BC68636823F00308A84504D3C5EB08035D
:10C750000F2B00F38C80554BDFF860911A68D9F8E5
:10C76000003001332A4404EB080A00F0608102F52E
:10C7700080520F3222F47F6222F00F0211463046BF
:10C78000019200F0E5FCB0F1FF3F8346019A00F012
:10C790005881824500F2FC80454B1968DA45114406
:10C7A000196000F05381D9F80000DFF810E1013082
:10C7B0001BBFCAEB0B0A5144CEF800B019601BF046
:10C7C000070100F01781C1F10800C1F580518344D1
:10C7D00008315A44C2F30B02C2EB01094946304604
:10C7E000019300F0B5FC431C019B00F03F81CBEBB3
:10C7F00000024A4442F001021968C7F808B04944EF
:10C80000BC42CBF804201960DFF8A49016D0B8F130
:10C810000F0F40F2FD806268A8F10C0323F00703BC
:10C82000E01802F001024FF0050E1A430F2B626070
:10C83000C0F804E0C0F808E000F21C811D4BBC68A1
:10C840001A68914288BF19601B4B1A68914262684E
:10C8500088BF196022F003029542A2EB050301D8BC
:10C860000F2B04DC304600F079FA002438E7621917
:10C8700043F0010345F0010565603046BA6053603E
:10C8800000F06CFA0834204603B0BDE8F08F142B9A
:10C8900071D9542B00F2A480280B00F16F0E4FEADF
:10C8A0004E036E3076E600BFC012FF1FB88AFF1F2E
:10C8B000BC8AFF1FB48AFF1FB08AFF1FCC16FF1F60
:10C8C0005A0A042A5ED9142A00F2B38002F15C01EC
:10C8D00049005B3207EB810C57F82110DFF8DC814F
:10C8E000ACF1080C8C4500F088804A6822F0030205
:10C8F000934202D289688C45F7D1D1F80CC07A688E
:10C90000C4F80CC0A160CCF80840CC6088E663197C
:10C9100042F0010745F00105656030464B610B614F
:10C92000C3F80CE0C3F808E05F609A50083400F0E8
:10C9300015FAD5E64A6873E608F1010818F0030F06
:10C940000CF1080C7FF47FAE30E0DC68A34208BF36
:10C9500002303FF435AEB3E60B440C465A68C96862
:10C9600054F8085F42F001025A603046E9608D6079
:10C9700000F0F4F9B4E603F15C0E03F15B004FEA5A
:10C980004E0307E69A0902F1390149003832A1E75E
:10C99000BC424A4B3FF400AF9C68626822F003023D
:10C9A0005AE759F80839994540F0828010F0030F92
:10C9B00000F1FF30F5D17B6823EA04037B6064005B
:10C9C0009C423FF6BDAE002C3FF4BAAE1C4240463E
:10C9D0007FF435AE64001C4200F10400FAD02EE66C
:10C9E000B3F5AA7F18D8E80B00F1780E4FEA4E0392
:10C9F0007730CFE54FF48051EBE60121D8F80430D1
:10CA0000921001FA02F21A43C8F80420614677E74F
:10CA10000123CBF8043025E740F25452934220D84A
:10CA2000A80C00F17D0E4FEA4E037C30B2E51032C7
:10CA3000A4E6542A26D81A0B02F16F0149006E327F
:10CA400048E7BC68626822F0030205E7CAF30B00FE
:10CA500000287FF4A8AE4244BB6842F001025A604D
:10CA6000ECE6FE234FF07F0E7E2093E501224FF08F
:10CA70000009C1E604F10801304605F0E1FDD9F8EE
:10CA80000010DBE6B2F5AA7F05D8DA0B02F17801D7
:10CA9000490077321EE740F254518A4205D89A0C79
:10CAA00002F17D0149007C3214E7FE217E2211E76C
:10CAB0007B6884E7E808431C5B00F8E5C012FF1FB1
:10CAC00082B049B15AB16BB113780B601278101C67
:10CAD00018BF012002B0704701A9002AF3D1104607
:10CAE00002B070476FF00100F4E700BFFFFFFFFFE7
:10CAF00001F0FF01102A2BDB10F0070F08D010F80F
:10CB0000013B013A8B422DD010F0070F42B3F6D112
:10CB1000F0B441EA012141EA014122F007047FF02B
:10CB200000070023F0E80256083C85EA010586EA82
:10CB3000010685FA47F5A3FA87F586FA47F6A5FABE
:10CB400087F68EB9EED1F0BC01F0FF0102F00702CA
:10CB500032B110F8013B013A83EA010313B1F8D175
:10CB60000020704701387047002D06BF3546033856
:10CB7000073815F0010F07D1013015F4807F02BF8F
:10CB8000013015F4C03F0130F0BC0138704700BFE0
:10CB9000032A70B426D940EA01039B0711D0047818
:10CBA0000D78AC4222D10244431C05E013F8014B3E
:10CBB00011F8015FAC4219D19342F7D1002070BC4B
:10CBC00070470C4603461E682568AE42184621464B
:10CBD00003F1040304F10404E1D1043A032A1846E2
:10CBE0002146F0D8002ADAD11046E8E7601B70BC75
:10CBF000704700BF8842F0B50DD98B1898420AD211
:10CC00008118002A51D09A1A13F8014D01F8014DEC
:10CC10009342F9D1F0BD0F2A48D941EA00039B079E
:10CC200046D100F1100401F11003154653F8106CC1
:10CC300044F8106C53F80C6C44F80C6C53F8086C06
:10CC400044F8086C103D53F8046C44F8046C0F2D44
:10CC500003F1100304F11004E8D8A2F1100323F04B
:10CC60000F0302F00F0E1033BEF1030F19440344FB
:10CC700021D91E1F0D467446043C55F8047B46F826
:10CC8000047F032CF8D8AEF1040424F00304043428
:10CC90002344214402F0030262B1013B0A4411F82B
:10CCA000014B03F8014F8A42F9D1F0BD0346F3E787
:10CCB0000346F2E7F0BD7246EEE700BF70B48407AA
:10CCC00046D0541E002A41D0CDB2034602E0621E77
:10CCD000E4B3144603F8015B9A07F8D1032C2ED96C
:10CCE000CDB245EA05250F2C45EA054519D903F1D2
:10CCF00010022646103E0F2E42F8105C42F80C5CE3
:10CD000042F8085C42F8045C02F11002F2D8A4F187
:10CD1000100222F00F0204F00F041032032C13440F
:10CD20000DD91E462246043A032A46F8045BFAD877
:10CD3000221F22F003020432134404F003042CB136
:10CD4000C9B21C4403F8011BA342FBD170BC70475D
:10CD500014460346C2E700BF704700BF704700BFDC
:10CD6000024B0A460146186800F002B85011FF1F36
:10CD70002DE9F04F174683B0002900F0C1800E4620
:10CD8000814607F10B05FFF7E7FF56F804EC162D77
:10CD90002EF00304A6F1080840D810221546AF4231
:10CDA00041D8944275DAC94B996808EB040088426F
:10CDB000416800F0D98021F0010303445B68DB0780
:10CDC0007DD51EF0010F35D039464846FFF7C0FB30
:10CDD0000746E0B156F8043C23F001034344A0F1B8
:10CDE00008029A4200F04481221F242A00F2318175
:10CDF000132A00F204810346324611681960516813
:10CE0000596092689A603146484605F019FC4846D8
:10CE1000FFF7A4FF384603B0BDE8F08F25F0070503
:10CE2000002D2A46BBDA0C230020C9F8003003B0DD
:10CE3000BDE8F08F56F8083CC3EB080ADAF8043076
:10CE400023F0030C04EB0C039342BDDB5746DAF8E6
:10CE50000C1057F8080F221F242AC160886000F2C6
:10CE60001781132A40F212813168CAF808107168DC
:10CE7000CAF80C101B2A00F22B8108360AF11002A6
:10CE80003168116071685160B16891603E461C461E
:10CE9000D046631B0F2B1DD8D8F8043003F00103D4
:10CEA00023434444C8F80430636843F001036360DB
:10CEB0004846FFF753FF304603B0BDE8F08F21F03E
:10CEC00003012144914221DBC36882680C46D36090
:10CED0009A60DEE7D8F8042008EB050102F00102B1
:10CEE000154343F001020B44C8F804504A605A68E5
:10CEF00042F0010208315A60484605F0A1FBD7E72D
:10CF0000114603B0BDE8F04FFFF722BB1EF0010F42
:10CF10007FF45AAF56F8083CC3EB080ADAF804303D
:10CF200023F0030C01EB0C0E96458BDBC368826883
:10CF30005746D3609A6057F8081FDAF80C30CB6078
:10CF4000221F242A996000F29980132A62D933683B
:10CF5000CAF808307368CAF80C301B2A00F2A080A7
:10CF600008360AF1100356E021F0030BA34405F143
:10CF70001000834559DA1EF0010F7FF425AF56F8F3
:10CF8000081CC1EB080ADAF8041021F0030CE34492
:10CF900058453FF757AF5746DAF80C1057F8080FC7
:10CFA000221F242AC160886000F2B480132A40F254
:10CFB000A5803168CAF808107168CAF80C101B2ADD
:10CFC00000F2AF8008360AF1100231681160716812
:10CFD0005160B16891600AEB0501C5EB0B0242F0AC
:10CFE000010299604A60DAF8043003F001031D433E
:10CFF0004846CAF80450FFF7B1FE38465CE733688C
:10D000000360736843601B2A27D800F1080306F108
:10D010000802F2E63B4632681A6072685A60B268EB
:10D020009A603E467446D04633E708EB0501C5EBEF
:10D030000B0B4BF0010299604A6056F8043C03F078
:10D0400001031D43484646F8045CFFF787FE30465F
:10D0500032E73146FFF7CEFDD5E6B3688360F3686B
:10D06000C360242A28D000F1100306F11002C4E6A0
:10D0700050F8043C23F003031C440AE731463846C9
:10D080007446D046FFF7B6FD3E4602E73A46F7E65D
:10D09000314638461C46D046FFF7ACFD3E46F8E622
:10D0A000B368CAF81030F368CAF81430242A1BD0C9
:10D0B00010360AF11803AEE73369036173694361FF
:10D0C00006F1180200F1180397E600BFC012FF1F17
:10D0D000B168CAF81010F168CAF81410242A0FD0E9
:10D0E00010360AF11802CBE63369CAF818307369B2
:10D0F000CAF81C3018360AF120038CE73A4664E778
:10D100003269CAF818207269CAF81C2018360AF168
:10D110002002B5E6314638460193FFF76BFD019BCF
:10D1200059E7B168CAF81010F168CAF81410242A37
:10D1300003D010360AF1180247E73269CAF81820FE
:10D140007269CAF81C2018360AF120023DE700BFB8
:10D1500038B5074C0023054608462360FCF718FC49
:10D16000431C00D038BD2368002BFBD02B6038BD9A
:10D17000448BFF1F0EB4F0B59CB021AB0F4953F8A0
:10D18000042B019305466FF00044086802954FF4A4
:10D1900002774FF6FF7602A90695ADF81470049455
:10D1A0000794ADF8166001F083FE029B00221A700E
:10D1B0001CB0BDE8F04003B0704700BF5011FF1F26
:10D1C0000EB4F0B59CB021AC4FF4017254F8046B6E
:10D1D000ADF814200290069000F0B2FA0C4B0194C6
:10D1E000054632460B4F1868039523464FF6FF76E7
:10D1F000002402A907950A970E941394ADF81660BF
:10D2000003F0C8F91CB0BDE8F04003B0704700BFA0
:10D210005011FF1F19D200000020704741EA00039F
:10D220009B0710B414D10B68A3F1013222EA030268
:10D2300012F0803F0CD10C1D40F8043B214654F8FD
:10D24000043BA3F1013222EA030212F0803FF3D043
:10D25000034611F8012B184603F8012B002AF8D1D8
:10D260005DF8044B704700BF830710B5044610D12A
:10D270000268A2F1013323EA020313F0803F08D1D0
:10D2800050F8042FA2F1013323EA020313F0803F88
:10D29000F6D003781BB110F8013F002BFBD100F052
:10D2A000DDF9204610BD00BF70B411F0FF0434D08A
:10D2B00085070FD00378002B5AD09C422BD0431CFB
:10D2C00005E013F8012B002A4FD0944223D09A078F
:10D2D0001846F6D10E0206F47F462643036846EA56
:10D2E000064601E050F8043F86EA0305A5F1013245
:10D2F000A3F1013122EA050221EA0303134313F0EB
:10D30000803FEFD0037823B932E010F8013F002BC3
:10D310002ED09C42F9D170BC704784070BD00378A3
:10D32000002BF8D0431C03E002780133002AF2D02E
:10D3300099071846F8D10268A2F1013323EA0203E3
:10D3400013F0803F08D150F8042FA2F1013323EAF3
:10D35000020313F0803FF6D00378002BDBD010F8E7
:10D36000013F002BFBD170BC7047104670BC70476A
:10D37000184670BC704700BFFFFFFFFFFFFFFFFFB5
:10D38000A2EB0300704700BF02780B78012A28BF88
:10D390009A42F5D16DE9044540EA0104CDE90267FE
:10D3A0006FF0000C4FEA447212B380EA010414F0EB
:10D3B000070F6AD100F0070420F0070004F003050E
:10D3C00021F007014FEAC505F0E8042314F0040F2B
:10D3D000F1E804670CFA05F462EA040266EA04065E
:10D3E0000AD063EA0403624667EA0407664603E07C
:10D3F000F0E80423F1E8046782FA4CF582EA0604B7
:10D40000A4FA8CF46CBB83FA4CF583EA0705A5FA01
:10D410008CF595B950E9022351E9026782FA4CF57F
:10D4200082EA0604A4FA8CF483FA4CF583EA070531
:10D43000A5FA8CF52543DBD09CB92DBAB5FA85F455
:10D4400024F0070427FA04F1DDE9026723FA04F364
:10D4500003F0FF0001F0FF01FDE80445A0EB01002F
:10D46000704724BAB4FA84F424F0070426FA04F1CD
:10D47000DDE9026722FA04F202F0FF0001F0FF0189
:10D48000FDE80445A0EB0100704714F0030F3CD108
:10D4900010F0030428D150F8082B51F8083B82FA09
:10D4A0004CF582EA0305A5FA8CF55DB950F8042C19
:10D4B00051F8043C82FA4CF582EA0305A5FA8CF592
:10D4C000002DE8D02DBAB5FA85F424F0070423FA2C
:10D4D00004F122FA04F202F0FF0001F0FF01FDE87E
:10D4E0000445A0EB010070474FEAC40420F003009C
:10D4F00050F8082B21F0030151F8083B0CFA04F412
:10D5000062EA040263EA0403C9E710F003041AD0D4
:10D51000A1EB040120F00300E40750F8042B06D02F
:10D520000FD28B785FFAA2F4E41A06D12BB1CB7834
:10D530005FFAB2F4E41A00D11BB920465DF8104B33
:10D54000704701F1040150F8042BCC0721F00301CE
:10D5500051F8043B48D824D222F07F4482FA4CF59B
:10D5600094EA1325A5FA8CF50AD165B951F8043B64
:10D5700084EA0204B4EB036F0ED150F8042BEBE7FE
:10D580004FEA132355E035F07F454DD10878FDE88B
:10D590000445C0F1000070474FEA126203F0FF0338
:10D5A00047E002EA1C4482FA4CF594EA1345A5FAD6
:10D5B0008CF50AD165B951F8043B84EA0204B4EB56
:10D5C000034F0CD150F8042BEBE74FEA134330E044
:10D5D00015EA1C4528D10B884FEA124229E04FEA90
:10D5E000124203EA1C4324E002F0FF0482FA4CF5E5
:10D5F00094EA1365A5FA8CF50AD165B951F8043B94
:10D6000084EA0204B4EB032F09D150F8042BEBE7B2
:10D610004FEA13630DE015F0FF0F05D10B684FEAD9
:10D62000122223F07F4304E04FF00000FDE80445A0
:10D63000704712BA1BBA82FA4CF482EA0304A4FAC5
:10D640008CF5B5FA85F402FA04F203FA04F34FEA12
:10D650001260FDE80445A0EB1360704780EA010208
:10D66000844612F0030F4FD111F0030F32D14DF861
:10D67000044D11F0040F51F8043B0BD0A3F101321B
:10D680009A4312F0803F04BF4CF8043B51F8043B2E
:10D6900016D100BF51F8044BA3F101329A4312F0A6
:10D6A000803FA4F101320BD14CF8043BA24312F0AD
:10D6B000803F04BF51F8043B4CF8044BEAD02346AA
:10D6C0000CF8013B13F0FF0F4FEA3323F8D15DF85C
:10D6D000044B704711F0010F06D011F8012B0CF824
:10D6E000012B002A08BF704711F0020FBFD031F89C
:10D6F000022B12F0FF0F16BF2CF8022B8CF8002023
:10D7000012F47F4FB3D1704711F8012B0CF8012BA5
:10D71000002AF9D1704700BFFFFFFFFFFFFFFFFFA7
:10D72000FFFFFFFFFFFFFFFFFFFFFFFFFFFFFFFF09
:10D73000FFFFFFFFFFFFFFFFFFFFFFFFFFFFFFFFF9
:10D7400090F800F06DE9024520F007016FF0000C41
:10D7500010F0070491F820F040F049804FF00004E9
:10D760006FF00700D1E9002391F840F000F10800C4
:10D7700082FA4CF2A4FA8CF283FA4CF3A2FA8CF3FC
:10D780004BBBD1E9022382FA4CF200F10800A4FA63
:10D790008CF283FA4CF3A2FA8CF3E3B9D1E90423B7
:10D7A00082FA4CF200F10800A4FA8CF283FA4CF3EE
:10D7B000A2FA8CF37BB9D1E9062301F1200182FAA8
:10D7C0004CF200F10800A4FA8CF283FA4CF3A2FAAE
:10D7D0008CF3002BC6D0002A04BF04301A4612BABC
:10D7E000B2FA82F2FDE8024500EBD2007047D1E9BF
:10D7F000002304F00305C4F100004FEAC50514F04E
:10D80000040F91F840F00CFA05F562EA05021CBF1E
:10D8100063EA050362464FF00004A9E7002A41D0FD
:10D8200040EA010313F00303F0B425D1032A23D9FE
:10D8300004680D68AC421FD1043A35D0A4F101351B
:10D8400025EA040414F0803F31D1071D0D1D0DE0C1
:10D8500057F8043B0E68A3F10134B34224EA0304F1
:10D860000AD1043A20D014F0803F23D1032A29465C
:10D87000384605F10405EBD803780C789C4202F198
:10D88000FF320CD182B114B916E06AB17BB110F845
:10D89000013F11F8014FA34202F1FF32F5D0181BEE
:10D8A000F0BC7047104670471046F0BC70471846F1
:10D8B000F0BC70470020F3E72046F1E740EA01039F
:10D8C0009B0770B42BD1032A29D90C460346214665
:10D8D00054F8046BA6F1013525EA060515F0803FE2
:10D8E00006D1043A032A43F8046B2146EFD8A2B1CB
:10D8F0000C781C70013A013301313CB16AB111F866
:10D90000014B03F8014B013A002CF7D12AB11A441C
:10D91000002103F8011B9A42FBD170BC70470346FB
:10D92000E5E700BF71B138B503460C46002501E0BC
:10D93000431C054618462146FFF7B6FC0028F7D1E0
:10D94000284638BDFFF7B0BC2DE9F0414FF0010E7D
:10D95000744600254FF0FF362B198B4200EB06076B
:10D960000DD23F5D10F803C0BC452DD21D460124E9
:10D97000C6EB030E2B198B4200EB0607F1D34FF0D9
:10D980000108C2F800E0444600254FF0FF372B198C
:10D99000994200EB070E0ED91EF804E010F803C000
:10D9A000F44518D91D460124C7EB03082B199942E9
:10D9B00000EB070EF0D80137701C874224BFC2F875
:10D9C00000803846BDE8F0810CD04FF0010E2E46A5
:10D9D00074467544C0E70CD04FF001082F4644460A
:10D9E0004544D4E7744509BFA64601341D460124C9
:10D9F000B2E7444509BFA04601341D460124C6E7ED
:10DA00002DE9F04FADF2144D164605468B461046F3
:10DA1000194603AA1C46FFF797FF03AB81460DF298
:10DA20000C4243F8044F9342FBD14CB1631E324683
:10DA300004A812F8011B40F8213013F1FF33F8D28B
:10DA400003994A4631443046FFF7A2F8002871D1C5
:10DA500009F1FF330093F318824601932346804671
:10DA6000544658469A4608EB0A073A1A00212844B9
:10DA7000FFF73EF8002858D1002F56D0EB1904AA22
:10DA800013F8013C52F823304BB124B1039A93426E
:10DA900001D2C2EB0A03984400243846E3E74C4520
:10DAA00023460AF1FF3E38BF4B46734513D208EBBD
:10DAB000030216F803C0A85C84452A4406EB030160
:10DAC00006D02EE011F801CF12F8010F844528D1BD
:10DAD00001337345F6D34C45009980F08B80009B51
:10DAE000019808EB03020378A85C83422A4440F0C3
:10DAF0008180019B06EB040B06E013F801ED12F8A0
:10DB0000010D864504D161469B4501F1FF3CF4D1EE
:10DB100001348C4270D8039C3846A044C4EB0A04FC
:10DB2000A1E7C9F101029044B5E700200DF2144DC0
:10DB3000BDE8F08FC9EB04034B4538BF4B460133BA
:10DB400009F1FF38039306EB080358464FF0000A2B
:10DB5000CB4699460AEB04073A1A00212844FEF7FF
:10DB6000C7FF0028E1D1002FDFD0EB1904AA13F87A
:10DB7000013C52F82330A3BB611E8B4515D20AEB42
:10DB80000B0216F80B3015F802E09E452A4406EB0E
:10DB90000B005B4606D027E010F801CF12F801EF2A
:10DBA000F44521D101338B42F6D3B8F1FF3F11D0B8
:10DBB0000AEB080299F80010AB5C99422A440FD195
:10DBC0004B4605E013F8010D12F8011D884207D1FC
:10DBD000B342F7D105EB0A000DF2144DBDE8F08F0A
:10DBE000039B9A443846B5E7CBF1010292449A442C
:10DBF0003846AFE749468BE705EB080096E700BFDC
:10DC00000378002B00F004812DE9F04F91F800809B
:10DC100085B04446B8F1000F16D0864601F1010CDC
:10DC2000012703E012F8014B6CB194469C4214BFEB
:10DC3000002707F001071EF8013F6246002BF1D1D3
:10DC40009CF800300BBB17B105B0BDE8F08F0E4655
:10DC5000054641460130C6EB0C04FFF725FB07469D
:10DC600098B1012CF0D02819874294BFC7EB000B64
:10DC70004FF0010B1F2C0CD923463246594638462B
:10DC8000FFF7BEFE05B0BDE8F08F002005B0BDE88F
:10DC9000F08F03AA21463046FFF756FE03998046CF
:10DCA000024631443046FEF773FF002858D108F190
:10DCB000FF330193F3188146054600935846B24658
:10DCC0006619321A00213844FEF712FF0028DCD111
:10DCD000002EDAD0C845434638BF4B469C4212D985
:10DCE0005A191AF80310B85C88423A440AEB030E3A
:10DCF00006D02DE01EF8010F12F8011F884227D12F
:10DD000001339C42F6D8019BC845194640F28380F6
:10DD1000EA1800980378B85C83423A447BD1009BB0
:10DD20000AEB090B06E013F801CD12F801EDF445FA
:10DD300004D101465B4501F1FF30F4D109F101093D
:10DD4000894557D8039B30461D44C3EB0409B7E708
:10DD5000C8F1010215441D444FF000093046AFE7F9
:10DD6000C8EB0403434538BF4346013308F1FF398C
:10DD7000039306EB090358460025BB469A466719EC
:10DD80003A1A00215844FEF7B3FE00287FF47DAF15
:10DD9000002F3FF47AAF444515D908EB050216F879
:10DDA00008301BF8020098425A4406EB080143462B
:10DDB00006D023E011F801EF12F8010F86451DD1BE
:10DDC00001339C42F6D8B9F1FF3F12D005EB0902AE
:10DDD0009AF800101BF8023099425A4414D1534665
:10DDE00005E013F8010D12F8011D88420CD1B34271
:10DDF000F7D15F46781905B0BDE8F08FC8F1010290
:10DE000015441D443846BAE7039B38461D44B6E71F
:10DE10000B7813B97047414690E70020704700BF68
:10DE200070B504460D4645EC104B164605F0F0FB68
:10DE300051EC100B7EB1C5F30A53C3F16B03002BF9
:10DE400009DD1B0503F17F55002405F54015224629
:10DE50002B46FDF7C3FF70BD2DE9F04F1D46A1B065
:10DE60000023834628460E4606921C9305F092F83E
:10DE70000024002382460068CDE90434FFF760FCEB
:10DE80001B9681463246144612F8017B2D2F00F274
:10DE9000AF80DFE807F017ADADADADADADADAD8195
:10DEA00081818181ADADADADADADADADADADADAD52
:10DEB000ADADADADADAD81ADADADADADADADADADBE
:10DEC000AD2BAD7E069B4FF000084FF0000943B12B
:10DED00000230793069B1E60079B13B109F10043C3
:10DEE000994649EC108B21B0BDE8F08F00230793D1
:10DEF000621C1B926778002FE4D0302F14467BD031
:10DF0000002308940A93A7F13003092B00F2078439
:10DF10004FF00008204645464446082CC8BF08EB91
:10DF2000880805EB850300F1010007EB43031B9014
:10DF3000C4BF07EB4807A7F130080778D8BFA3F1A3
:10DF40003005A7F13003092B04F10104E5D9DAF813
:10DF500000104A46FFF762FC00B300203B468146B2
:10DF60000746A246652B00F0B280452B00F0AF803B
:10DF70000022002C52D118B90A9A002A00F0D1824E
:10DF80004FF000084FF00009069B002BA4D01B9E09
:10DF9000A0E701230793ABE71B9274E71B9B03EBFE
:10DFA00009021B9213F809300746A246A3F130027A
:10DFB000092A00F27982411C1346002A00F09F864C
:10DFC00001290F4418BF001905D100F094BE4D007F
:10DFD000844200F0BB840134611E082905EB8501F1
:10DFE000F5DD102CDCBF08EB88084FEA4808EFE7A6
:10DFF0000023302F079383D16378582B00F073836D
:10E00000782B00F0708301341B942778302FFAD0DE
:10E01000002FB5D0012308940A9374E7102CA2EBCB
:10E0200007032846A1460B93A8BF4FF01009FDF740
:10E030005FFEBAF1000F08BFA246B9F1090FCDE9A2
:10E04000040113DD494B03EBC90353E91223FDF728
:10E05000C5FE064640460F46FDF74AFE02460B4601
:10E0600030463946FDF708FDCDE904010F2C00F3D9
:10E0700085800B9B002B27D040F31C850B9B162B18
:10E0800000F37E84394F07EBC307D7E90001DDE9D0
:10E090000423FDF7A3FE8046894675E71BA8344993
:10E0A00004F092FE00283FF40DAF1B9B3149013B69
:10E0B0001BA81B9304F088FE10B91B9B01331B9314
:10E0C0002D4B059300230493DDE904895CE7002CC4
:10E0D00000F0CA811B9E731C1B9373782B2B00F0DE
:10E0E000DD822D2B00F015824FF0000CA3F13002E1
:10E0F000092A00F2D082302B05D11B9A01321B92E3
:10E100001378302BFAD0A3F13102082A3FF630AF52
:10E110001B9A0C92511C303B1B910B935378A3F12B
:10E12000300EBEF1090F0FD80B9A01311B9102EB93
:10E13000820203EB42020B78A3F1300EBEF1090F0D
:10E14000A2F13002F1D90B920C9A891A082900F336
:10E150000E840B9A44F61F618A42A8BF0A46BCF19E
:10E16000000F3FF406AF524203E700BF707B01008F
:10E1700084780100887801000000F07F0B9BC9EBD8
:10E1800004099944B9F1000F40F3878319F00F0196
:10E190000AD0BD4B03EBC101D1E90001DDE9042345
:10E1A000FDF71CFECDE9040139F00F0640F01082A6
:10E1B00000230A930095234652460899584604F0D6
:10E1C00097FF1290002800F026830B9A0027002A60
:10E1D000C2F10003A8BF3B460C9322EAE2730B9303
:10E1E000BA46129C5846616804F012FF06460028A1
:10E1F00000F05A8222699DED047B0232920004F104
:10E200000C010C308DED087BFBF764FA9DED080BDB
:10E210001EAA1DA9584605F08DFA1C90002800F092
:10E2200044820121584604F0FDFF8246002800F098
:10E230003B821D9A002AC0F233810C9B0B9C9D18D7
:10E240000A981E9B9149121A1A44013A8A42C3F154
:10E25000360380F2EE80891A1F29A3EB010300F335
:10E26000268101228A400E920022139205EB0309B7
:10E270001C440A9B4D452A461C44A8BF4A46A2425C
:10E28000A8BF2246002A03DDC2EB0909A41AAD1A71
:10E290000C9BBBB151461A46584605F065F88246BC
:10E2A000002800F0018201461C9A584604F0C4FF81
:10E2B000002800F0F9810D901C99584604F0CEFE1C
:10E2C0000D9A1C92B9F1000F08DD4A461C99584678
:10E2D00005F09AF81C90002800F0E7810B9B43B1F1
:10E2E00031460B9A584605F03FF80646002800F0E4
:10E2F000DB81002C08DD31462246584605F084F8C3
:10E300000646002800F0D081002D08DD51462A463F
:10E31000584605F079F88246002800F0C58132465B
:10E320001C99584605F0EAF80746002800F0BC8121
:10E330000023C268C36051460D9205F0BDF8002865
:10E34000C0F20D8400F0C8835146384605F050FAFB
:10E3500055EC104B00224FF0804310EE100A294676
:10E36000FDF7B8FF002869D00D9B002B00F0A780B7
:10E370009FED417B059B464D8DED0E7B002498461D
:10E38000DFF81491434B08EA0909994500F0168219
:10E390000A9B2BB3B9F1D46F22D839A3D3E9002358
:10E3A000DDE90E01FDF796FFB0B1DDE90E01FDF7E5
:10E3B000EDFF002800F04083FDF79AFCCDE90E0147
:10E3C0000D9B002B40F03383DDE90E1202F1004378
:10E3D00014911593DDE9144505F1D663C9EB0305E6
:10E3E0009DED080B05F014F9204653EC102B29463F
:10E3F000FDF7F4FCDDE90823FDF73EFBCDE9040160
:10E400000C460A9B23B9244B2340994500F00E8209
:10E410001C99584604F022FE3146584604F01EFE70
:10E420005146584604F01AFE3946584604F016FE86
:10E43000D7E60022139201220E9217E7174B2046CF
:10E4400029460022FDF7CAFC0D9BCDE90E01002BE9
:10E450005AD101F1004310901193059BDDE910455D
:10E4600098468DE74FF00109002858D10A9B002BF0
:10E470003FF428AD04462DE6000000000000F03F08
:10E480000000C0FFFFFFDF41707B010002FCFFFFC7
:10E490000000F03F0000E07F0000F07F0000E03F60
:10E4A0000B9B0C9D9C1ACBE64FF001095AE5B8492D
:10E4B000891A012202FA01F113910E92D6E6DDE9E2
:10E4C0000412002940F0C980C2F313039046002BC8
:10E4D00040F0C9800022AF4B20462946FDF7F0FEF0
:10E4E000002840F07E830022AB4B20462946FDF7F2
:10E4F00075FC0A460146CDE90E1202F10043189060
:10E500001993DDE918453BE79DED0E7B8DED107B02
:10E51000A3E74FF0010CB31C1B93B378E6E500248E
:10E52000D8E5B9F1000F7FF4CDAC493B252B3FF680
:10E53000C9AC01A252F823F09DE00000C5DE000046
:10E54000C5DE0000C5DE0000C5DE000075E6000087
:10E55000C5DE0000C5DE0000C5DE0000C5DE00002F
:10E56000C5DE0000C5DE0000C5DE0000C5DE00001F
:10E57000C5DE0000C5DE0000C5DE0000C5DE00000F
:10E58000C5DE0000C5DE0000C5DE0000C5DE0000FF
:10E59000C5DE0000C5DE0000C5DE0000C5DE0000EF
:10E5A000C5DE0000C5DE0000C5DE0000C5DE0000DF
:10E5B000C5DE0000C5DE00009DE00000C5DE0000F5
:10E5C000C5DE0000C5DE0000C5DE000075E6000007
:10E5D000B6F59A7F00F31F813611012EDFF8D8912E
:10E5E00040F31983DDE9040100234F46984616F0F5
:10E5F000010F08F101084FEA660604D0D7E90023AD
:10E60000FDF7ECFB0123012E07F10807EFD1002BEA
:10E6100040F06383059BA3F15473059309EBC8088D
:10E62000DDE90423D8E90001FDF7D8FB21F0004320
:10E630001B0D5A4A1B059342CDE9040100F2EB8001
:10E64000A2F58012934240F2C782554B05930023F6
:10E650000A934FF0FF330493ACE5DDE9041201297E
:10E6600000F0EF8190469FED487B00244D4D8DEDED
:10E670000E7B85E61BA84C4904F0A6FB00283FF45E
:10E6800021AC1B9B1B78282B00F00283474B059382
:10E690000023049318E51B9600226AE44FF0000C57
:10E6A00039E7013340F0E7821C98414B0593002283
:10E6B0000492DDE904892223CBF800300146584654
:10E6C00004F0CCFC3146584604F0C8FC514658468C
:10E6D00004F0C4FC1299584604F0C0FC3946584670
:10E6E00004F0BCFC50E4079A02951CAB0192009325
:10E6F000304A1DAB1BA9584604F0DEF810F007069F
:10E7000005463FF43DAC062E40F05681013400230F
:10E710001B944FF000084FF00009079334E4DAF837
:10E72000001020464A46FFF779F848B14FF0000A3A
:10E730003B46D0465546504657465446D14611E4CE
:10E740001B9B03EB09021B9213F80930302B06D1F7
:10E7500001321B921378302B00F10100F8D0A3F1A5
:10E760003102082A40F27C814FF0000A652BD04626
:10E77000554657463FF476AE54464FF00109FFF731
:10E78000F4BB00BFAFF30080000000000000F03FCA
:10E79000E2FBFFFF0000F03F0000E03F0000A07C34
:10E7A000FFFFEF7F0000F0BF907801000000F8FF4E
:10E7B0000000F07F70780100387C0100A8F15473EC
:10E7C00005939DED047BB0EE470AF0EE670A04F076
:10E7D0001FFF204653EC102B2946FDF7FFFADDE919
:10E7E0000423FDF749F921F00043CDE904011B0D95
:10E7F000AB4ADDE908011B059342CDE9160140F261
:10E80000BA80A84B994200F0E281A64B05934FF0E5
:10E81000FF330493FCE5A44B0593002222230492CA
:10E82000DDE90489CBF80030FFF7AEBBDDE90E89E6
:10E8300049464046FDF782FDFDF76AFA0B4602465F
:10E8400049464046FDF716F90D9B8046894683B937
:10E85000049B73B9C4F313045CB989A3D3E90023FF
:10E86000FDF72EFD00283FF4D3ADDDE904891C98A7
:10E8700024E785A3D3E9002340464946FDF720FD60
:10E880000028F2D14046494681A3D3E90023FDF791
:10E8900035FD00283FF4BCADE7E73FF489ACC9F192
:10E8A000000616F00F020AD0804B03EBC203DDE92D
:10E8B0000401D3E90023FDF7BBFBCDE904013611C8
:10E8C0003FF476AC1F2E38DC16F0100300F0B88150
:10E8D0006A23002E0A9313DDDDE90401744F00233F
:10E8E000F20704D5D7E90023FDF778FA0123761063
:10E8F00007F10807F4D1002B40F0F2810A9B9BB18D
:10E90000DDE90412C2F30A53C3F16B03002B114675
:10E910000ADD1F2B40F3D9810022342B049240F3EF
:10E92000E2814FF05C73059300220023DDE90401CE
:10E93000FDF7BCFC00283FF43DAC2223CBF80030AF
:10E940004FF000084FF00009FFF71EBB1B99013480
:10E95000082840F38E80102CDCBF08EB880802EBFF
:10E96000480800204B1C1B934B78FFF71FBB44F655
:10E970001F62FFF7F4BB059B03F15474059440E557
:10E980000B9EC4F125039E423FF7F8AB474DC4F1FF
:10E990000F0405EBC401341BDDE90423D1E90001B8
:10E9A00005EBC405FDF71AFAD5E90023FDF716FAC1
:10E9B00080468946FFF7E8BA1C9A3AB135211EA86D
:10E9C00004F046FF58461C9904F048FB062E0BD86D
:10E9D000DFE806F01D21181304211D006FF000432D
:10E9E00005934FF0FF33049329077FF56DAB059B2B
:10E9F00043F000430593FFF767BB2B4B05930023C0
:10EA00000493F1E71E9B04931F9B0593ECE70023FF
:10EA100005930493E8E71D9A1F9B1E99049102F247
:10EA2000334223F4801343EA02530593DCE79DED60
:10EA30000E7B8DED147BCDE49FED177B8DED0E7B72
:10EA4000BEE4DDE904129046002A7FF40CAE2223D6
:10EA5000CBF800301C984FF000084FF000092DE66D
:10EA60001B9A08920025303B471C1146AA46A8462F
:10EA7000012405EB850503EB4505002072E700BF87
:10EA80009535A094FFFFCF3F9535A094FFFFDF3F62
:10EA900035E5AF350000E03F000000000000F03F2A
:10EAA000FFFF9F7CFFFFEF7F0000F07F707B010086
:10EAB000A87801000B9911F1160FFFF65FAB964A8B
:10EAC000A2EBC102D2E90023DDE90401FDF7B0FAAF
:10EAD00080468946FFF758BA0D9BDDE90889002B6F
:10EAE00000F08880DDE904458C4BC5F313019942A1
:10EAF0002A4600F0AA80139B002B00F08780059A1D
:10EB0000134210D00D9B0A9ADDE90401002B00F09E
:10EB10008580FFF785F902460B4640464946FCF7DB
:10EB2000ABFF804689460A9BBBB17D4B1793002300
:10EB30001693DDE9162340464946FDF74FF9034693
:10EB40000C4680468946CDE9043431B9049B23B98B
:10EB500022231C98CBF80030B0E51C98AEE50D9B45
:10EB6000DDE90889002BDED1DDE904120029DAD1C4
:10EB7000C2F313031446002BD5D122F000431B0D22
:10EB80001B05B3F1D66FCED97B6913B93B69012B55
:10EB9000C9DD39460122584604F036FC5146074685
:10EBA00004F08AFC0028BEDD0A9B002B40F0828026
:10EBB0005C4B2340A3F580136FEA13536FEA0353B2
:10EBC00005934FF0FF330493DDE90489ABE7169B0F
:10EBD00001337FF41AAE67E501F154730593FFF733
:10EBE000E7BA9FED497B8DED187B9FED497B8DED5D
:10EBF0000E7B86E4DDE90412C2F313031446002BF6
:10EC00007FF479AF00297FF476AFCDE70E9B049AAD
:10EC1000134288D076E74FF00008FBE4FFF700F9D5
:10EC200002460B4640464946FCF724FF00220023DB
:10EC300080468946FDF73AFB00287FF408AF72E76B
:10EC4000002E0A933FF748AE6EE60A9B0499E3B1A3
:10EC5000344B2B40B3F1D46F17D81B0DC3F16B03AA
:10EC60004FF0FF3000FA03F38B427FF444AF2E499C
:10EC70008A423FF416AD2B4B134003F580130593E6
:10EC800000230493DDE904894DE74FF0FF33EBE700
:10EC90001BA81EAA254904F0AFF805287FF4F6AC9E
:10ECA0001F9B43F0FF4343F4E00305931E9B049333
:10ECB000FFF70ABA1B4B2340B3F1D66F3FF77AAF89
:10ECC000B3F15C7F3FF731AFC1E64FF0FF3202FA9C
:10ECD00003F3049A1A40049226E6CDE9040199E46C
:10ECE000CDE904010AE6203B4FF0FF3202FA03F3BC
:10ECF0000B40059318E620461B99013428E6084688
:10ED00001B992FE6AFF30080000000000000E0BF79
:10ED1000000000000000E03F707B0100FFFF0F00DB
:10ED2000000050390000F07FFFFFEF7F9478010072
:10ED3000054B1B6810B45B6B044C002B08BF2346CB
:10ED40005DF8044BFFF788B85011FF1F5411FF1FE7
:10ED50002DE9F84FDDF828900F46804616461D46EF
:10ED60008B4600E0A3465C46484614F801ABFDF72D
:10ED7000D1FB5044417801F0080101F0FF0C00295B
:10ED8000F0D152462D2A61D02B2A04BF9BF80120D6
:10ED90000BF10204002D43D0102D65D0A946BCF123
:10EDA000000F0CBF6FF0004A4FF0004A0021BAFB81
:10EDB000F9FE084609FB1EAA05E029D009FB003030
:10EDC000012114F8012BA2F13003092B05D9A2F17E
:10EDD0004103192B0AD8A2F137039D420EDD4A1CCC
:10EDE000EFD08645E9D24FF0FF31EAE7A2F16103A7
:10EDF000192B03D8A2F157039D42F0DC4B1C15D010
:10EE0000BCF1000F10D14EB1E1B93760BDE8F88F09
:10EE10009A45D3DA70464FF0FF31D2E7BDE8F88F5C
:10EE2000302A1AD00A25B9E74042ECE7BCF1000FBE
:10EE30004FF022030CBF6FF000404FF00040C8F8C5
:10EE40000030F6B1671E3760BDE8F88F0BF10204A1
:10EE50009BF801204FF0010C9CE7237803F0DF03BF
:10EE6000582B08D0082599E7302A97D1237803F04A
:10EE7000DF03582B92D14FF0100962784D460234CF
:10EE80008DE7BDE8F88F00BF30B5064C064D24680D
:10EE9000646B83B0002C08BF2C460094FFF758FF2A
:10EEA00003B030BD5011FF1F5411FF1FFFFFFFFFC4
:10EEB0002DE9F04FC1B00C46059115460A93069016
:10EEC00004F06AF8036813931846FEF739FCA38927
:10EED00012901E0603D52369002B01F031819FEDAE
:10EEE000A67B00238DED107B0E9325932493159321
:10EEF0000793DFF890A230AB23939946A84698F881
:10EF000000304446EBB1252B02D11AE0252B03D06B
:10EF100014F8013F002BF9D1C8EB04058DB1249BF7
:10EF2000259AC9F8008001332A44072BC9F80450F8
:10EF30002592249300F3A68009F10809079B2B442E
:10EF400007932378002B00F0A68000231A468DF843
:10EF50006F301946089303934FF0FF3B637804F139
:10EF600001085D4608F10108A3F12000582800F2CD
:10EF70003484DFE810F0A00332043204A803320422
:10EF800032043204320432043204AF03BD033204CB
:10EF90005D00E200320409011001100110011001AE
:10EFA000100110011001100110013204320432046A
:10EFB00032043204320432043204320432042001B6
:10EFC0008602320486023204320432043204D4024D
:10EFD00032043204E50232043204320432043204D0
:10EFE0000F03320432043D0332043204320432048B
:10EFF0003204320432043204320432047E039103B8
:10F0000086028602860299039103320432040704C1
:10F0100032041204A3006400C2033204C9033204A0
:10F02000EA0332043204F20308980A93404208903B
:10F03000039B43F00403039398F8003092E70A9887
:10F04000AB46002104688DF86F10071D039830232C
:10F0500078228B458DF870304FF000058DF87120C7
:10F0600040F00203C0F2D68320F0800343F0020395
:10F07000039354EA05030A9700F0A2830F460D920A
:10F080003F48E6E223AA0599069804F02BFF48B909
:10F090000DF1C00952E7259B23B10698059923AAD3
:10F0A00004F020FF059B9B8913F0400F079B18BFBE
:10F0B0004FF0FF33184641B0BDE8F08F0D93AB46DB
:10F0C000002A41F03382039A12F0200300F04682B6
:10F0D0000A9F073727F00703002703F10801BB4504
:10F0E0000A91D3E900458DF86F70C0F2628722F073
:10F0F0008003039354EA050300F0848330AEE208F2
:10F1000042EA4572E90804F007030D46144630331D
:10F1100054EA050206F8013DF1D1039AD10740F106
:10F120008F80302B00F08C803022731E06F8012C6B
:10F1300030AAD21A09921E4685E098F800302A2B90
:10F1400008F1010401F0E481A3F13000092898BF1F
:10F15000002501F2868114F8013B05EB850500EBE3
:10F160004505A3F130000928F5D945EAE575A04623
:10F17000FAE600BFAFF300800000000000000000CE
:10F1800004790100D0780100039B43F080030393CE
:10F1900098F80030E6E6A3F1300000231C4618F88A
:10F1A000013B04EB840400EB4404A3F13000092884
:10F1B000F5D90894D8E60D93AB46002A41F0C481F6
:10F1C000039B43F010030393039B9C0640F1378598
:10F1D0000A9F073727F00707D7E9002307F108013F
:10F1E0000A9114461D46002A73F10003C0F262859D
:10F1F000BBF1000F9DF86F70C0F23F85039B23F0B9
:10F200008003039354EA050300F0E881002D08BF52
:10F210000A2CC0F0E88130AE204629460A2200239D
:10F2200005F01EF8303206F8012D2046294600234D
:10F230000A2205F015F804460D4654EA0503EBD101
:10F2400030AB9B1B0993099B5B45B8BF5B4604939E
:10F2500000230F9317B1049B01330493039B13F016
:10F2600002030B9302D0049B02330493039B13F01D
:10F2700084030C9340F0DB82089B049A9D1A002DB6
:10F2800040F3D582102D2599249AA84F27DD149696
:10F2900048461024B946059E2F46069D04E0103FBF
:10F2A000102F00F1080016DD0132A04B249210311E
:10F2B000072A259180E81800F1DD23AA3146284667
:10F2C00004F010FE00287FF4EDAE103F102F2599BA
:10F2D000249A30A8E8DC149E3D464F468146013210
:10F2E0006C18072A25942492C9F80070C9F80450B4
:10F2F00000F32D849DF86F7009F1080977B1249B04
:10F30000013301340DF16F010122072B2594249361
:10F3100089E8060000F3A58309F108090B9B6BB18E
:10F32000249B013302341CA90222072B2594249329
:10F3300089E8060000F3A18309F108090C9B802BE2
:10F3400000F0E182099BC3EB0B07002F33DD784A05
:10F35000249B0B92102F22DD22464FF0100B069DAE
:10F36000059C04E0103F102F09F1080916DD013358
:10F370001032072B2592249389E8000CF2DD23AA92
:10F380002146284604F0AEFD00287FF48BAE103FE6
:10F39000102F259A249B0DF1C009E8DC1446013397
:10F3A0000B9A24933C44072B259489E8840000F3AE
:10F3B0004C8309F10809039BDA0500F13A82249B8A
:10F3C0000999C9F8006001330C44072B2594C9F84A
:10F3D0000410249300F3238309F10809039B5907C0
:10F3E0003FD5089B049A9D1A002D3ADD102D249BD1
:10F3F0004E4F23DD22461026DDF818B0059C04E0B0
:10F40000103D102D09F1080917DD013347492493F8
:10F410001032072B259289E84200F1DD23AA21460C
:10F42000584604F05FFD00287FF43CAE103D102DDF
:10F43000259A249B0DF1C009E7DC144601332C44C6
:10F44000072B25942493C9F80070C9F8045008DDEF
:10F4500023AA0599069804F045FD00287FF422AE02
:10F46000259C079B089A04998A42ACBF9B185B189D
:10F470000793002C40F0DF82002324930DF1C00994
:10F480003DE50D93AB46002A41F06280039B0A9F45
:10F490001A0707F1070740F1748527F0070393ED7A
:10F4A000007B8DED107B03F108020A92DDE910125A
:10F4B00022F0004316911793DDE916454FF0FF3215
:10F4C000204629461B4BFCF723FF002840F0DA8436
:10F4D0004FF0FF32174B20462946FCF7FBFE002871
:10F4E00040F0D08400220023DDE91001FCF7E8FEA3
:10F4F000002840F052879DF86F700F4E0F4B039914
:10F5000021F0800103910D9903224FF0000B04922A
:10F510004729D8BF1E460992CDF83CB09AE6039B16
:10F5200043F00803039398F800301BE520790100AD
:10F53000D0780100FFFFEF7FE4780100E078010060
:10F540000D93AB46002A41F00F80039B43F010035C
:10F550000393039A12F020037FF4BAAD039911F0DC
:10F56000100200F05B840A988DF86F30BBF1000F39
:10F57000046800F104074FF00005C0F219850A463F
:10F5800022F08002039254EA05020A9700F03A81C1
:10F590001F46B3E50D93AB46002A40F0E187039B7D
:10F5A00043F010030393039A12F0200300F02C831E
:10F5B0000A9F073727F00703002703F10801BB451F
:10F5C0000A91D3E900458DF86F70C0F2568322F09E
:10F5D0008003039354EA05037FF418AEBBF1000FD8
:10F5E00000F0F580002440AE303406F8414D27E6A7
:10F5F0000D93AB46002A40F0AF87039BAF489D06B2
:10F6000040F1B5800A9F073727F00703D3E900458B
:10F6100003F108020A92039A12F0010700F03982FE
:10F6200054EA050300F002859DF834208DF871201E
:10F630000027039A8DF86F703023BB458DF870302A
:10F6400042F00203C0F2AE8622F0800343F00203D0
:10F65000039330AE230904F00F0143EA05732A092E
:10F660001C461546435C06F8013D54EA0503F1D1FA
:10F67000E6E50A990D930A688DF8982000230A465A
:10F680001F468DF86F30043201230493BB460F9759
:10F690000A92099326AEE1E50D93AB46002A3FF4AA
:10F6A00093AD8DF86F108FE5039B43F040030393F8
:10F6B00098F8003056E498F8003000297FF452ACF6
:10F6C000012220214EE4039B43F00103039398F8A9
:10F6D000003047E40A9C2368089318460028234614
:10F6E00003F10403FFF6A0AC0A9398F8003039E464
:10F6F00098F8003001222B2134E4039B43F02003CF
:10F70000039398F800302DE40A9A0D9316680024AC
:10F710008DF86F40171D002E00F01C86002DC0F2E2
:10F7200061852A4621463046FDF7E2F9002800F0BF
:10F730006386831B0993A34623EAE3730A97049322
:10F74000CDF83CB09DF86F7084E50D93AB46002A70
:10F750003FF429AF8DF86F1025E70D93AB46002AD3
:10F7600040F00E87039B56489D063FF54BAF039B29
:10F77000DC0640F13E840A9A1346043314680A9367
:10F78000002548E798F800306C2B00F0C2840398FD
:10F7900040F010000390FFF7E5BB002A40F0EC8634
:10F7A000039B9B0640F157830A9A07991368CD176C
:10F7B0000846043229460A92C3E90001FFF79FBBBD
:10F7C0003F480D92BBF1000F40F074815F464FF04F
:10F7D000000BCDF824B030AE35E50D93002A40F093
:10F7E000C7860D9A002A3FF456AC002301211F461C
:10F7F00004918DF898208DF86F309B460F930991F6
:10F8000026AE2BE5BBF1000F00F00E86002700248A
:10F81000002573E42A4803930D9254EA05030A97DE
:10F820004FF000077FF415AF0024002511E7259C59
:10F8300064E50D9B652B40F3AA8000220023DDE9DF
:10F840001001FCF733FD002800F03681249B1D4A8F
:10F85000C9F80020013301340122072B2594249399
:10F86000C9F8042000F3EE8309F108091D9B0E9AE4
:10F87000934203DB039BDB077FF5B0AD249B12991A
:10F88000139AC9F8002001330C44072B2594C9F8BA
:10F890000410249300F3478409F108090E9B5D1EB0
:10F8A000002D7FF79BAD084A249B0B92102D40F34F
:10F8B000E9811026069FDDF814B00DE0F078010014
:10F8C00004790100E8580100D078010009F1080925
:10F8D000103D102D40F3D68101331034072B2594B1
:10F8E0002493C9F800A0C9F80460EFDD23AA5946A3
:10F8F000384604F0F7FA00287FF4D4AB259C249B0B
:10F900000DF1C009E4E7089B049A9F1A002F7FF7C6
:10F9100019ADBC4A249B0B92102F2BDD4A46214681
:10F92000B94610253746069C059E06E0A9F1100948
:10F93000B9F1100F02F1080218DD01331031072B65
:10F9400025912493C2F800A05560EFDD23AA31462B
:10F95000204604F0C7FA00287FF4A4ABA9F11009EF
:10F96000B9F1100F2599249B30AAE6DC3E460C46DF
:10F970004F46914601330B9A24933C44072B259420
:10F9800089E8840000F33D8209F10809DAE40E9B5E
:10F99000249D012B40F30A82013501340123072DF8
:10F9A00025942495C9F80060C9F8043000F30F824B
:10F9B00009F10809129A139BC9F800300135144463
:10F9C000072D25942495C9F8042000F30D8209F130
:10F9D000080900230022DDE91001FCF767FC0E9BFB
:10F9E000002840F0C380013B013501361C44072D3F
:10F9F00024952594C9F80060C9F8043000F3F58017
:10FA000009F10809159AC9F80420013514441FABFF
:10FA1000072D25942495C9F800307FF7DDAC23AA83
:10FA20000599069804F05EFA00287FF43BAB259C0C
:10FA30000DF1C009D2E423AA0599069804F052FA00
:10FA400000283FF419ADFFF72DBB23AA05990698AE
:10FA500004F048FA00287FF425AB259C0DF1C0097D
:10FA6000A9E423AA0599069804F03CFA00287FF43B
:10FA700019AB259C0DF1C00950E423AA05990698FD
:10FA800004F030FA00287FF40DAB259C0DF1C0097D
:10FA900054E4BBF1000F8DF86F70C0F2DF8222F0EA
:10FAA0008003039354EA05037FF4D3ADBBF1000F49
:10FAB0003FF48CAE0027B7E61D9D002D40F3D182A8
:10FAC0000F9B0E9A9342A8BF1346002B1D460DDDD7
:10FAD000249BC9F8006001332C44072B2594C9F8F6
:10FAE0000450249300F3A98309F108090F9B002D0A
:10FAF000A8BF5B1B002B1D4640F3F880414A249BA6
:10FB00000B92102D40F3838222461027DDF818B0A7
:10FB1000059C05E009F10809103D102D40F376829F
:10FB200001331032072B25922493C9F800A0C9F89D
:10FB30000470EFDD23AA2146584604F0D3F90028CB
:10FB40007FF4B0AA259A249B0DF1C009E4E723AA0B
:10FB50000599069804F0C6F900287FF4A3AA9DF839
:10FB60006F70259C0DF1C009FFF7C8BB5E1E002E0B
:10FB70007FF748AF234B0B93102E2CDDCDF824805C
:10FB80001027B046DDF818B0059E06E0A8F1100871
:10FB9000B8F1100F09F108091ADD01351034072DED
:10FBA00025942495C9F800A0C9F80470EEDD23AAB5
:10FBB0003146584604F096F900287FF473AAA8F15C
:10FBC0001008B8F1100F259C249D0DF1C009E4DC4C
:10FBD0004646DDF824800B9B01353444072D2594DF
:10FBE000249589E848007FF70BAF23AA059906986A
:10FBF00004F078F900287FF455AA259C249D0DF186
:10FC0000C009FFE6D0780100039911F0100200F05E
:10FC1000D3810A988DF86F30BBF1000F046800F1B2
:10FC200004074FF0000526DB0A4622F0800203920B
:10FC300054EA05020A971F467FF4E8AACEE4039B24
:10FC4000D8062AD4039B590627D50A99B1F9004052
:10FC50000431E51722462B460A91FFF7C4BA0A99E8
:10FC60008DF86F30BBF1000F0C6801F104074FF005
:10FC7000000580F24C820A971F4654EA05037FF480
:10FC8000C5AAB0E401330B9A24932C44072B259486
:10FC900089E824007FF7A0ABC1E60A9A14681346EE
:10FCA0000433E51722460A93002A2B4673F100031A
:10FCB000BFF69EAA64424FF02D0765EB4505BBF1E8
:10FCC000000F8DF86F70FFF6A1AA039B23F080034D
:10FCD0000393FFF79BBA23AA0599069804F002F94B
:10FCE00000287FF4DFA9259C0DF1C0090F9A1D9B08
:10FCF000324417460E9A934247DB039AD50744D401
:10FD00000E990E44F51BCB1A9D42A8BF1D46002D2F
:10FD10002E460DDD249AC9F8007001322C44072AC2
:10FD20002594C9F80450249200F3FE8209F10809D1
:10FD3000002EACBF9D1B1D46002D7FF74FABBA4A6E
:10FD4000249B0B92102D9DDD1026069FDDF814B02C
:10FD500004E009F10809103D102D93DD0133103442
:10FD6000072B25942493C9F800A0C9F80460F0DD9E
:10FD700023AA5946384604F0B5F800287FF492A922
:10FD8000259C249B0DF1C009E5E7249A129813994C
:10FD9000C9F8001001320444072A2594C9F8040068
:10FDA000249200F3B48209F10809A9E7039BD8075C
:10FDB0003FF5F2AD013501340123072D259424953B
:10FDC000C9F80060C9F804307FF71AAE0DE723AA1E
:10FDD0000599069804F086F800287FF463A9259C0D
:10FDE000249D0DF1C009E5E523AA0599069804F0C4
:10FDF00079F800287FF456A9259C249D0DF1C009AF
:10FE0000E7E523AA0599069804F06CF800287FF42A
:10FE100049A9259C0DF1C009FFF794BA039911F087
:10FE2000400300F0B9800A988DF86F200346BBF1BB
:10FE3000000F03F1040304884FF00005C0F2C081F5
:10FE400021F08001039154EA05010A933FF4DAACF2
:10FE50001746FFF753B9039BDF060BD4039B5E06DF
:10FE600008D50A9A136804320A92BDF81C201A8039
:10FE7000FFF745B80A9A136804320A92079A1A6083
:10FE8000FFF73DB8DDE9100102460B46FCF740FAEA
:10FE9000002840F0FD820D9BBBF1FF3F23F02007BF
:10FEA00000F06782472F00F08281119B039A002B9C
:10FEB00042F480720B92C0F278829DED107B8DED42
:10FEC000187B002304930D9B662B00F05582462B74
:10FED00000F04581452F0CBF0BF101055D4621AABD
:10FEE0001EAB019200932A461DAB02219DED180B1B
:10FEF000069801F029FC0D9B672B064640F06B82AB
:10FF0000039BDA0740F1B982741900220023DDE96E
:10FF10001801FCF7CBF9002840F08D81219B9C4211
:10FF200006D930215A1C21921970219B9C42F9D884
:10FF30009B1B472F0E9300F077810D9B652B40F3A1
:10FF400059820D9B662B1D9B0F9300F060820F9AC8
:10FF50000E998A42C0F23282039BD90700F18F8248
:10FF600022EAE273099267220D92049A002A40F075
:10FF70002F8104930B9B039393469DF86F70FFF7BB
:10FF800069B927F0070797ED007B07F108038DEDAE
:10FF9000107B0A93FFF78ABA0A998DF86F30BBF18C
:10FFA000000F0C6801F104074FF0000580F2AC80EF
:10FFB0000A970027FFF7A2B8039911F040033FF416
:10FFC0004EAE0A988DF86F200346BBF1000F03F187
:10FFD000040304884FF00005C0F2EF8021F0800197
:10FFE000039154EA05010A9317467FF40FA9FFF71E
:10FFF000F5BA039B0A9A13F0400F134600F0E28013
:020000021000EC
:10000000043314880A930025FFF705BB1446013317
:100010000B9A24932C44072B259489E824003FF75E
:100020005AAE09F1080961E6D07801000027BB4506
:100030008DF86F70FFF6F8AB039B23F080030393FA
:10004000FFF7C0BB23AA0599069803F04BFF0028D1
:100050007FF428A8259C0DF1C00907E40A9FFFF74B
:10006000DCBB249BB84AC9F80020013301340122CB
:10007000072B25942493C9F8042000F38B8009F101
:1000800008092DB90E9B1BB9039BDF077FF5A6A9B5
:10009000249B1299139AC9F8002001330C44072BB2
:1000A0002594C9F80410249300F3CD8109F10809BF
:1000B0006D42002D40F3AA80A44A0B92102D40F30C
:1000C000C98022461027DDF818B0059C05E009F12B
:1000D0000809103D102D40F3BC8001331032072B6E
:1000E00025922493C9F800A0C9F80470EFDD23AA73
:1000F0002146584603F0F6FE00287EF4D3AF259A39
:10010000249B0DF1C009E4E7039AFFF739BA039A7B
:100110008BE5039B43F02003039308F1010898F853
:100120000030FEF71FBF23AA0599069803F0DAFEF8
:1001300000287EF4B7AF259C0DF1C009FFF7AEBBD8
:1001400040210698FCF704FA059A10601061002817
:1001500000F0F381059A40235361FEF7C0BE21AA47
:100160001EAB019200935A461DAB03219DED180B67
:10017000069801F0E9FA5D4606460D9B462B06EB14
:1001800005047FF4C2AE3378302B00F087811D9DCB
:100190002C44BAE623AA0599069803F0A3FE00288A
:1001A0007EF480AF1D9D259C0DF1C00969E7BBF170
:1001B000000F08BF4FF0010B77E60A9317465CE586
:1001C0000A93F6E6043314680A930025FFF723BA6E
:1001D0002D2704930B9B03938DF86F704FF0000B4A
:1001E000FFF739B83046FDF7ABFAA346034609904E
:1001F000FFF7A2BA23AA0599069803F073FE002818
:100200007EF450AF259C249B0DF1C0090E99C9F8CE
:10021000006001330C44072B25942493C9F8041083
:100220007FF7DAA8FFF7FBBB1D9BDD1C1EDB9B45A0
:100230001CDB0F938BE623467AE623AA05990698E2
:1002400003F050FE00287EF42DAF259C0DF1C0096F
:100250004CE4144601330B9A24932C44072B259429
:1002600089E82400C6DC09F10809CFE70D9A023AB3
:100270000D92013B002B9DF834201D93B8BF5B42CB
:100280008DF87C20B4BF2D222B22092B8DF87D20E8
:1002900040F3EB800DF18B0004462D4A82FB0321D5
:1002A000DA17C2EBA10202EB8201A3EB410303F1D7
:1002B0003001092A134604F8011DEEDC21463033D3
:1002C000DAB201F8012D884240F234810DF17E014D
:1002D000234601E013F8012B01F8012B9842F9D1D4
:1002E000431C1B1B0DF17E0213441FAA9B1A0E9A7E
:1002F0001593012A1344099340F3E780099B129A4E
:100300001344002209930F9223EAE3732DE623AAF4
:100310000599069803F0E6FD00287EF4C3AE1D9B08
:10032000259C0DF1C009EBE423AA0599069803F07A
:10033000D9FD00287EF4B6AE1D9B0E9A259CD31ADB
:100340000DF1C009F4E400BFE8580100D0780100C5
:1003500067666666062D2B4628BF0623099323EAA7
:10036000E373B3460A970F9637460493864EFEF71B
:1003700071BF4FF0060B98E521AA1EAB01920093C6
:100380005A461DAB03219DED180B069801F0DCF9D0
:100390005D46064600EB0B04F5E62D278DF86F70E1
:1003A000FFF7ABB80393FFF754B9DDE9101202F180
:1003B000004319932D231891049384E5129A0E9B00
:1003C00013440F9A0993002A40F38980672223EA95
:1003D000E3730D92C9E50D9B472B7FF495AD039B0D
:1003E000DB073FF5CAAE219B472FA3EB06030E9315
:1003F0003FF41AAF1D9B3CE725EAE5730A97049387
:10040000099583460F909DF86F70FEF723BF002B70
:100410006DDDBBF1000F4FD1039AD4074CD41A46BF
:10042000099223EAE373A0E5039BDB075F4605D54A
:1004300040AE302306F8413DFEF702BFCDF824B0B0
:1004400030AEFEF700BF23AA0599069803F04AFDD7
:1004500000287EF427AE1D9D259C249B0DF1C0092C
:1004600026E6A0460025FEF77FBD303330228DF80A
:100470007F308DF87E2020AB37E7219B58E5129A1C
:100480000F9B1344672209930D9223EAE3736CE5F3
:100490003E4E3F4B9DF86F70FFF731B800220023AE
:1004A000DDE91801FBF702FF00287FF470AEC5F10B
:1004B00001051D952C4428E50F9B129A9D1805EB0C
:1004C0000B03099323EAE3734FE5039B13F0010346
:1004D0007FF414AF0F93099B23EAE37345E50F9B69
:1004E000099AC3F101031A44134609926EE7BBF15E
:1004F000000F02D1039BD80707D5129B5D1C05EBAB
:100500000B03099323EAE3732FE5012309932CE5F9
:100510000A9898F8013005680430002D0A90A0462A
:10052000BEF620AD4FF0FF35FEF71CBD8DF86F1005
:10053000FEF7C9BD0DF17E03D7E6069A0C231360C2
:100540004FF0FF30FEF7B7BD8DF86F10FEF738BEE5
:100550008DF86F10FEF79ABF8DF86F10FFF74DB84A
:100560008DF86F10FFF71BB88DF86F10FEF7EDBF19
:100570008DF86F10FFF735B98DF86F10FFF710B9D0
:100580008DF86F10FFF7EEB818790100EC780100D4
:10059000E87801002DE9F04F8B46B1F90C10ADF56C
:1005A0002D7D824688041446059309D4DBF8643017
:1005B00041F4005123F40053ABF80C10CBF8643035
:1005C00026460023079304931F46069316F8013B23
:1005D00011936BB3FBF7A2FF119A1044437803F019
:1005E000080303F0FF0543B3DBF8043011E0FBF729
:1005F00095FFDBF800301A78104401334278110778
:100600000FD5DBF80420CBF80030531E0137CBF8B0
:100610000430002BEBDC5946504603F025FD002842
:10062000E5D03446264616F8013B1193002BD1D174
:1006300006980DF52D7DBDE8F08F252A40F08480C9
:1006400094F801802C46731CB8F1780F00F24382B5
:10065000DFE818F0920041024102410241024102EA
:100660004102410241024102410241024102410272
:100670004102410241024102410241024102410262
:100680004102410241024102410241024102410252
:10069000410241024102410241024102410279000C
:1006A0004102410241024102D8014102410241029C
:1006B00041024102CF01CF01CF01CF01CF01CF01D4
:1006C000CF01CF01CF01CF014102410241024102DE
:1006D000410241024102410241024102C101B9010C
:1006E0004102B9014102410241024102B30141020A
:1006F0004102A30141024102410241024102410281
:100700004102410293014102410251014102410271
:100710004102410241024102410222018801B90124
:10072000B901B9011C01980041024102D500410202
:100730000D010101F30041024102EB004102DF0023
:100740004102410293011E46DBF80430002B40F3C6
:100750005382DBF8003016F8012C197891427FF4AF
:1007600067AFDBF804200133013ACBF800300137E2
:10077000CBF80420344655E74FF0FF300DF52D7DC2
:10078000BDE8F08F0393DBF80430002B40F3638265
:10079000B84B079300230493032601E0CBF800E055
:1007A000FBF7BCFEDBF800201178084402F1010ED3
:1007B000437803F0080303F0FF08002B00F07F826A
:1007C000DBF80430013B002B07F10107CBF80430C4
:1007D000E4DC5946504603F047FC0028E0D0069A76
:1007E000002AC9D0BBF80C3013F0400F134618BFD5
:1007F0004FF0FF3318460DF52D7DBDE8F08F96F8CC
:100800000180B8F16C0F00F0028245F001051E4630
:1008100019E70393DBF80430002B40F34882964B32
:1008200007930A2304930326BAE70393DBF8043003
:10083000002B40F334820226B2E70393DBF8043046
:10084000002B45F4087540F3A0808B4B07931023D1
:1008500004930326A4E70393DBF80430002B40F352
:10086000A480854B079308230493032698E7EA06A0
:100870001E46039300F1F2806B0740F1D481059985
:100880000B681F800B1D05933446CBE696F801805C
:1008900045F004051E46D6E60393DBF80430002B32
:1008A00040F3ED81002C08BF012415F0010340F056
:1008B0002281EA0640F18B811D4609E01344CBF802
:1008C00000301544A41A03F0CFFB002840F07B81D0
:1008D000DBF80420DBF80030A24259465046EDDB3D
:1008E000121B2344CBF804202544CBF80030039E90
:1008F0002F44344696E60DF150091946484602F059
:10090000FBFFDBF80430002B064640F3B081002CDF
:10091000DBF8002008BF4FF0FF34EB06117840F100
:10092000A080A046002500E0117819F801300132BE
:10093000002B00F04381DBF80430CBF800200135B8
:10094000013BA542CBF8043000F03581002BEBDCF5
:100950005946504603F088FB002840F02B81DBF815
:100960000020E1E70393DBF80430002B3ADD414B34
:1009700007930A230493032612E70393DBF804305A
:10098000002B45F400753FF760AF5946504603F021
:100990006BFB00283FF459AF21E70393DBF80430E9
:1009A000002B45F001053FF75CAF5946504603F078
:1009B0005BFB00283FF455AF11E796F8018045F046
:1009C00002051E463FE60393DBF80430002B40F39C
:1009D0005E810426E4E60393DBF80430002B45F047
:1009E0000105C4DC5946504603F03EFB0028BED04A
:1009F000F5E604EB840408EB4404303C96F80180EF
:100A00001E4620E696F8018045F010051E461AE6BF
:100A100012AB4146184608220893FCF74FF915F02F
:100A2000100940F06184059A13460433D2F800801F
:100A300005930026FBF772FDDBF800301B781844A5
:100A40004378180702D4002C40F00084B9F1000F5D
:100A500004D1C8F80090069B01330693039E3446E8
:100A6000E0E5059805680346043305EB04080393A5
:100A70002C4606E089EE0000B13C0100DBF80020C6
:100A8000117819F80130501CC3B1DBF80430CBF8F1
:100A90000000013BCBF80430137804F8013BA0457B
:100AA0000CD0DBF80430002BE8DC5946504603F04C
:100AB000DBFA0028E2D0A5423FF491AE651B3FF47B
:100AC000B7AD069A013200230692039A059223706D
:100AD0002F443446A6E50393FBF720FD40444378BA
:100AE00003F00303012BDBF8043000F09680002BA9
:100AF0003FF73DAF76E712AB184608220021089376
:100B0000FCF7DCF815F010030A937DD1059A134623
:100B10000433D2F80090059300250DF5A878FBF773
:100B2000EBFCA8423FF45BAE9BE80C0012F8010B13
:100B3000CBF80020013B089A00926E1CCBF80430E1
:100B4000494608F8050033464246504602F032FA5C
:100B5000411C3FF444AEA0B90A9B13BBC9F8003056
:100B60003744013C09F10409DBF80430002B4FF055
:100B700000050DDD002CD2D10A9B002B3FF46BAF9A
:100B80006CE7023010D1DBF80430002B3546C6DCB0
:100B90005946504603F068FA0028EBD0002DEBD000
:100BA0001DE63744013CDFE70A9B3744013C002B3C
:100BB000DAD1D7E7A84645462F448AE7002D3FF40F
:100BC00037AD2F4485E7002D7FF491AE07E6059DF4
:100BD00023462968CDF800B00122504603F062FA9E
:100BE0002E1D00283FF4FBAD069B0596039E0133A6
:100BF00007440693344615E55946504603F034FA47
:100C000000283FF4A6ADEAE54FF0000984E796F826
:100C1000028045F00205023615E5002B45F001057E
:100C20003FF7A5AEDEE6EC070CD4A8070AD5059A77
:100C3000039E13683846F91704320592C3E9000190
:100C40003446EFE4059A039E13681F60134604338D
:100C500005933446E6E45946504603F005FA002869
:100C60007FF4BDAD7E4B04900793032698E559466B
:100C7000504603F0F9F900283FF449AEAFE5594674
:100C8000504603F0F1F900283FF40CAEA7E55946B1
:100C9000504603F0E9F900283FF49BAE9FE5594622
:100CA000504603F0E1F900283FF4C5AD97E55946F9
:100CB000504603F0D9F900283FF4B1AD8FE5032E7B
:100CC00000F09F81042E40F03D82504602F064F90E
:100CD000631E02680C92B3F5AE7F40F267826FF438
:100CE000AE7163180E9340F25D1454AB4FF00008E0
:100CF0001A460A9345F4F0654346CDF83C80CDF89A
:100D000034804646CDF82C809146DBF8000001780F
:100D1000A1F12B0EBEF14E0F00F24B81DFE81EF069
:100D20007A0049017A00490149016E004F004F00E5
:100D30004F004F004F004F004F004F004F00490140
:100D40004901490149014901490149014401490158
:100D5000490149012C01250149014901A20049012C
:100D60004901490149018B004901490149014901F2
:100D70004901850049014901490149017F004901B3
:100D80004901490149014901490149014401490118
:100D9000490149012C01250149014901A2004901EC
:100DA0004901490149018B004901490149014901B2
:100DB0004901850049014901490149017F0013EBBF
:100DC000080F16D125F4C07589F8001009F1010942
:100DD000DBF804100139002904F1FF3407F10107A1
:100DE000CBF8041040F3F2800130CBF80000002C67
:100DF0008BD1002E42D025F480753FE0EA05DED588
:100E00000E9A25F080050136002AE1D0013A0E92B3
:100E10000134DDE72A06ECD525F08005D4E7B8F1EA
:100E2000070FE6D14FF00808CEE7B8F1060FE0D182
:100E30004FF00708C8E7002B40F0DE802EB905F41C
:100E4000E06EBEF5E06F00F04382B8F1010F02D012
:100E5000B8F1040FCDD108F101085FFA88F8B3E7C3
:100E600089EE0000B8F1000F40F0BD80002EC2D125
:100E700005F4E06EBEF5E06F00F03A82013B012B15
:100E800040F2818208F1FF33062B16D8B8F1020F29
:100E900040F2A082B8F1030F0FD0A8F10404E4B22D
:100EA0006FEA0408C84419F8011D5A46504603F079
:100EB00099F8C845F7D1013F3F1BE9051CD56A05E4
:100EC00000F1738219F8011C652909F1FF3407F15B
:100ED000FF380BD0452909D05A46504603F082F816
:100EE00019F8021CA7F10208A9F102045A4650465B
:100EF00003F078F84746A14615F010027FF4AEAD36
:100F000005F4C063B3F5806F89F8002000F0F58127
:100F10000D9B002B40F002820A9900225046FDF7FB
:100F200007FFEB0700F1458115F0020540F0418114
:100F300053EC102B51EC100B8DED080BFBF7E8F97F
:100F4000059C9DED080B261D2468002840F05C825E
:100F500051EC100BFBF73AFA05962060069B039EB6
:100F6000013306933446FFF75DBBB8F1020F7FF4FF
:100F700040AF4FF0030827E705F4A06EBEF5806F81
:100F800005D06A057FF535AF002E3FF477AFAA058F
:100F900004D40B9ACDF83C90B21A0D9225F4F0656A
:100FA00045F4C07500260FE7012B7FF422AF022322
:100FB0000AE70C9A92F800E08E457FF41AAFAA0572
:100FC0007FF517AF25F420750B96FDE65946504680
:100FD000089303F049F8089B00287FF40AAF002C1F
:100FE0007FF493AE05E7B8F1030F3FF434AFB8F1E7
:100FF000050F3FF430AFFCE6022B7FF426AF03234E
:10100000E2E6631EB3F5AE7F86BF6FF4AE7004EB0D
:101010000009C14654AB10463A464F46DDF81090E1
:101020000A9388BF40F25D1445F458651E464FF0A0
:101030000008A1F12B034D2B51D8DFE803F07E50BF
:101040007E50506F696969696969694A4A505050B0
:1010500050505050444444444444505050505050D8
:1010600050505050505050505050502750505050A9
:1010700050505050444444444444505050505050B8
:1010800050505050505050505050502705F4C063AD
:10109000B3F5007F23D125F4007545F4A0654FF02A
:1010A000100931700136DBF80430013B002BCBF81E
:1010B000043072DD0130CBF80000013C0FD0DBF8CA
:1010C00000000178B5E7B9F10A0F08DD25F43865AD
:1010D000E7E7BD4B33F91990B9F1080FF6DCE905E4
:1010E0001746CDF8109007D50A9B9E4200F2F48077
:1010F0000A9B9E423FF49CAA15F0100400F09280D7
:101100000A9BF61A46443744039E3446FFF78ABAD0
:10111000AD4B25F4386533F91990C2E72B05C0D5DE
:10112000B9F1000F03D145F400754FF008096B05C4
:1011300040F1C08025F4B065B3E72B06CFD525F08C
:101140008005AEE7002C08BF4FF0FF3415F0010317
:101150007FF45EACE90633D51D46FBF7DFF9DBF81B
:1011600000301A7810440133427812073FF5BFABC4
:10117000DBF80420CBF800300135531EAC42CBF82D
:1011800004303FF4B4AB002BE7DC5946504602F084
:101190006BFF0028E1D0FFF7AABB594650460492E6
:1011A00002F062FF049A002887D098E7CDF83880D3
:1011B0009BE5059A13680432059283ED000BCDE69A
:1011C000059A1568161D2C44A846FBF7A7F9DBF80D
:1011D000002013781844511C43781B0715D4DBF802
:1011E0000430CBF80010013BCBF80430137808F83A
:1011F000013B44450AD0DBF80430002BE5DC5946BE
:10120000504602F031FF0028DFD04446069A05968A
:10121000039E651B0023013223702F44069234463F
:10122000FFF700BA22463470049B0A99079C504687
:10123000A047AA0646D46B077BD5059A13680432EB
:1012400005921880069B0133069359E7FBF754F982
:1012500086423FF4C4AA9BE80C0012F8010BCBF8BD
:101260000020089A009254AA751C013B9055CBF8B7
:10127000043041462B46504601F09CFE461C3FF48C
:10128000AEAA00286BD1C8F8000001F075FE002856
:1012900000F0AF80002D3FF4D9AB54AB5C19013D99
:1012A0005A4614F8011D504602F09CFE002DF6D15E
:1012B000FFF7CCBB25F460750FB1013F013408F195
:1012C0000108F0E6059A1368043205921860B9E740
:1012D00025F4F065012377E516F8011C5A465046BF
:1012E00002F080FE013E03E70DF14408FFF7A1BBC9
:1012F00025F4F0654FF0010866E50B9BF61A724283
:10130000002E3FF409AE0DF2A323994528BF0DF23C
:10131000A22948462D49FBF72DFFFDE50F9C2146EC
:101320000A2301315046FDF7AFFD0D9BA146C21ABD
:10133000E9E715F00102C5D1AC07C3D5079B1946F3
:10134000234B99425046049B0A9964D002F0EAFB71
:10135000059A136804320592C3E9000172E702306E
:1013600020D12E46DBF80430002B3FF763AB594603
:10137000504602F079FE00283FF45CAB002E7FF46B
:101380002EAAFFF763BB0A9B99457FF651A919F86E
:10139000011D5A46504602F025FE0A9B9945F6D19A
:1013A000FFF746B9D8F800006FE70A9B99457FF62A
:1013B0003FA919F8011D5A46504602F013FE0A9B38
:1013C0009945F6D1FFF734B930790100547901001D
:1013D000B13C01000A9B99457FF62AA919F8011D25
:1013E0005A46504602F0FEFD0A9B9945F6D1FFF79A
:1013F0001FB92F44013CB9F1000F03D108F10408D3
:101400004E46AFE70646ADE7284602F0AFFA05962E
:1014100084ED000AA2E502F053FD99E7F0B5ADF5C1
:10142000057D04AD00930F4613464FF4007403AAE4
:1014300029460394064602F0B3FE88B104460246EC
:101440003946039B304600F073F8AC42039004D059
:101450003046214601F0F4F803980DF5057DF0BD06
:101460004FF0FF30F9E700BF10B4044C13460A46B2
:10147000014620685DF8044BFFF7D0BF5011FF1FF5
:1014800070B5002A9AB005462FDB14461A464FF471
:10149000027300910491ADF80C3011D0013C4FF66D
:1014A000FF761E9B029469460594ADF80E60FDF729
:1014B000FFFC421C12DB009B00221A701AB070BDA8
:1014C0001E9B02944FF6FF7669460594ADF80E60B8
:1014D000FDF7EEFC431C04DB1AB070BD8B232B60C0
:1014E000E9E78B232B601AB070BD8B2303604FF0AC
:1014F000FF30F1E710B582B0054C00932468134625
:101500000A4601462046FFF7BBFF02B010BD00BFF0
:101510005011FF1F21B1FF2A04D80A700120704723
:10152000084670478A2303604FF0FF30704700BFC2
:1015300070B50D46084C114606461A46284600234B
:101540002360F9F79FFC431C00D070BD2368002B7B
:10155000FBD0336070BD00BF448BFF1F2DE9F04707
:10156000254C2568D5F84841064688469246994656
:10157000C4B360681F2817DC431C76B104EB8005F8
:101580000122C5F888A0D4F8881182401143022EA8
:10159000C4F88811C5F808911ED00230636044F881
:1015A00020800020BDE8F087144B03B34FF4C870CF
:1015B000FAF7BEFF0446D0B1D5F84831002780E8DD
:1015C0008800C5F8484138460123C4F88871C4F83A
:1015D0008C71002EE1D0D1E7D4F88C110A43C4F805
:1015E0008C21DAE705F5A674C5F84841C1E74FF04C
:1015F000FF30BDE8F08700BF5C78010031C5000016
:10160000024B13B1024800F005B87047000000001B
:101610007D250100002301461A461846FFF79EBFAC
:1016200002690B69934200F38D802DE9F04F03F1BD
:10163000FF3801F1140700F1140B57F828205BF86C
:1016400028304FEA880483B00132B3FBF2F90BEB88
:101650000403009407EB040A0193B9F1000F39D099
:101660000025BC46DE462B465CF8046BDEF8002005
:10167000B4B209FB0455360C2C0C09FB0644ADB280
:101680005B1BA6B213FA82F3C6EB124606EB2346A7
:101690009BB243EA0643E2454EF8043B4FEA144549
:1016A0004FEA2643E0D2009B5BF8033093B9019CDC
:1016B000231F9B450CD254F8043C4BB9A4F10803FA
:1016C00002E01A68043B1AB99B4508F1FF38F8D3C9
:1016D000C0F81080044601F0EFFE00282EDB09F16F
:1016E00001095D46002357F8041B28688AB29A1A3C
:1016F000090C12FA80F2C1EB104303EB224391B2C2
:1017000041EA0341BA4545F8041B4FEA2343EAD2B4
:101710005BF828200BEB880382B91A1F93450BD284
:1017200053F8042C42B9083B02E01A68043B1AB98A
:101730009B4508F1FF38F8D3C4F81080484603B041
:10174000BDE8F08F002070472DE9F04F57EC106B8B
:101750009BB0046C249D009181460592039310EE8A
:1017600010AABB4654B1426C626001239340A3604F
:10177000214601F073FC0023C9F84030BBF1000F93
:101780005C4634DB00232B60A14B1A462340934276
:1017900016D00022002350465946FAF787FD5646D8
:1017A0005F46804648B3039A01231360259B002BB4
:1017B00000F0BE809748186001381BB0BDE8F08F7C
:1017C000039A42F20F731360BAF1000F00F09A808F
:1017D0009148259B002BF0D0C378002B00F0AA8005
:1017E00000F10803259A13601BB0BDE8F08F0123B8
:1017F0002BF000442B60A346C6E718AA19A947ECB2
:10180000106B484601F096FF250D0A9040F083804A
:10181000189D199E2E4406F23243202B40F38882F5
:10182000C3F1400306F212409C402AFA00F0204324
:10183000FAF75EFA0123741EA1F1F8710F930022EA
:10184000764BFAF717F96CA3D3E90023FAF7C6FA37
:101850006BA3D3E90023FAF70FF9064620460F469B
:10186000FAF756FA68A3D3E90023FAF7B7FA024663
:101870000B4630463946FAF7FFF806460F46FAF7A8
:101880005DFD00220490002330463946FAF718FD2A
:10189000002840F02882049E162E00F22182604B20
:1018A00003EBC603D3E9000152465B46FAF726FD77
:1018B000002800F04282731E049300230D932D1B19
:1018C000B5F1010800F12A8200230793049B002B45
:1018D000C0F21B8298440C9300230693009B092BB3
:1018E0002AD8052B40F34486043B00930026009B36
:1018F000023B032B00F22386DFE813F02B032402C4
:1019000036035004444B474AC4F31300002814BF65
:10191000184610465DE7CBF3130343F07F51A5F261
:10192000FF345046CDF83C8041F44011189D86E7C5
:101930003D4842E7C31C55E70021C9F8441048461A
:101940000C46009101F064FB4FF0FF3308930E93B7
:1019500001230990C9F8400005940B93199B002BB3
:10196000C0F2D080049A0E2A00F3CC802C4B03EBFB
:10197000C20393ED007B059B002B8DED007BC0F235
:10198000FE8256465F46DDE900AB304652465B4676
:101990003946FAF74DFBFAF7D1FC0446FAF7B8F9E5
:1019A00052465B46FAF71AFA0B460246394630466B
:1019B000FAF760F8099D04F130032B70089B012BA6
:1019C00006460F4605F1010561D00022174BFAF7D4
:1019D00005FA0022002306460F46FAF767FC0028A6
:1019E0007DD1CDF81490DDF820A0DDF824B0DDE93C
:1019F000008928E0AFF3008061436F63A787D23F7F
:101A0000B3C8608B288AC63FFB799F501344D33FED
:101A10000000F07FE95801006C7A01000000F83FF7
:101A2000707B0100607A0100E8580100000024404A
:101A3000FAF7D4F90022002306460F46FAF736FCDF
:101A4000002840F0AE8342464B4630463946FAF70E
:101A5000EFFAFAF773FC0446FAF75AF942464B4696
:101A6000FAF7BCF902460B4630463946FAF702F857
:101A700004F1300E05F801EBCBEB050ED64506461A
:101A80000F464FF00002AE4BD2D1DDF81490324633
:101A90003B4630463946F9F7EFFF06460F46024609
:101AA0000B46DDE90001FAF70BFC40B932463B4634
:101AB000DDE90001FAF7FAFB88B1E3070FD515F865
:101AC000014C099A6B1E04E09A4200F0FC8313F863
:101AD000014D392C03F10105F6D001341C700A992F
:101AE000484601F0BBFA0022049B2A70039A013396
:101AF0001360259B002B00F09B8309981D601BB091
:101B0000BDE8F08F0B9A002A00F00E81009A012A9E
:101B100040F35782089B069A5F1EBA42C0F28B833D
:101B2000D71B089B002BC0F28084079D089B079A57
:101B300001211A4448460792984401F073FB064677
:101B400065B1B8F1000F09DD4545079A2B46A8BFDE
:101B50004346D21A0792ED1AC3EB0808069B002BE6
:101B600040F3F5820B9A002A00F00282002F00F069
:101B7000FF8131463A46484601F0F6FB0A9A014693
:101B80000646484601F058FB0A990446484601F0CB
:101B900065FA069BDB1B069340F0E981012148466C
:101BA00001F040FB0C9B0690002B00F015820146D3
:101BB0001A46484601F0D8FB009B0690012B40F3E3
:101BC000F3820027069A136902EB8303186901F078
:101BD000DBFAC0F12000404410F01F0000F0FA8151
:101BE000C0F12003042B40F3BD84C0F11C00079B0F
:101BF0000344079305448044079B002B05DD2146E1
:101C00001A46484601F000FC0446B8F1000F05DD15
